:020000022000DC
:106000000000012019620200016202000362020026
:10601000056202000762020009620200000000003F
:106020000000000000000000000000000B62020001
:106030000D620200000000000F6202001162020007
:1060400065B10200136202006DBF0200F9AC0200EC
:10605000136202001362020069BE020013620200B2
:106060001362020013620200136202001362020054
:106070001362020013620200136202001362020044
:106080001362020019F90200136202001362020097
:106090001362020013620200512603001362020021
:1060A0001362020013620200136202001362020014
:1060B00013620200136202000000000000000000F2
:1060C00013620200136202001362020013620200F4
:1060D000136202001362020013620200000000005B
:1060E00000000000000000000000000000000000B0
:1060F00000000000000000000000000000000000A0
:10610000000000000000000000000000000000008F
:10611000000000000000000000000000000000007F
:10612000000000000000000000000000000000006F
:10613000000000000000000000000000000000005F
:10614000000000000000000000000000000000004F
:10615000000000000000000000000000000000003F
:10616000000000000000000000000000000000002F
:10617000000000000000000000000000000000001F
:10618000000000000000000000000000000000000F
:1061900000000000000000000000000000000000FF
:1061A00000000000000000000000000000000000EF
:1061B00000000000000000000000000000000000DF
:1061C00000000000000000000000000000000000CF
:1061D00000000000000000000000000000000000BF
:1061E00000000000000000000000000000000000AF
:1061F000000000000000000000000000000000009F
:10620000FEE7FEE7FEE7FEE7FEE7FEE7FEE7FEE766
:10621000FEE7FEE700F002B8FFF7FCBF0F484FF0C3
:106220000701884385460E4880470E48016841F4BF
:1062300070010160BFF34F8FBFF36F8F00F01AB88A
:1062400009480A490A4A884207D0521A05D00378F9
:1062500001300B700131013AF9D170470000012083
:106260003979020088ED00E0C8380300F0220020F0
:10627000F022002039493A480A1A02D007229143F5
:106280008D46384938480A1A06D00722914381F3CF
:106290000988022282F3148834483549354A00F0CF
:1062A0003EF835483549364A00F039F83548364920
:1062B000364A00F034F836483649374A00F02FF8AD
:1062C00036483749374A00F02AF837483749384ABC
:1062D00000F025F837483849384A00F020F83848A7
:1062E0003849002200F033F837483849002200F0DE
:1062F0002EF837483749091A0DF04FF9364A9047BA
:1063000024482549884205D00268043003B49047E8
:1063100003BCF7E700200021304A9047FEE788429F
:1063200014D0521A12D003460B43134303242342C2
:1063300006D1036804300B600431043AF9D1704788
:10634000037801300B700131013AF9D1704788426E
:1063500002D002700130FAE770470000000001200F
:1063600000E000200000012000000120086103007F
:10637000F0220020C4230020E0630200E06302005A
:10638000D437030008610300F0220020F02200202F
:10639000C8380300C8380300C8380300C8380300F1
:1063A000C8380300C8380300C8380300C8380300E1
:1063B00005610300DC610300C4230020C423002026
:1063C000C4230020A8310020A8310020A8310020DB
:1063D000A8310020A851002041620200456C020053
:1063E000BFF34F8F00BF064BDB6803F4E062044944
:1063F000044B1343CB60BFF34F8F00BF00BFFDE7DB
:1064000000ED00E00400FA0572DF704700BF184697
:1064100073DF704700BF184676DF704700BF18462D
:106420007ADF704700BF18467CDF704700BF184610
:106430007FDF704700BF18468FDF704700BF1846E8
:10644000B1DF704700BF184600B583B00346009126
:10645000ADF80630BDF80630009A1946024808F03B
:106460002BF800BF03B000BDEFBEADDE08B50120C4
:1064700000F0C2FD00BF08BD00B583B008F0C0FB4E
:106480000190019B0093009B002B04D0034AAE2196
:10649000009808F011F800BF03B000BDC838030031
:1064A00000B587B09DF80030012262F303038DF838
:1064B00000309DF80030012262F307138DF80030A0
:1064C0006B46092219491846FFF7AEFF0590059B58
:1064D0000493049B002B04D0154AC221049807F0B2
:1064E000EBFF01AB0822002118460DF0CFF8502336
:1064F000ADF80430A023ADF806300023ADF8083025
:106500004FF4C873ADF80A3001AB1846FFF788FFA7
:106510000590059B0393039B002B04D0044ACC21D8
:10652000039807F0C9FF00BF07B000BD7039030032
:10653000C838030000B583B00021084803F0C7F84D
:106540000190019B0093009B002B04D0044AD521AD
:10655000009807F0B1FF00BF03B000BDDC230020AE
:10656000C838030000B5ABB041F22353ADF81C307E
:10657000364B9B7C8DF81E3017AB3C220021184611
:106580000DF084F802238DF85C3001238DF85E3025
:1065900006238DF85F3008AB3C22002118460DF031
:1065A00075F80123ADF8303007AB0D93284B19680F
:1065B00017AB284A184601F082FF2990299B28939F
:1065C000289B002B04D0244AF321289807F074FF5D
:1065D0001F4B996808AB214A184601F070FF2990BB
:1065E000299B2793279B002B04D01B4AF621279831
:1065F00007F062FF01AB1822002118460DF046F8A3
:1066000001238DF819300023ADF8103001238DF8E7
:1066100004300023029300238DF8183040230393A5
:1066200001AB1A460A490E48FFF7EEFE2990299B56
:106630002693269B002B05D0074A40F20511269889
:1066400007F03AFF00BF2BB000BD00BFC4230020FD
:10665000F4220020F8220020C83803000023002084
:10666000F222002000B583B00190044A4FF48971F2
:10667000019807F021FF00BF03B000BDC838030038
:1066800000B583B003460091ADF8063013468DF88F
:1066900005309DF80530002B0ED0022000F032FCB2
:1066A0000E4A0F4BD31ADB081B0443F003030D49BA
:1066B00018460BF023F80DE0022000F03DFC074ADD
:1066C000074BD31ADB081B0443F0030306491846A3
:1066D0000BF014F800BF03B000BD00BF603803002A
:1066E000383803007C3903009039030000B587B0C7
:1066F0000023029300230193144B019301AB19462D
:10670000134803F09FF80590059B0493049B002B0E
:1067100005D0104A4FF49B71049807F0CDFE0E4B44
:10672000029302AB19460D4803F0DAF90590059B78
:106730000393039B002B05D0064A4FF49E710398E8
:1067400007F0BAFE00BF07B000BD00BF65660200DB
:10675000F0230020C838030081660200C423002013
:1067600000B585B00190019B1B78002B11D10A4B1D
:106770001B883B211846FFF74FFE0390039B0293B3
:10678000029B002B05D0054A4FF4A971029807F02F
:1067900093FE00BF05B000BDF0220020C838030002
:1067A00000B583B00190044A40F25D11019807F0F2
:1067B00083FE00BF03B000BDC838030000B58BB036
:1067C00001AB1C22002118460CF060FF002301934E
:1067D0004FF4A02302934FF4A033039303238DF8C7
:1067E00010300023ADF8123000238DF814300B4B1D
:1067F00006930B4B079301AB184602F0A1F80990E2
:10680000099B0893089B002B05D0064A4FF4BA71E8
:10681000089807F051FE00BF0BB000BD6167020091
:10682000A1670200C838030000B583B00B4B1B788A
:1068300001211846FFF7ECFD0190019B0093009B9E
:10684000002B05D0064A40F27F11009807F034FE75
:10685000002000F057FB00BF03B000BDF222002073
:10686000C838030000B58DB001900091019B1B88D2
:10687000562B00F0CD80562B00F3DD80522B00F01C
:10688000A080522B00F3D7803B2B00F0AE803B2B37
:1068900000F3D180212B7AD0212B00F3CC80132B55
:1068A00061D0132B00F3C780102B02D0112B37D0EF
:1068B000C1E0694A694BD31ADB081B0443F00303A8
:1068C000674918460AF01AFF012000F01BFB002060
:1068D00000F032FB019B9A88624B1A80614B1B8847
:1068E0001946614802F0D0FF0B900B9B0493049B68
:1068F000002B05D05D4A4FF4D071049807F0DCFD01
:1069000007F01CFD0B900B9B0393039B002B00F0E7
:106910009480564A4FF4D171039807F0CDFD8CE076
:106920004D4A4E4BD31ADB081B0443F00303504976
:1069300018460AF0E3FE012000F0FEFA494B4FF63C
:10694000FF721A8007F026FD0B900B9B0593059BA9
:10695000002B05D0454A4FF4D571059807F0ACFDE2
:10696000FFF762FF74E03F4B188800230022852167
:10697000FFF75EFD0B900B9B0693069B002B5ED0F2
:106980003A4A4FF4DA71069807F096FD57E0002373
:106990008DF8083000238DF80930019B9B8802AAEE
:1069A00011461846FFF748FD0B900B9B0793079B7A
:1069B000002B46D02D4A4FF4E071079807F07CFD7C
:1069C0003FE0284B1888002300220021FFF738FD04
:1069D0000B900B9B0993099B002B34D0234A4FF457
:1069E000E371099807F068FD2DE0019B9B88132156
:1069F0001846FFF711FD0B900B9B0893089B002B8B
:106A000023D01A4A4FF4E771089807F055FD1CE0AF
:106A1000019B9B8813211846FFF7FEFC0B900B9BF4
:106A20000A930A9B002B12D0104A4FF4EB710A987C
:106A300007F042FD0BE000BF0AE000BF08E000BF26
:106A400006E000BF04E000BF02E000BF00E000BFBE
:106A500000BF0DB000BD00BF603803003838030030
:106A6000A4390300F0220020F0230020C8380300DE
:106A7000B039030000B587B00BF06CFD0590059BA5
:106A80000493049B002B05D0154A40F2E9110498A9
:106A900007F012FD0023019301AB194601200BF012
:106AA0000DFE0590059B0393039B002B05D00C4A1C
:106AB00040F2EF11039807F0FFFC01AB18460BF012
:106AC000F1FE0590059B0293029B002B05D0044A22
:106AD00040F2F311029807F0EFFC00BF07B000BDD1
:106AE000C838030000B585B003460A468DF8073064
:106AF00013468DF806309DF807300D2B2FD11E4A16
:106B00001E4BD31ADB081B0443F003031C49184631
:106B10000AF0F4FD1B4B1B889DF806201A49184605
:106B200003F07AF80390039B002B21D0039B43F2E0
:106B3000020293421CD0039B082B19D0039B43F203
:106B40000142934214D0039B0293029B002B0FD06F
:106B50000E4A40F20D21029807F0AEFC08E09DF8C5
:106B600007300A4A40F21221184607F0A5FC00E05F
:106B700000BF00BF05B000BD603803003838030017
:106B8000C0390300F0220020C4230020C8380300CD
:106B900000B583B040F233320121094807F046FBCB
:106BA0000190019B0093009B002B05D0054A40F209
:106BB0002621009807F080FC00BF03B000BD00BF95
:106BC00004230020C838030000B583B04FF480418F
:106BD00000200AF0C9FA0190019B0093009B002B52
:106BE00005D0054A40F22D21009807F065FC0AF017
:106BF00053FA00BF03B000BDC838030000B583B02E
:106C000009F00EFF0190019B0093009B002B05D023
:106C1000044A40F23921009807F04EFC00BF03B04F
:106C200000BD00BFC838030008B50AF0BFFD034629
:106C300083F00103DBB2002B01D009F007FF00BF96
:106C400008BD000000B583B0FFF7BEFFFFF70EFCE4
:106C5000FFF712FCFFF79CFFFFF7D0FFFFF70AFFDB
:106C6000FFF71EFCFFF766FCFFF740FDFFF77AFC1D
:106C7000FFF7A4FD0CF006F80BF016FF1A4A1B4BA9
:106C8000D31ADB081B0443F00303194918460AF022
:106C900035FD00F0EFF9144A144BD31ADB081B043E
:106CA00043F00303134918460AF028FD12480CF07C
:106CB00043F800F0F8F903468DF807309DF80730E7
:106CC00019460E480CF0ADF900F01CF8064A074BC7
:106CD000D31ADB081B0443F00303094918460AF0E2
:106CE0000DFDFFF7A1FFFCE7603803003838030013
:106CF000DC390300FC390300203A0300343A030076
:106D0000543A030000B583B000F0E1F900F0F0F967
:106D10000346002B1DD000F0FBF903468DF8073029
:106D20009DF8073019460C480CF07BF99DF80730A8
:106D300003F02A03002B07D0052000F0E3F8FFF74B
:106D400073FD00F0CCF9E1E7052000F0F5F8FFF75E
:106D500047FB20BFDAE700BF6C3A030000B583B001
:106D60000190019B1B68184600F0AFF80346002B0A
:106D700004D105494FF4F670FFF766FB4FF0A043CE
:106D8000184603B000BD00BF843A030000B585B0CB
:106D90000190084611461A4603468DF803300B460B
:106DA0008DF8023013468DF8013001AB1846FFF71D
:106DB000D5FF03909DF803209DF802305B001A4335
:106DC0009DF801309B001A439DF818301B0242EADF
:106DD00003019DF81C301B04019A1943039B02F523
:106DE000E07243F8221000BF05B000BD00B585B0C9
:106DF000039000230193002300930023012201212B
:106E00000398FFF7C3FF00BF05B000BD00B585B014
:106E100003900B468DF80B309DF80B300022019249
:106E200000220092002200210398FFF7AFFF00BF6D
:106E300005B000BD00B585B0019001AB1846FFF765
:106E40008DFF0390019B012202FA03F31946039878
:106E500000F027F800BF05B000BD00B585B0019077
:106E600001AB1846FFF77AFF0390019B012202FA5B
:106E700003F31946039800F01EF800BF05B000BDEB
:106E800000B583B001900091009B002B03D10198C5
:106E9000FFF7E3FF02E00198FFF7CCFF00BF03B06C
:106EA00000BD82B001900091019B009AC3F80825B3
:106EB00000BF02B0704782B001900091019B009A20
:106EC000C3F80C2500BF02B0704784B00190019B4D
:106ED0005B09029300230393029B002B03D14FF025
:106EE000FF33039300BF019B03F01F030193039A39
:106EF000019B22FA03F303F00103DBB2184604B04E
:106F00007047000000B583B00190019B052B03D9A9
:106F100007494120FFF798FA064A019B13441B7862
:106F200000211846FFF7ACFF00BF03B000BD00BF53
:106F3000B43A03004C3B030000B583B00190019BC1
:106F4000052B03D907494720FFF77EFA064A019B24
:106F500013441B7801211846FFF792FF00BF03B0CE
:106F600000BD00BFB43A03004C3B030000B583B042
:106F70000023019305E00198FFF7DEFF019B013339
:106F80000193019B052BF6D900BF00BF03B000BDE4
:106F900000B583B00023019309E0094A019B134423
:106FA0001B781846FFF722FF019B01330193019BD9
:106FB000052BF2D9FFF7DAFF00BF03B000BD00BF19
:106FC0004C3B030000B583B0002301930AE0094A5B
:106FD000019B13441B7803211846FFF717FF019B01
:106FE00001330193019B032BF1D900BF00BF03B014
:106FF00000BD00BF543B030000B583B00190019B6E
:1070000003F00103002B01D0FFF7C2FF019B03F047
:107010000203002B01D0FFF7D5FF00BF03B000BD76
:1070200000B585B00190019B002B0AD0064B43F0C0
:1070300001030393019B9B010293039B02989847D2
:1070400000E000BF05B000BD803C030000B583B088
:107050000190019B002B0AD04FF47A70FFF7E0FFFC
:10706000019B013B0193019B002BF5D100E000BF88
:1070700003B000BD00B583B01420FFF7E7FF002187
:1070800030200BF045FD0DF10703194631200BF0C0
:1070900077FD00F015F80A20FFF7D8FF00F054F84C
:1070A00000BF03B000BD00B583B00DF10703194662
:1070B0000F200BF065FD9DF80730184603B000BDAA
:1070C00008B5002120200BF023FD00BF08BD08B546
:1070D0002A220021022000F075F800BF08BD08B583
:1070E00015226421022000F06DF800BF08BD0000E9
:1070F000064B1B78DBB2002B04D0044B00221A7025
:10710000012300E000231846704700BF3B24002005
:1071100000B583B00DF10703194631200BF030FDA7
:107120009DF80730184603B000BD000082B0019002
:107130000B468DF80330034B01221A7000BF02B0DA
:10714000704700BF3B24002000B585B0184B0022DB
:107150001A7004F08BFC0346002B03D015480BF08B
:10716000EBFD01E004F01EFC134A01AB126811466E
:1071700019800233120C1A7000238DF8053001AB10
:107180000E4A1946192004F07DFC0390039B0293DC
:10719000029B002B05D00A4A4FF49871029807F021
:1071A0008BF90121192004F0E9FC00BF05B000BDF6
:1071B0003B240020783B0300643C03002D71020057
:1071C000A03B030000B585B003468DF807300B46A1
:1071D0008DF8063013468DF80530272120200BF05E
:1071E00097FC012121200BF093FC402122200BF081
:1071F0008FFC082123200BF08BFC144B02221A7009
:10720000134B04221A709DF80730194632200BF0F8
:107210007FFC9DF80630194633200BF079FC0D4BAE
:1072200000221A70082124200BF072FC0DF10F03CC
:10723000194626200BF0A4FC9DF805301946302095
:107240000BF066FC00BF05B000BD00BF3D24002070
:107250003C2400203B240020BFF34F8F00BF064B8F
:10726000DB6803F4E0620449044B1343CB60BFF3D3
:107270004F8F00BF00BFFDE700ED00E00400FA05FE
:1072800082B0214B1B68B3F1FF3F0AD11F4B1B6833
:10729000DBB201931E4B1B681B0903F00F03009325
:1072A00005E0194B1B6801931A4B1B680093019B67
:1072B000062B24D1009B072B1DD0009B072B1CD82D
:1072C000009B062B15D0009B062B16D8009B052B88
:1072D0000DD0009B052B10D8009B032B03D0009BE7
:1072E000042B02D009E001230AE0012308E0012376
:1072F00006E0012304E0012302E0012300E0002373
:10730000184602B0704700BF30010010E00F00F0D7
:10731000E80F00F03401001082B01B4B1B68DBB299
:1073200001931A4B1B681B0903F00F030093019B89
:10733000062B24D1009B072B1DD0009B072B1CD8AC
:10734000009B062B15D0009B062B16D8009B052B07
:107350000DD0009B052B10D8009B032B03D0009B66
:10736000042B02D009E001230AE0002308E00023F7
:1073700006E0002304E0002302E0002300E00023F5
:10738000184602B0704700BFE00F00F0E80F00F0B1
:1073900082B0214B1B68B3F1FF3F0AD11F4B1B6822
:1073A000DBB201931E4B1B681B0903F00F03009314
:1073B00005E0194B1B6801931A4B1B680093019B56
:1073C000062B24D1009B072B1DD0009B072B1CD81C
:1073D000009B062B15D0009B062B16D8009B052B77
:1073E0000DD0009B052B10D8009B032B03D0009BD6
:1073F000042B02D009E001230AE0012308E0012365
:1074000006E0012304E0012302E0012300E0002361
:10741000184602B0704700BF30010010E00F00F0C6
:10742000E80F00F03401001082B01B4B1B68DBB288
:1074300001931A4B1B681B0903F00F030093019B78
:10744000062B24D1009B072B1DD0009B072B1CD89B
:10745000009B062B15D0009B062B16D8009B052BF6
:107460000DD0009B052B10D8009B032B03D0009B55
:10747000042B02D009E001230AE0002308E00023E6
:1074800006E0002304E0002302E0002300E00023E4
:10749000184602B0704700BFE00F00F0E80F00F0A0
:1074A00082B0214B1B68B3F1FF3F0AD11F4B1B6811
:1074B000DBB201931E4B1B681B0903F00F03009303
:1074C00005E0194B1B6801931A4B1B680093019B45
:1074D000062B24D1009B072B1DD0009B072B1CD80B
:1074E000009B062B15D0009B062B16D8009B052B66
:1074F0000DD0009B052B10D8009B032B03D0009BC5
:10750000042B02D009E001230AE0012308E0012353
:1075100006E0012304E0012302E0012300E0002350
:10752000184602B0704700BF30010010E00F00F0B5
:10753000E80F00F03401001082B01B4B1B68DBB277
:1075400001931A4B1B681B0903F00F030093019B67
:10755000062B24D1009B072B1DD0009B072B1CD88A
:10756000009B062B15D0009B062B16D8009B052BE5
:107570000DD0009B052B10D8009B032B03D0009B44
:10758000042B02D009E001230AE0002308E00023D5
:1075900006E0002304E0002302E0002300E00023D3
:1075A000184602B0704700BFE00F00F0E80F00F08F
:1075B00082B01B4B1B68DBB201931A4B1B681B0983
:1075C00003F00F030093019B062B24D1009B072B94
:1075D0001DD0009B072B1CD8009B062B15D0009BB1
:1075E000062B16D8009B052B0DD0009B052B10D821
:1075F000009B032B03D0009B042B02D009E0012346
:107600000AE0002308E0002306E0002304E0002352
:1076100002E0002300E00023184602B0704700BFDC
:10762000E00F00F0E80F00F082B0214B1B68B3F1CF
:10763000FF3F0AD11F4B1B68DBB201931E4B1B6837
:107640001B0903F00F03009305E0194B1B6801931E
:107650001A4B1B680093019B062B24D1009B072B20
:107660001DD0009B072B1CD8009B062B15D0009B20
:10767000062B16D8009B052B0DD0009B052B10D890
:10768000009B032B03D0009B042B02D009E00023B6
:107690000AE0002308E0012306E0012304E00123BF
:1076A00002E0012300E00023184602B0704700BF4B
:1076B00030010010E00F00F0E80F00F0340100107E
:1076C00082B0214B1B68B3F1FF3F0AD11F4B1B68EF
:1076D000DBB201931E4B1B681B0903F00F030093E1
:1076E00005E0194B1B6801931A4B1B680093019B23
:1076F000062B24D1009B072B1DD0009B072B1CD8E9
:10770000009B062B15D0009B062B16D8009B052B43
:107710000DD0009B052B10D8009B032B03D0009BA2
:10772000042B02D009E001230AE0012308E0012331
:1077300006E0012304E0012302E0012300E000232E
:10774000184602B0704700BF30010010E00F00F093
:10775000E80F00F03401001082B0214B1B68B3F138
:10776000FF3F0AD11F4B1B68DBB201931E4B1B6806
:107770001B0903F00F03009305E0194B1B680193ED
:107780001A4B1B680093019B062B24D1009B072BEF
:107790001DD0009B072B1CD8009B062B15D0009BEF
:1077A000062B16D8009B052B0DD0009B052B10D85F
:1077B000009B032B03D0009B042B02D009E0012384
:1077C0000AE0012308E0012306E0012304E001238D
:1077D00002E0012300E00023184602B0704700BF1A
:1077E00030010010E00F00F0E80F00F0340100104D
:1077F00082B0194B1B680193184B1B680093019BC7
:10780000062B24D1009B072B1DD0009B072B1CD8D7
:10781000009B062B15D0009B062B16D8009B052B32
:107820000DD0009B052B10D8009B032B03D0009B91
:10783000042B02D009E000230AE0002308E0002323
:1078400006E0012304E0012302E0012300E000231D
:10785000184602B0704700BF30010010340100101C
:1078600082B0194B1B680193184B1B680093019B56
:10787000062B24D1009B072B1DD0009B072B1CD867
:10788000009B062B15D0009B062B16D8009B052BC2
:107890000DD0009B052B10D8009B032B03D0009B21
:1078A000042B02D009E000230AE0002308E00023B3
:1078B00006E0002304E0012302E0012300E00023AE
:1078C000184602B0704700BF3001001034010010AC
:1078D00008B5FFF7C5FF0346002B07D04FF0102374
:1078E0004FF08042D3F80832C2F8583500BF08BDC7
:1078F00000BF044BD3F80034002BFAD000BF00BF08
:10790000704700BF00E0014000B583B00190044A19
:10791000019BC2F80435FFF7EBFF00BF03B000BDC9
:1079200000E00140024B034A1A6000BF704700BFED
:107930000C2300200090D00308B5FFF7A1FC0346FC
:10794000002B06D0964B1B681B0A964A03F01F03B8
:107950001360FFF7E1FC0346002B02D0924B934AE1
:107960001A60FFF715FD0346002B06D0904B1B68ED
:107970005B0B904A03F007031360FFF755FD0346C6
:10798000002B05D08C4BDB688B4A23F08073D360CF
:10799000FFF786FD0346002B0ED04FF080430022F8
:1079A000C3F80C214FF080430022C3F810214FF0A0
:1079B00080430022C3F83825FFF7BEFD0346002BA5
:1079C00002D07E4B03221A60FFF7F2FD0346002B24
:1079D0000BD07B4B05221A607A4B01221A607A4B3E
:1079E00000221A60794B3F221A60FFF71DFE034602
:1079F000002B76D04FF08053754AD3F80434C2F888
:107A000020354FF08053724AD3F80834C2F8243539
:107A10004FF080536E4AD3F80C34C2F828354FF03B
:107A200080536B4AD3F81034C2F82C354FF0805392
:107A3000674AD3F81434C2F830354FF08053644AA3
:107A4000D3F81834C2F834354FF08053604AD3F875
:107A50001C34C2F840354FF080535D4AD3F82034CF
:107A6000C2F844354FF08053594AD3F82434C2F851
:107A700048354FF08053564AD3F82834C2F84C3575
:107A80004FF08053524AD3F82C34C2F850354FF09F
:107A900080534F4AD3F83034C2F854354FF08053F6
:107AA0004B4AD3F83434C2F860354FF08053484A1B
:107AB000D3F83834C2F864354FF08053444AD3F8D1
:107AC0003C34C2F868354FF08053414AD3F8403413
:107AD000C2F86C354FF080533D4AD3F84434C2F8B5
:107AE0007035FFF7EDFD0346002B05D0394B1B68C1
:107AF000394A03F04F031360FFF72EFE0346002BB5
:107B00000DD04FF08043D3F8003403F00103002B75
:107B100005D04FF080436FF00102C3F80024FFF757
:107B200067FE0346002B05D02C4B1B682B4A43F401
:107B3000806313602A4BD3F88830294A43F47003DA
:107B4000C2F88830BFF34F8F00BFBFF36F8F00BF05
:107B5000FFF7BEFE4FF01023D3F80032002B05DBF9
:107B60004FF01023D3F80432002B15DA0120FFF771
:107B7000CBFE4FF010231522C3F80022FFF7B8FE0A
:107B80004FF010231522C3F80422FFF7B1FE0020A6
:107B9000FFF7BAFEFFF760FBFFF7C4FE00BF08BDAA
:107BA000240300104035014074C007400DF0ADBA09
:107BB000440200103C050040F0ED00E0A00500404C
:107BC0001056004088560040185600401456004099
:107BD00000C0004058020010E40E00403C17004076
:107BE00000ED00E06DDF704700BF184679DF704799
:107BF00000BF18467DDF704700BF184664DF70473E
:107C000000BF184682B003460091ADF80630BDF8BB
:107C10000630DAB2009B1A70BDF806301B0A9AB221
:107C2000009B0133D2B21A700223184602B070478B
:107C300000B589B0039002911346ADF80630029B5F
:107C40001B8803F10902BDF806309A4201D90C23C2
:107C500053E004AB1846FFF7C5FF0790079B069358
:107C6000069B002B01D0069B47E0029B1B881A460F
:107C7000039B134408221A70029B1B8801339AB29B
:107C8000029B1A80029B1B881A46039B13441B22EB
:107C90001A70029B1B8801339AB2029B1A80029BC6
:107CA0001B881A46039B981804AB01330622194619
:107CB0000BF0BAFC029B1B8806339AB2029B1A8017
:107CC0009DF8103023F00103DBB2002B07D1029B9B
:107CD0001B881A46039B134400221A7006E0029B7D
:107CE0001B881A46039B134401221A70029B1B88AF
:107CF00001339AB2029B1A800023184609B000BDD6
:107D000000B589B0039002910192ADF80230039B57
:107D10001B78012B05D1039B5B78002B01D1072336
:107D200091E0019B1B889A1CBDF802309A420ED844
:107D3000039B1B78012B0CD1019B1B881A46039BCC
:107D40005B7813449A1CBDF802309A4201D90C2387
:107D500079E0019B1B88BDF80220D31A9BB2023B3D
:107D6000ADF81C30BDF81C30ADF81230019B1B88FB
:107D70000233029A13440DF1120211461846FFF71E
:107D800039FF0690069B0593059B002B01D0059BB0
:107D900059E0039B1B78022B06D0039B5B781A46A5
:107DA000BDF812309A4209D3BDF81230BDF81C203C
:107DB0009A4203D309238DF81F3016E008238DF86B
:107DC0001F30039B1B78012B0BD1039B5B781A465A
:107DD000BDF81C30934204D3039B5B78ADF812309E
:107DE00003E0BDF81C30ADF81230BDF81230FE2BA8
:107DF00001D90C2327E0BDF81230DAB2019B1B88B1
:107E00001946029B0B440132D2B21A70019B1B88A7
:107E100001339AB2019B1A80019B1B881A46029B70
:107E200013449DF81F201A70019B1B8801339AB2DE
:107E3000019B1A80019B1A88BDF8123013449AB234
:107E4000019B1A800023184609B000BD00B589B017
:107E5000039002911346ADF80630029B1B881A1D51
:107E6000BDF806309A4201D90C233AE00DF1160311
:107E70001846FFF7BBFE0790079B0693069B002B57
:107E800001D0069B2DE0029B1B881A46039B1344DE
:107E900003221A70029B1B8801339AB2029B1A803C
:107EA000029B1B881A46039B134419221A70029BDB
:107EB0001B8801339AB2029B1A80BDF81620029BE0
:107EC0001B881946039B0B4419461046FFF79AFE80
:107ED00003461A46029B1B8813449AB2029B1A80DF
:107EE0000023184609B000BD84B0029101921A46E1
:107EF00003468DF80F301346ADF80C30019B1B88FC
:107F0000DA1CBDF80C309A4201D90C2328E0019B01
:107F10001B881A46029B134402221A70019B1B887D
:107F200001339AB2019B1A80019B1B881A46029B5F
:107F3000134401221A70019B1B8801339AB2019BE2
:107F40001A80019B1B881A46029B13449DF80F2040
:107F50001A70019B1B8801339AB2019B1A8000237F
:107F6000184604B0704784B0029101921A46034645
:107F70008DF80F301346ADF80C30019B1B88DA1CCE
:107F8000BDF80C309A4201D90C2328E0019B1B88D4
:107F90001A46029B134402221A70019B1B8801336C
:107FA0009AB2019B1A80019B1B881A46029B1344BC
:107FB0000A221A70019B1B8801339AB2019B1A8016
:107FC000019B1B881A46029B13449DF80F201A70D0
:107FD000019B1B8801339AB2019B1A80002318462B
:107FE00004B0704700B58DB0039001930B468DF837
:107FF0000B3013468DF80A3000238DF82B300E9B82
:108000001B88ADF8283000230B9372E0039B5A685D
:108010000B9B9B001A4404AB106818600DF117010C
:1080200004AB00221846FFF7E9FD0890089B079370
:10803000079B002B01D0079B7DE09DF817309DF832
:108040000A209A4252D19DF82B30002B03D00023F6
:108050008DF82A3002E002238DF82A300E9B1B880F
:108060001A469DF817301A449DF82A301A44BDF874
:108070003C309A4201DD0C235DE09DF82B3083F00B
:108080000103DBB2002B16D00E9B1B8801339AB282
:108090000E9B1A800E9B1B881A46019B13449DF869
:1080A0000B201A700E9B1B8801339AB20E9B1A800C
:1080B00001238DF82B300E9B1B881A46019B1A4416
:1080C0000DF1170104AB1846FFF798FD0890089BC7
:1080D0000693069B002B01D0069B2CE00E9B1B8871
:1080E0009DF8172013449AB20E9B1A800B9B013304
:1080F0000B93039B1B881A460B9B934286DB9DF8D0
:108100002B30002B16D00E9B1A88BDF82830D31ABE
:108110009BB2013BADF82630BDF82630FF2B01D9CC
:108120000C2308E0BDF82830019A1344BDF826203E
:10813000D2B21A70002318460DB000BD00B58BB046
:10814000059003930B468DF8133013468DF81230CB
:108150009DF81310BDF8343001930C9B0093039BE2
:1081600002220598FFF73EFF0990099B0893089BA0
:10817000002B01D0089B14E09DF81210BDF834309C
:1081800001930C9B0093039B10220598FFF72AFF95
:108190000990099B0793079B002B01D0079B00E0E8
:1081A000002318460BB000BD82B00190019B1B88D4
:1081B000052B0AD9019B1B88B3F5486F07D9019B92
:1081C0001B884FF6FF72934201D0072325E0019BE5
:1081D0005B88052B0AD9019B5B88B3F5486F07D9EB
:1081E000019B5B884FF6FF72934201D0072314E096
:1081F000019B1B884FF6FF7293420DD0019B5B8859
:108200004FF6FF72934207D0019B1A88019B5B884F
:108210009A4201D9072300E00023184602B07047B4
:1082200000B587B0039002910192ADF80230019B36
:108230001B889A1DBDF802309A4201D90C234BE0ED
:108240000398FFF7B1FF0590059B0493049B002B57
:1082500001D0049B40E0019B1B881A46029B1344FB
:1082600005221A70019B1B8801339AB2019B1A8068
:10827000019B1B881A46029B134412221A70019B11
:108280001B8801339AB2019B1A80039B1A88019BB9
:108290001B881946029B0B4419461046FFF7B2FC97
:1082A00003461A46019B1B8813449AB2019B1A800D
:1082B000039B5A88019B1B881946029B0B44194655
:1082C0001046FFF79FFC03461A46019B1B88134488
:1082D0009AB2019B1A800023184607B000BD00B572
:1082E00087B0039002910192ADF80230039B9B8806
:1082F00002330593019B1B881A46059B13449A1C65
:10830000BDF802309A4201D90C2353E0059BFE2BA5
:1083100001D90C234EE0059BDAB2019B1B8819465C
:10832000029B0B440132D2B21A70019B1B880133AD
:108330009AB2019B1A80019B1B881A46029B134428
:10834000FF221A70019B1B8801339AB2019B1A808D
:10835000039B1A88019B1B881946029B0B441946F4
:108360001046FFF74FFC03461A46019B1B88134437
:108370009AB2019B1A80039B9B88002B19D0039B08
:108380009B68002B01D1072314E0019B1B881A4630
:10839000029B9818039B9968039B9B881A460BF0D5
:1083A00043F9019B1A88039B9B8813449AB2019B53
:1083B0001A800023184607B000BD00B589B00390AD
:1083C00002910192ADF80230039B9B6A002B01D110
:1083D000072371E000238DF81F3065E0039B996A45
:1083E0009DF81F2013465B0013449B000B4406932B
:1083F000069B9B8802330593059BFE2B01D90C231A
:108400005AE0059BDAB2019B1B881946029B0B447C
:108410000132D2B21A70019B1B8801339AB2019BC0
:108420001A80019B1B881A46029B134416221A705D
:10843000019B1B8801339AB2019B1A80069B1A8804
:10844000019B1B881946029B0B4419461046FFF7F7
:10845000D9FB03461A46019B1B8813449AB2019B21
:108460001A80069B9B88002B19D0069B9B68002BCB
:1084700001D1072320E0019B1B881A46029B981814
:10848000069B9968069B9B881A460BF0CDF8019BCA
:108490001A88069B9B8813449AB2019B1A809DF808
:1084A0001F3001338DF81F30039B93F82C309DF85B
:1084B0001F209A4292D30023184609B000BD00B590
:1084C00095B005900491039200231393039B1B889E
:1084D000ADF84A30039B00221A80059B93F82D309B
:1084E000002B0ED0BDF84A301A4603990498FFF7C6
:1084F0009FFB1390139B1193119B002B01D0119B99
:10850000D8E0059B9B78002B0ED0BDF84A301A4668
:1085100003990498FFF79AFC1390139B1093109BF8
:10852000002B01D0109BC5E0059BDB78002B10D001
:10853000059BDB7858B2BDF84A30039A0499FFF7DF
:10854000D3FC1390139B0F930F9B002B01D00F9B19
:10855000B0E0059B5B68002B11D0059B5B6893F92D
:108560000000BDF84A30039A0499FFF7FCFC139011
:10857000139B0E930E9B002B01D00E9B9AE0059B44
:108580001B89002B14D0059B03F10800BDF84A306D
:108590000193039B0093049B06220221FFF7CEFD6B
:1085A0001390139B0D930D9B002B01D00D9B81E02D
:1085B000059B1B8A002B14D0059B03F11000BDF80E
:1085C0004A300193039B0093049B07220321FFF78A
:1085D000B5FD1390139B0C930C9B002B01D00C9BAF
:1085E00068E0059B1B8B002B14D0059B03F1180042
:1085F000BDF84A300193039B0093049B152214217C
:10860000FFF79CFD1390139B0B930B9B002B01D04A
:108610000B9B4FE0059B1B6A002B0FD0059B186A34
:10862000BDF84A30039A0499FFF7FAFD1390139BA3
:108630000A930A9B002B01D00A9B3BE0059B5B6AD7
:10864000002B0FD0059B586ABDF84A30039A049955
:10865000FFF745FE1390139B0993099B002B01D054
:10866000099B27E0059B93F82C30002B0ED0BDF81A
:108670004A30039A04990598FFF79FFE1390139BC5
:108680000893089B002B01D0089B13E0059B1B78E7
:10869000002B0ED0BDF84A30039A04990598FFF7D5
:1086A0002FFB1390139B0793079B002B01D0079B75
:1086B00000E0139B184615B000BD75DF704700BF82
:1086C000184676DF704700BF18467ADF704700BF54
:1086D00018467BDF704700BF1846000084B0034691
:1086E000ADF806300023039316E00F49039A1346B2
:1086F0009B0013449B000B441B88BDF806209A4244
:1087000007D1039A13469B0013449B00064A134467
:1087100006E0039B01330393039B002BE5D000236A
:10872000184604B0704700BF6024002082B001905A
:108730000B46ADF80230019BBDF802201A80019B68
:1087400000221A72019B054903F10A020B4603CB72
:108750001060516000BF02B0704700BF902400203D
:1087600082B00190019B4FF6FF721A8000BF02B0E9
:10877000704788B00390029111461A460B46ADF837
:1087800006301346ADF80430039B9B881A46BDF8AB
:10879000063013440793039B9B881946039B9B88D1
:1087A000BDF80620934228BF13469BB2CB1A06930E
:1087B000039BDB881A46BDF8043013440593039BE2
:1087C000DB881946039BDB88BDF80420934228BF51
:1087D00013469BB2CB1A0493029B5A88039B1B88B7
:1087E0009A4205D3029B5A88039B5B889A4201D91F
:1087F00000231CE0029B9B881A46069B934205D8E7
:10880000029B9B881A46079B934201D200230EE0ED
:10881000029BDB881A46049B934205D8029BDB88A7
:108820001A46059B934201D2002300E0012318461B
:1088300008B0704700B583B00190054B9B69002BD1
:1088400003D0034B9B690198984700BF03B000BD5C
:108850007424002000B585B003460091ADF80630C1
:10886000BDF8063000991846FFF727FF0390039BD9
:10887000002B05D0039B112B02D00398FFF7DAFFE2
:10888000039B002B0CBF01230023DBB2184605B06D
:1088900000BD000000B589B00190019B0793079BC4
:1088A0009BB21846FFF71AFF0690069B002B42D09A
:1088B000069B1A7A214B1B7B9A4215D2079B9AB2D0
:1088C000069B0A3319461046FFF7C4FF03468DF88E
:1088D00013309DF81330002B2DD0069B1B7A0133EB
:1088E000DAB2069B1A7226E0069B00221A72134B1C
:1088F0001B7C002B0FD0079B9BB23B211846FFF738
:10890000E0FE0590059B002B05D0059B082B02D0AF
:108910000598FFF78FFF094B5B69002B0BD00023F5
:108920008DF80C30079B9BB2ADF80E30034B5B69A2
:1089300003AA1046984700BF09B000BD7424002068
:1089400030B587B00190019B002B01D10E2353E07D
:108950002B4A019B14461D460FCD0FC495E8070016
:1089600084E80700264B274A1A60019B1B68002BEE
:1089700011D0019B1B681846FFF7A7FE0490049BCB
:10898000002B01D0049B37E0019B1A681D4B106837
:10899000516803C308E01B48FFF79BFE0490049B4B
:1089A000002B01D0049B27E00023059320E0059ACB
:1089B00013469B0013449B00134A134403930398EC
:1089C000FFF7CEFE059B5B01104A1A44039B5A60D9
:1089D000039B04330E4A0021184606F04DF904901B
:1089E000049B002B01D0032306E0059B0133059374
:1089F000059B002BDBD00023184607B030BD00BF1D
:108A000074240020902400206024002040240020B2
:108A10009588020000B587B003460091ADF8063096
:108A2000009B5B7A002B1AD1009B1B7A002B03D191
:108A3000164B5B68059302E0144B9B680593009B03
:108A40005B68BDF806200599184606F04FF90490BA
:108A5000049B002B16D00498FFF7ECFE12E0009B5D
:108A600000221A72094B5B69002B0BD001238DF891
:108A70000C30BDF80630ADF80E30044B5B6903AA2C
:108A80001046984700BF07B000BD00BF7424002007
:108A900000B585B00190019BDB7B8DF80F30019B09
:108AA0009B88ADF80C309DF80F30012B2CD14FF680
:108AB000FF70FFF713FE0290029B002B03D10420EE
:108AC000FFF7B8FE21E0BDF80C3019460298FFF719
:108AD0002DFE029B03F10A00019B03F110014FF6EA
:108AE000FF7340F2F312FFF744FE03461A46029B5F
:108AF0005A72074BDB89002B07D1BDF80C30029965
:108B00001846FFF787FF00E000BF05B000BD00BFBB
:108B10007424002000B587B00190019B9B88ADF8BC
:108B20001630BDF816301846FFF7D8FD0490049BA8
:108B3000002B0ED0049B5B68184606F02FF90390BB
:108B4000039B002B02D00398FFF774FE0498FFF7F5
:108B500007FE00BF07B000BD00B587B00190019BC4
:108B600006330593059B1A88194BDB899A422BD152
:108B7000059B5B89022B27D1019B9B88ADF81230A6
:108B8000BDF812301846FFF7A9FD0390039B002B98
:108B90001AD0059B0C33184600F0E5F90346002B6C
:108BA00006D0BDF8123003991846FFF733FF0BE0EB
:108BB000039B5B68184606F0F1F80290029B002BBD
:108BC00002D00298FFF736FE00BF07B000BD00BF1D
:108BD0007424002000B585B00190019B9B88ADF8FE
:108BE0000E30BDF80E301846FFF778FD0290029B5C
:108BF000002B15D0029B03F10A00019B03F1080131
:108C00004FF6FF7340F2F312FFF7B3FD03461A4627
:108C1000029B5A72BDF80E3002991846FFF7FAFE11
:108C200000BF05B000BD00B583B001900091019B6D
:108C30001B88502B12D0502B18DC122B12D0122B69
:108C400014DC102B02D0112B04D00FE00198FFF799
:108C50001FFF0CE00198FFF75DFF08E00198FFF7A8
:108C60007BFF04E00198FFF7B5FF00E000BF00BF05
:108C700003B000BD30B58FB0019000910023029386
:108C8000009B002B1AD000230D9314E06B460D9926
:108C9000184606F07CFF0346002B09D0029B5A1CA5
:108CA00002920D9A92B25B0038336B4423F82C2C5D
:108CB0000D9B01330D930D9B132BE7D9019B1D4693
:108CC00002AC0FCC0FC50FCC0FC594E8070085E8A8
:108CD000070001980FB030BD00B583B00346ADF872
:108CE0000630BDF80630132B01D900230CE0BDF887
:108CF00006301946064806F01BFFBDF80630194637
:108D0000044806F015FF0123184603B000BD00BF5C
:108D1000A02400209C24002000B585B00346ADF8B7
:108D20000630002303930DE0039B9B00094A134484
:108D30000433BDF806201146184606F010FF039BC9
:108D400001330393039B1D2BEED900BF00BF05B079
:108D500000BD00BF9824002000B583B00346ADF8E5
:108D60000630BDF806301946024806F0F8FE00BF8E
:108D700003B000BDA024002030B59BB0184B9B6809
:108D8000DB431893164B5A6818AB1146184606F089
:108D900058FF189A6B4611461846FFF76BFF0DAC4B
:108DA0006D460FCD0FC40FCD0FC495E8070084E8C2
:108DB0000700002319930BE0199B5B0068336B4499
:108DC00033F8303C1846FFF7A7FF199B013319937E
:108DD0000D9B199A9A42EFD300BF00BF1BB030BD64
:108DE0009824002000B583B001900B46ADF8023006
:108DF00013468DF801309DF80130002B06D0BDF8E8
:108E000002301946019806F093FE05E0BDF80230E5
:108E10001946019806F0A3FE00BF03B000BD000094
:108E200000B585B001900091019B9B88ADF80E3094
:108E3000019B1B881A2B2ED01A2B71DC192B59D0B1
:108E4000192B6DDC102B02D0112B1ED068E0FFF720
:108E500093FFBDF80E301846FFF73EFF034683F040
:108E60000103DBB2002B05D02F4AF021042005F0CE
:108E700023FB52E0019BDB7B022B4ED1BDF80E3071
:108E800019462A4806F054FE47E0BDF80E30184651
:108E9000FFF762FF44E0019B1B7AC3F30313DBB2CD
:108EA0008DF80D309DF80D30032B8CBF012300236E
:108EB000DAB2BDF80E3019461D48FFF793FF9DF852
:108EC0000D30022B8CBF01230023DAB2BDF80E3027
:108ED00019461848FFF786FF9DF80D30012B8CBF0F
:108EE00001230023DAB2BDF80E3019461248FFF70D
:108EF00079FF15E0019B1B7A002B10D1019B5B7A57
:108F0000C3F3C0038DF80C309DF80C20BDF80E3073
:108F100019460748FFF766FF01E000BF00E000BF09
:108F200000BF05B000BD00BF883C0300A4240020A2
:108F3000B0240020AC240020A824002082B001909E
:108F4000019B1B781AB2019B01331B781BB21B02D9
:108F50001BB213431BB29BB2184602B07047AADF84
:108F6000704700BF184600B585B001900198FFF723
:108F7000E5FF0346ADF80E30BDF80E3003F00103F7
:108F8000DBB2184605B000BD82B0034600918DF8F3
:108F90000730009A137823F00F031370009A1378A8
:108FA00023F0F00313709DF80730052B51D0052BEB
:108FB0005DDC042B40D0042B59DC032B2FD0032B7A
:108FC00055DC022B1ED0022B51DC002B02D0012BD2
:108FD0000BD04CE0009A137823F00F031370009A23
:108FE000137823F0F003137040E0009A1378012106
:108FF00061F303031370009A1378012161F30713DF
:10900000137033E0009A1378012161F303031370A6
:10901000009A1378022161F30713137026E0009A77
:109020001378012161F303031370009A137803216D
:1090300061F30713137019E0009A1378022161F3AA
:1090400003031370009A1378012161F3071313705F
:109050000CE0009A1378022161F303031370009A65
:109060001378022161F30713137000BF00BF00BF24
:1090700002B0704700B595B0034602910192ADF879
:109080000E30029B9B78002B03D101238DF81E30FC
:1090900003E0029B9B788DF81E30029B1B88ADF885
:1090A0001C3006AB0322002118460AF0EFFA029B9F
:1090B0005B7C06AA11461846FFF766FF029B9A7C66
:1090C00006AB013319461046FFF75EFF029BDA7BC1
:1090D0009DF81A3062F3C3038DF81A30029B1A7C94
:1090E0009DF81A3062F304138DF81A30029B1A7B34
:1090F0009DF81A3062F300038DF81A30029B1B7D35
:10910000002B01D0022200E001229DF81A3062F308
:1091100042038DF81A300DAB1C22002118460AF0CC
:10912000B5FA029B5B7B03F01003DBB2002B06D188
:10913000029B5B7B03F02003DBB2002B24D004AB4B
:109140000322002118460AF0A1FA029BDA7C04AB44
:10915000013319461046FFF717FF9DF81030012222
:1091600062F303038DF810309DF81030012262F392
:1091700007138DF810309DF81230012262F342037C
:109180008DF8123004AB1293029B5B7B8DF8343068
:10919000029B9B7B8DF8353008AB142200211846CA
:1091A0000AF074FA07AB089306AB0993029B9B88FD
:1091B000ADF82C30029B9B68002B06D0029BDB880D
:1091C000ADF82830029B9B680C93029B9B69002B97
:1091D0004FD005AB0322002118460AF057FA029B34
:1091E0009B691B88ADF83C30029B9B695B88ADF89E
:1091F0003E30029B9B695B680E9305AB1193029B0B
:109200009B691B7B05AA11461846FFF7BDFE029B12
:109210009B695A7B05AB013319461046FFF7B4FE34
:10922000029B9B699A7A9DF8163062F3C3038DF80E
:109230001630029B9B69DA7A9DF8163062F30413AC
:109240008DF81630029B9B691A7A9DF8163062F3EE
:1092500000038DF81630029B9B699B7B002B01D08D
:10926000022200E001229DF8163062F342038DF8DD
:109270001630029BDB69002B02D0029BDB69109346
:1092800008AA0DA9BDF80E00019BFFF768FE034672
:10929000184615B000BD90DF704700BF1846A5DF27
:1092A000704700BF1846B5DF704700BF184682B050
:1092B0000190019B17221A80019B17225A80019B63
:1092C00000221A71019B00225A71019B1B229A7184
:1092D000019B1B22DA7100BF02B0704730B589B024
:1092E00003460A46ADF806301346ADF80430BDF823
:1092F0000430ADF81430BDF80430ADF8163000235A
:10930000ADF818300023ADF81A3003AB00221A6014
:109310009A8003AA05A9BDF806301846FFF7BBFFDF
:109320000790079B002B39D01E4A1F4BD31ADB082E
:109330001B0443F00104BDF80650079807F0BCFC7D
:1093400003462A461949204608F0F5F9BDF80C30C5
:10935000002B03D1BDF80E30002B0ED0114A124B5A
:10936000D31ADB081B0443F00100BDF80C301A4689
:10937000BDF80E300E4908F0DEF9BDF81030002BB4
:109380000CD0084A084BD31ADB081B0443F0010336
:10939000BDF810200749184608F0BDF9079B18468C
:1093A00009B030BD80380300383803003C3D03006D
:1093B000883D0300C83D030010B586B001900091C0
:1093C000009B9B88ADF80E30BDF80E30DB00019A93
:1093D000134406330593019B1A79059B9A71009BF0
:1093E000DB7B012B02D0022B05D009E0019B1A8800
:1093F000059B1A8004E0019B5A88059B1A8000BFD8
:10940000059B1A88059B5B889A4226D9059B1A887A
:10941000BDF80E3011461846FFF741FF0490049B3B
:10942000002B03D1059B01225A7116E0049B112BDE
:1094300003D1059B01221A710FE0114A114BD31A77
:10944000DB081B0443F00104049807F035FC0346D5
:109450001A460D49204608F05EF9059B9A79059B4E
:10946000DB799A4208D9059B9B791A46BDF80E30E4
:1094700011461846FFF732FF00BF06B010BD00BF0F
:109480008038030038380300203E030000B583B065
:1094900001900091009B9B88DB00019A13440633E6
:1094A0001846FFF704FF00BF03B000BD00B587B04A
:1094B00001900091009B9B88ADF81630009B5B8962
:1094C000ADF81430BDF81630DB00019A13440633B2
:1094D0000493049B1B88BDF81420934228BF1346B5
:1094E0009AB2049B5A80049B5B88172B38BF1723C2
:1094F0009AB2049B5A80019B1B69002B15D0049BD8
:109500005B79002B11D040F67723ADF80830BDF819
:109510001630ADF80A30049B5B88ADF80C30019B27
:109520001B6902AA114601989847049B00225A71B0
:10953000049B00221A7100BF07B000BD10B588B0AF
:1095400001900091009B9B88ADF81A30009BDB884E
:10955000ADF81830BDF81A30DB00019A1344063319
:109560000593BDF81830172B38BF1723ADF8183006
:10957000059B1B88BDF81820934228BF13469AB25A
:10958000059B5A80059B00221A71059B1A88BDF81D
:109590001A3011461846FFF786FE0790079B002BEE
:1095A0000FD0174A174BD31ADB081B0443F00104F2
:1095B000079807F081FB03461A461349204608F036
:1095C000AAF8059B5B79002B16D1019B1B69002B28
:1095D00013D040F67723ADF80C30BDF81A30ADF853
:1095E0000E30059B5B88ADF81030019B1B6903AA08
:1095F00011460198984700E000BF08B010BD00BFB9
:109600008038030038380300543E030030B591B071
:1096100001900091009B04AC1D1D0FCD0FC40FCD18
:109620000FC495E8070084E80700BDF81030ADF8D6
:109630003E30BDF81420BDF83E30D1B2019ADB00B7
:1096400013440A465A73019B1B69002B15D04DF633
:109650007A23ADF80830BDF83E30ADF80A30BDF8D9
:109660003E30019ADB0013445B7B8DF80C30019B8C
:109670001B6902AA11460198984700BF11B030BD7E
:1096800000B587B001900091009B04330593059BC2
:109690001B88DB00019A134406330493059B9B88C7
:1096A0008DF80F30049B9B799DF80F20934228BFC3
:1096B00013468DF80E30059B1B889DF80E2092B244
:1096C00011461846FFF70AFE00BF07B000BD00B5FF
:1096D00085B001900091019B002B01D10E231DE06C
:1096E000019B009A1A61019B17221A80019B172285
:1096F0005A80019B1B221A71002303930AE0039BEB
:10970000DB00019A134406331846FFF7D0FD039B94
:1097100001330393039B002BF1D00023184605B0BF
:1097200000BD000010B586B001900091009B05932C
:10973000019B9B88ADF81230BDF81230002B70D120
:10974000019B1B88552B21D0552B2EDC3A2B18D092
:109750003A2B2ADC242B1ED0242B26DC232B1FD0D3
:10976000232B22DC102B02D0112B05D01DE00199F8
:109770000598FFF721FE19E001990598FFF786FE8D
:1097800014E001990598FFF791FE0FE00199059803
:10979000FFF7D4FE0AE001990598FFF737FF05E0CF
:1097A00001990598FFF76CFF00E000BFBDF812308B
:1097B000059ADB0013449B7A002B33D0BDF812309E
:1097C000059ADB001344DA88BDF8123011461846BA
:1097D000FFF765FD0390039B002B0ED1BDF81230FF
:1097E000059ADB00134400229A72BDF81230059AE4
:1097F000DB0013440122DA7214E0039B112B11D019
:10980000094A0A4BD31ADB081B0443F001040398EE
:1098100007F052FA03461A460549204607F07BFF37
:1098200000E000BF06B010BD8038030038380300E8
:10983000203E0300B0DF704700BF184666DF704768
:1098400000BF184682B001900091019B002B01D10E
:109850000E2316E0009B002B01D10E2311E0019B8B
:109860001B78DE2B01D108230BE0009B1A68019BBB
:109870005A60019BDE221A70019B4FF6FF725A80DC
:109880000023184602B0704782B001900B46ADF835
:109890000230019B002B01D10E230AE0019B1B78B3
:1098A000DE2B01D0082304E0019BBDF802205A8082
:1098B0000023184602B0704700B585B00190019BA7
:1098C0001B7A002B18D0019B5B8800211846FFF7FC
:1098D000B5FF0390039B002B03D1019B00221A725A
:1098E0000AE0039B112B03D1019B01221A7203E0B2
:1098F000019B5B680398984700BF05B000BD00B5A9
:1099000083B001900091009B1B79012B0BD1009B30
:109910001A88019B5B889A4205D1019B01221A7229
:109920000198FFF7C9FF00BF03B000BD82B00190EE
:10993000009100BF02B0704700B589B0019000915E
:10994000009B1A88019B5B889A4236D1009B0233A8
:109950000793079B1B78022B31D1079B1B7A042BA3
:1099600007D0079B1B7A062B03D0079B1B7A052B7E
:1099700027D102AB00221A605A609A60DA60022393
:109980008DF808304FF4C073ADF80C30079B1B7A8C
:10999000052B02D10023ADF80C30009B1B8802AAD6
:1099A00011461846FFF746FF0690069B002B09D08C
:1099B000019B5B680698984704E000BF02E000BF87
:1099C00000E000BF09B000BD00B585B00190009176
:1099D000009B002B43D0019B002B40D0009B0393A6
:1099E000039B1B78DE2B3AD1019B9A88039B5B88F3
:1099F0009A4202D10398FFF75FFF019B1B88512B0E
:109A000018D0512B28DC112B1BD0112B24DC012B5F
:109A100002D0022B07D01FE0019B043319460398A4
:109A2000FFF76DFF1BE0019B043319460398FFF716
:109A30007DFF14E0019B043319460398FFF77CFF78
:109A40000DE0019B9A88039B5B889A4206D1039B99
:109A50004FF6FF725A8001E000BF00E000BF05B082
:109A600000BDA8DF704700BF1846AEDF704700BFDB
:109A7000184662DF704700BF184600B585B00190F8
:109A80000091009B06330393039B1A88019B5B881C
:109A90009A420FD1039B5B89012B0BD1019B5B6920
:109AA000002B07D0019B5B69009A9088039A127B78
:109AB0000199984700BF05B000BD00B585B0019081
:109AC0000091009B0393019B1B88502B04D10199AB
:109AD0000398FFF7D2FF00E000BF00BF05B000BD54
:109AE00010B592B001900091009B1A68019B5A61D9
:109AF000484B02AC0FCB84E80F00019B03F112022C
:109B000002AB11461846FFF7B4FF1190119B10935A
:109B1000109B002B01D0109B79E0019B9B7C8DF862
:109B20003A3041F22353ADF83830019A0EAB194662
:109B30000120FFF796FF1190119B0F930F9B002BB5
:109B400001D00F9B63E006AB20220021184609F0EC
:109B50009DFD41F22453ADF81830019B9B7C8DF89C
:109B60001A300123ADF81E300123ADF81C309DF8EA
:109B7000253043F002038DF825309DF8253043F061
:109B800010038DF8253001238DF8293001238DF83D
:109B90002B30019B1888019B03F10A0206AB194682
:109BA000FFF768FA1190119B002B01D0119B2EE05A
:109BB00006AB20220021184609F068FD41F225532A
:109BC000ADF81830019B9B7C8DF81A300123ADF85D
:109BD0001E300123ADF81C309DF8253043F0020300
:109BE0008DF825309DF8253043F008038DF8253099
:109BF00001238DF8293001238DF82A30019B188824
:109C0000019B9A1C06AB1946FFF734FA0346184627
:109C100012B010BD843E030000B589B00346009128
:109C2000ADF8063013468DF805300123ADF80E303F
:109C300004AB10220021184609F028FD01238DF8FD
:109C40001230009B5B89ADF810300DF105030793CE
:109C50000DF10E03069304AABDF80630114618460E
:109C6000FFF703FF0346184609B000BD82B0034664
:109C70008DF807309DF90730002B13DB9DF8073076
:109C800003F01F0209499DF907305B09012000FA22
:109C900002F2203341F82320BFF34F8F00BFBFF300
:109CA0006F8F00BF00BF02B0704700BF00E100E04F
:109CB000044BD3F80034002B14BF01230023DBB284
:109CC000184670470000014008B508F095FC0346AF
:109CD00083F00103DBB2002B03D109497B20FCF7A1
:109CE000B3FBFFF7E5FF034683F00103DBB2002B74
:109CF00004D001F017FA034B00229A7000BF08BD90
:109D00009C3E03001425002000B583B0002301937E
:109D1000174B1B78002B02D0852301931CE0144BBA
:109D200000229A60124B00225A60114B00221A61E5
:109D30000F4B0022DA600F4801F0BCF9019008F0E7
:109D40005BFC034683F00103DBB2002B01D001F082
:109D5000D5F9074B01221A70FFF7AAFF0346002B23
:109D600002D0034B01229A70019B184603B000BD3C
:109D700014250020499E020084B00190019B1B68BD
:109D80000393039B002B03D0039B1A68019B1A606B
:109D9000039B184604B0704700B583B0164B1B7880
:109DA000002B04D1154940F21710FCF74DFB124B64
:109DB000DB68002B04D111494FF48C70FCF744FB95
:109DC00000238DF807300DF10703184605F094F9CC
:109DD000094BDB68013B084AD360074BDB68002B6B
:109DE00001D1FFF771FF9DF80730184605F098F98B
:109DF00000BF03B000BD00BF142500209C3E03003F
:109E000000B585B003468DF807309DF80730002B6C
:109E100002D10B4B039301E00A4B03930398FFF726
:109E2000ABFF0290029B002B06D0029B5B689DF863
:109E3000072010469847F1E700BF00BF05B000BDFE
:109E40001C2500202425002000B583B003468DF892
:109E500007309DF80730002B05D1094B01225A70BD
:109E60000020FFF7CDFF9DF80730012B05D1044BF3
:109E700001229A700120FFF7C3FF00BF03B000BDAD
:109E80001425002000B583B001900091019B002BA8
:109E900005D1044B01225A700020FFF7B1FF00BF2B
:109EA00003B000BD1425002000B585B00346009125
:109EB0008DF807309DF80730032B29D0032B35DCB4
:109EC000002B02D0012B04D030E00020FFF7CEFEA3
:109ED0002DE000238DF80F300DF10F03184605F02B
:109EE0000BF9144B1B7883F00103DBB2002B01D07C
:109EF000FFF70AFF0F4BDB6801330E4AD3600D4BAF
:109F000001229A709DF80F30184605F009F90EE00D
:109F1000084B1B78002B04D1074940F25220FCF774
:109F200093FA01F0EBF8FFF737FF00E000BF00BF46
:109F300005B000BD142500209C3E030082B00346FE
:109F40008DF807309DF90730002B0CDB9DF80730AA
:109F500003F01F0205499DF907305B09012000FA53
:109F600002F241F8232000BF02B0704700E100E098
:109F700082B003468DF807309DF90730002B0DDBCA
:109F80009DF8073003F01F0206499DF907305B0971
:109F9000012000FA02F2603341F8232000BF02B032
:109FA000704700BF00E100E082B0034600918DF8E9
:109FB00007309DF90730002B0ADB009BDAB20C4911
:109FC0009DF907305201D2B20B4483F800230BE015
:109FD000009BDAB207499DF8073003F00F03043BFA
:109FE0005201D2B20B441A7600BF02B0704700BFD4
:109FF00000E100E000ED00E000B583B003460A4652
:10A000008DF8073013468DF806309DF80630012B89
:10A0100003D99DF80630032B0CD99DF80630042B8C
:10A0200003D99DF80630072B04D90D494FF49270DF
:10A03000FCF70AFA9DF806209DF9073011461846EC
:10A04000FFF7B2FF9DF907301846FFF791FF9DF922
:10A0500007301846FFF772FF00BF03B000BD00BF16
:10A06000443F030000B585B00190019B002B0AD04E
:10A07000064B43F001030393019B9B010293039B57
:10A080000298984700E000BF05B000BDD040030033
:10A0900082B001900B468DF803309DF80330019A91
:10A0A000134401221A6000BF02B0704784B00190CF
:10A0B0000B46ADF80230BDF80230019A134400227D
:10A0C0001A60BDF80230019A13441B680393039B86
:10A0D00000BF04B0704782B001900B46ADF802306B
:10A0E000BDF80230019A13441B68002B14BF0123F2
:10A0F0000023DBB2184602B0704782B00190009195
:10A10000019B009AC3F8042300BF02B0704782B0DD
:10A1100001900091019B009AC3F8082300BF02B090
:10A12000704782B00190019B0622C3F8002500BF52
:10A1300002B0704784B0039002910192039B029A8F
:10A14000C3F80825039B019AC3F80C2500BF04B08F
:10A15000704782B001900091019B009AC3F82425BA
:10A1600000BF02B0704784B00190019BD3F8C434A3
:10A170000393019B039AC3F8C424039B184604B0BD
:10A18000704782B001900B468DF803309DF8032094
:10A19000019BC3F8882500BF02B0704784B00390CC
:10A1A00002910192029A039BC3F84425039B019AF2
:10A1B000C3F8482500BF04B0704784B003900291F3
:10A1C0000192029A039BC3F83425039B019AC3F8BA
:10A1D000382500BF04B0704782B001900091019B08
:10A1E000009AC3F8002200BF02B0704782B001900D
:10A1F000019BD3F84C35184602B0704782B00190ED
:10A20000019BD3F83C35184602B0704782B00190EC
:10A21000019B0122C3F8502500BF02B0704782B0F5
:10A220000190019B0022C3F8502500BF02B0704787
:10A2300082B00190019B0122C3F8402500BF02B00B
:10A24000704782B00190019B0022C3F8402500BFF7
:10A2500002B0704784B00190019B1B0B8DF80F304A
:10A260009DF90F30184604B0704782B00190019BF1
:10A2700003F06043B3F1005F0CBF01230023DBB2A6
:10A28000184602B07047000000B583B00190019BF2
:10A290001B68184600F066F80346002B04D10549F8
:10A2A0004FF4F670FCF7D0F84FF0A043184603B017
:10A2B00000BD00BFF03F030000B585B0019001ABC9
:10A2C0001846FFF7E1FF0390019B012202FA03F316
:10A2D0001946039800F032F800BF05B000BD00B584
:10A2E00085B0019001AB1846FFF7CEFF0390019BAC
:10A2F000012202FA03F31946039800F029F800BF7F
:10A3000005B000BD00B585B0019001AB1846FFF760
:10A31000BBFF0390039800F009F80246019B22FA64
:10A3200003F303F00103184605B000BD82B00190AD
:10A33000019BD3F81035184602B0704782B00190E7
:10A340000091019B009AC3F8082500BF02B0704736
:10A3500082B001900091019B009AC3F80C2500BFC8
:10A3600002B0704784B00190019B5B090293002307
:10A370000393029B002B03D14FF0FF33039300BFE5
:10A38000019B03F01F030193039A019B22FA03F33D
:10A3900003F00103DBB2184604B0704784B00190AB
:10A3A00003230393019B03F00203002B02D048F226
:10A3B00001230393019B03F00403002B02D048F216
:10A3C00002230393039B184604B0704700B585B081
:10A3D00001904FF0A042019B1B6803F5E07340F22F
:10A3E0000C6142F823104FF0A042019B5B6803F51B
:10A3F000E07340F20C6142F82310019B1B68184681
:10A40000FFF75AFF019B5B681846FFF755FF4FF0B7
:10A41000A042019B1B6803F5E07340F20D6142F816
:10A4200023104FF0A042019B5B6803F5E07340F2FC
:10A430000D6142F823100420FFF714FE002303935C
:10A440001EE0019B5B681846FFF75CFF0346002B8C
:10A4500003D0039B002B17D124E0019B1B681846F7
:10A46000FFF73DFF0420FFF7FDFD019B1B68184629
:10A47000FFF722FF0420FFF7F5FD039B0133039351
:10A48000039B082BDDDD00E000BF019B5B681846E5
:10A49000FFF725FF0420FFF7E5FD019B5B681846E9
:10A4A000FFF70AFF05B000BD00B589B00390029127
:10A4B00001920093029B002B03D13F49F520FBF74B
:10A4C000C3FF029B1A68029B5B689A4203D13A4918
:10A4D000F620FBF7B9FF039B1B791A4613469B0036
:10A4E0001344DB00354A13440793079B93F822304B
:10A4F000002B03D008230593059B59E0079B019A85
:10A500001A60079B009A5A60079B00229A60079B7B
:10A51000002283F82520079B002283F82420029B39
:10A520009A7B079B83F82720029B5B7B002B02D042
:10A530000298FFF74BFF4FF0A042029B1B6803F508
:10A54000E07340F20C6142F823104FF0A042029BEE
:10A550005B6803F5E07340F20C6142F82310039B43
:10A560001B680693029B1968029B5B681A46069853
:10A57000FFF7E0FD029B9B6819460698FFF7E9FD8F
:10A58000079B1B68002B0CD0039B1B681846FFF72A
:10A5900061FE03461A46029B1B7B19461046FFF7D5
:10A5A0002BFD079B012283F8222000230593059BA6
:10A5B000184609B000BD00BF244003002825002034
:10A5C00000B585B00190019B1B791A4613469B008C
:10A5D0001344DB000C4A13440393039B93F822308B
:10A5E000012B04D0094940F27710FBF72DFF019BA6
:10A5F0001B6802930298FFF794FD039B022283F8E5
:10A60000222000BF05B000BD282500202440030003
:10A6100000B583B001900091009B03F00103002B73
:10A6200003D00198FFF7F2FD02E00198FFF7F7FD74
:10A63000009B03F00203002B03D00198FFF7F8FD05
:10A6400002E00198FFF7FDFD00BF03B000BD000070
:10A6500000B589B003900291019200930023079303
:10A6600008238DF81B304FF48273ADF81830019B2E
:10A670005B681846FFF7F9FD034683F00103DBB280
:10A68000002B03D010230793079B94E14FF0FF3179
:10A690000298FFF73CFD039B93F82430DBB2002BBC
:10A6A00009D0039B9B6819460298FFF726FD1123EA
:10A6B0000793079B7FE1009B03F00403002B06D167
:10A6C000009B03F01003002B01D1012300E00023C5
:10A6D00003F00103DAB2039B83F82420039B019A61
:10A6E0000C3307CA83E80700009B1B0903F0010332
:10A6F000DAB2039B83F82520019B5B781946029808
:10A70000FFF73FFD4FF482710298FFF7CFFC4FF443
:10A7100092710298FFF7CAFC00990298FFF778FF40
:10A72000019B1B78032B0ED0032B00F3E980022B37
:10A7300077D0022B00F3E480002B00F09B80012BEC
:10A7400000F0C580DCE0009B03F01003002B04D078
:10A750009A4940F23530FBF777FE009B03F008037F
:10A76000002B04D0954940F23630FBF76DFE009B7C
:10A7700003F00403002B04D0904940F23730FBF77C
:10A7800063FE019B9B681846FFF76FFD034683F04D
:10A790000103DBB2002B03D010230793079B0AE1D0
:10A7A0004FF480710298FFF717FD019B5968019BD8
:10A7B0009B781A460298FFF7F1FC4FF4A8710298B3
:10A7C000FFF774FC4FF4B0710298FFF76FFC4FF481
:10A7D000A4710298FFF76AFC20210298FFF758FC49
:10A7E00008210298FFF754FC00BF4FF4A8710298AB
:10A7F000FFF771FC034683F00103DBB2002BF4D1B9
:10A800004FF4A8710298FFF751FC019B9968019BD6
:10A81000DB781A460298FFF7C1FC039B684A9A60EE
:10A8200071E0019B5968019B9B781A460298FFF7DB
:10A83000B5FC019B9B681846FFF717FD034683F0A4
:10A840000103DBB2002B03D010230793079BB2E078
:10A85000019B9968019BDB781A460298FFF7ADFCD3
:10A860004FF484510298FFF7B7FC039B40F2022299
:10A870009A6048E0019B5968019B9B781A460298B0
:10A88000FFF78CFC009B03F02003002B11D04FF44A
:10A8900080710298FFF7A0FC039B494A9A604FF42D
:10A8A000A4710298FFF702FC4FF4A473ADF81830BE
:10A8B00008E04FF400710298FFF78EFC039B40F212
:10A8C00002229A6020210298FFF7E2FB1BE0019B25
:10A8D0005968019B9B781A460298FFF76EFC4FF46B
:10A8E00080510298FFF778FC039B40F202229A60A5
:10A8F00000238DF81B3020210298FFF7C9FB02E0EE
:10A900000723079300BF009B03F00803002B09D126
:10A91000019B1B78032B05D09DF81B30194602982C
:10A92000FFF7B6FB039B1B68002B28D0009B03F0AE
:10A930000403002B03D0039B4FF400729A60039B27
:10A940009B6819460298FFF7D8FB33E04FF49271E9
:10A950000298FFF7C0FB0346002B10D04FF4927112
:10A960000298FFF7A3FB20210298FFF791FB142127
:10A970000298FFF78DFB4FF48273ADF81830BDF8E5
:10A98000183019460298FFF7A6FB034683F001032F
:10A99000DBB2002BDAD10298FFF7E5FB0590039BB1
:10A9A000002283F82420059B002B03D00598FFF795
:10A9B000F5FC0790079B184609B000BD2440030032
:10A9C0000002040000B587B00390029101920023B9
:10A9D0000593039B1B791A4613469B001344DB0027
:10A9E000144A13440493049B1B68002B08D1029B58
:10A9F0001B78022B04D1104940F2B730FBF724FD3D
:10AA0000049B1B68002B08D1029B1B78032B04D1ED
:10AA100009494FF46E70FBF717FD039B1968019B02
:10AA2000029A0498FFF714FE0590059B184607B09C
:10AA300000BD00BF282500202440030000B589B0D8
:10AA4000039001921A460B468DF80B3013468DF891
:10AA50000A3005AB00221A605A609A609DF80B30EC
:10AA60008DF815309DF80A308DF81630019B06934D
:10AA70009DF82830002B01D0202200E0002205ABF9
:10AA800019460398FFF79EFF0346184609B000BD1C
:10AA900000B589B0039001921A460B468DF80B3031
:10AAA00013468DF80A3005AB00221A605A609A608E
:10AAB00001238DF814309DF80B308DF815309DF87A
:10AAC0000A308DF81630019B069305AB002219461B
:10AAD0000398FFF777FF0346184609B000BD000052
:10AAE00000B589B001900091009B1B68002B04D138
:10AAF000804940F23240FBF7A7FC4FF49271019875
:10AB0000FFF7E9FA0346002B27D04FF49271019822
:10AB1000FFF7CCFA4FF482710198FFF7DCFA034695
:10AB200083F00103DBB2002B17D0009B9B68194612
:10AB30000198FFF7ECFA009B02229A60009B9B6849
:10AB400019460198FFF7D9FA20210198FFF7A0FADA
:10AB500014210198FFF79CFACAE04FF48271019822
:10AB6000FFF7B9FA0346002B55D04FF482710198D4
:10AB7000FFF79CFA009A04AB0C3207CA83E807007F
:10AB8000009B93F82330002B21D0009B1B7B012BD3
:10AB900005D10198FFF732FB0346DBB204E00198D0
:10ABA000FFF724FB0346DBB28DF81230009B1B7BC2
:10ABB000022B05D10198FFF721FB0346DBB204E02D
:10ABC0000198FFF713FB0346DBB28DF813304FF407
:10ABD000B0710198FFF76AFA4FF4AE710198FFF770
:10ABE00065FA009B93F8253083F00103DBB2002B5C
:10ABF00004D1009B93F82330002B4DD00021019805
:10AC0000FFF7EAFA009B00229A604FF0FF310198AB
:10AC1000FFF77DFA40E04FF4A4710198FFF746FA80
:10AC2000009B1B7B002B1AD1009A04AB0C3207CA85
:10AC300083E80700009B93F8253083F00103DBB223
:10AC4000002B29D000210198FFF7C6FA009B0022B3
:10AC50009A604FF0FF310198FFF759FA1CE04FF46A
:10AC600000710198FFF7B8FA009B40F202229A6047
:10AC70004FF0FF310198FFF74AFA009B9B68194695
:10AC80000198FFF73AFA08210198FFF701FA20210D
:10AC90000198FFF7FDF92BE00198FFF764FA0790A0
:10ACA000079B03F00203002B03D001238DF80C3027
:10ACB0000BE0079B03F00403002B03D002238DF865
:10ACC0000C3002E000238DF80C30009B93F8253007
:10ACD00083F00103DBB2002B03D0009B002283F83A
:10ACE0002420009B1B68009A516803AA10469847CD
:10ACF00009B000BD2440030008B503490348FFF72D
:10AD0000EFFE00BF08BD00BF282500200030004036
:10AD100000B589B001900091009B0793019B1B78BF
:10AD20008DF80C30019B5B680493019B9B68DBB240
:10AD30008DF81430019BDB680693074A079B52F895
:10AD400023300649079A51F8221003AA1046984763
:10AD500000BF09B000BD00BF5025002054250020D1
:10AD600000B589B001900091009B0793019B1B786F
:10AD70008DF80C30019B5B680493019B9B68DBB2F0
:10AD80008DF81430019BDB680693074A079B52F845
:10AD900023300649079A51F8221003AA1046984713
:10ADA00000BF09B000BD00BF502500205425002081
:10ADB00030B58FB0039002910192039B1B780C93E6
:10ADC00026490C9B019A41F82320029B1A692449C9
:10ADD0000C9B41F82320029B5B7F1946214A0C9B68
:10ADE00013440A461A70029B04AC1D460FCD0FC4D3
:10ADF00095E80F0084E80F000C9B089300230D9347
:10AE0000039B1B781A46174B9B5C002B0DD0039BB2
:10AE1000181D019B002B01D0134A00E0002204AB57
:10AE2000194602F019FC0D9014E0039B1B781A469A
:10AE30000C4B9B5C002B0DD1039B03F10C00019B81
:10AE4000002B01D0094A00E0002204AB194601F0B2
:10AE50006BFC0D900D9B18460FB030BD50250020A7
:10AE6000542500205825002011AD020061AD0200DC
:10AE700082B003468DF807309DF90730002B0CDBBC
:10AE80009DF8073003F01F0205499DF907305B0963
:10AE9000012000FA02F241F8232000BF02B07047FF
:10AEA00000E100E082B0034600918DF807309DF983
:10AEB0000730002B0ADB009BDAB20C499DF9073002
:10AEC0005201D2B20B4483F800230BE0009BDAB2AC
:10AED00007499DF8073003F00F03043B5201D2B23B
:10AEE0000B441A7600BF02B0704700BF00E100E0DB
:10AEF00000ED00E082B00190019B1B0B5BB2184695
:10AF000002B0704700B583B003460A468DF807309B
:10AF100013468DF806309DF80630012B03D99DF8B5
:10AF20000630032B0BD99DF80630042B03D99DF86E
:10AF30000630072B03D907496B20FBF785FA9DF8EC
:10AF400006209DF9073011461846FFF7ABFF00BFFA
:10AF500003B000BDD840030000B583B003468DF8B0
:10AF600007309DF907301846FFF782FF00BF03B096
:10AF700000BD000082B003468DF807300E4A9DF9EF
:10AF80000730002B00DA1F335B115BB252F823202D
:10AF90009DF90730594203F01F0301F01F0158BF0C
:10AFA0004B425BB222FA03F303F00103C3F3000345
:10AFB000DBB2184602B0704700E100E082B00190B9
:10AFC0004FF08042019BC2F8083300BF02B07047C7
:10AFD00082B003468DF807309DF8073003F18043B7
:10AFE00001221A6000BF02B0704784B00346ADF87A
:10AFF0000630BDF8063003F1804300221A60BDF828
:10B00000063003F180431B680393039B00BF04B029
:10B01000704782B00346ADF80630BDF8063003F144
:10B0200080431B68002B14BF01230023DBB21846AA
:10B0300002B0704782B001904FF08042019BC2F88D
:10B04000183500BF02B070474FF08043D3F8183472
:10B050001B0C03F00103C3F30003DBB21846704777
:10B0600000B583B006238DF807304FF08040FFF71E
:10B0700041FF03461846FFF77DFF034683F00103B7
:10B08000DBB2002B13D04FF08040FFF733FF0346B5
:10B090001A469DF8073019461046FFF733FF4FF068
:10B0A0008040FFF727FF03461846FFF755FF00BF14
:10B0B00003B000BD00B585B00190019B002B03D10A
:10B0C0000C49A420FBF7C0F9002303930A4B1B791A
:10B0D000002B02D08523039308E0074A019B1360ED
:10B0E000054B01221A71044B00225A71039B18462A
:10B0F00005B000BD104103005C25002008B5074BDA
:10B100001B79002B03D10649BD20FBF79DF9FFF702
:10B11000A7FF0120FFF78EFF00BF08BD5C250020C0
:10B120001041030008B50D4B1B79002B03D10C49CE
:10B13000F720FBF789F90220FFF740FF4FF48270F8
:10B14000FFF753FF0C20FFF743FF00BFFFF77CFF23
:10B150000346002BFAD100BF00BF08BD5C250020CC
:10B160001041030008B54FF48070FFF752FF03460B
:10B17000002B14D04FF48070FFF737FF0120FFF74A
:10B180001DFF114B5B7983F00103DBB2002B06D06E
:10B190000D4B01225A710C4B1B68002098474FF44D
:10B1A0008270FFF736FF0346002B0AD04FF48270FF
:10B1B000FFF71BFF0220FFF701FF034B1B68012075
:10B1C000984700BF08BD00BF5C25002082B0034641
:10B1D0008DF807309DF90730002B0CDB9DF8073008
:10B1E00003F01F0205499DF907305B09012000FAB1
:10B1F00002F241F8232000BF02B0704700E100E0F6
:10B2000082B0034600918DF807309DF90730002B7E
:10B210000ADB009BDAB20C499DF907305201D2B229
:10B220000B4483F800230BE0009BDAB207499DF83A
:10B23000073003F00F03043B5201D2B20B441A76DD
:10B2400000BF02B0704700BF00E100E000ED00E089
:10B2500082B00190019B1B0B5BB2184602B0704795
:10B2600000B583B003460A468DF8073013468DF8C3
:10B2700006309DF80630012B03D99DF80630032BCC
:10B280000BD99DF80630042B03D99DF80630072B07
:10B2900003D907496B20FBF7D7F89DF806209DF9E5
:10B2A000073011461846FFF7ABFF00BF03B000BDE3
:10B2B000B441030000B583B003468DF807309DF913
:10B2C00007301846FFF782FF00BF03B000BD00B58E
:10B2D00083B00346ADF80630BDF80630184600F0DE
:10B2E00024F803461B68012B0CBF01230023DBB2AB
:10B2F000184603B000BD00B585B00346ADF8063072
:10B30000BDF80630184600F010F803461A46002330
:10B310001360BDF80630184600F007F803461B68B6
:10B320000393039B00BF05B000BD82B00346ADF898
:10B330000630BDF8063003F1804303F5C0431846DC
:10B3400002B0704782B00190034A019BC2F80433F7
:10B3500000BF02B0704700BF0060004082B00190A3
:10B36000034A019BC2F8083300BF02B0704700BF18
:10B370000060004082B00190034BD3F80423019B8E
:10B380001340184602B070470060004082B0019040
:10B39000084A019B03F5A27352F82330054943F094
:10B3A0000102019B03F5A27341F8232000BF02B004
:10B3B000704700BF0060004082B00190084A019BC6
:10B3C00003F5A27352F82330054923F00102019BD3
:10B3D00003F5A27341F8232000BF02B0704700BFFD
:10B3E0000060004084B00390029113468DF807304E
:10B3F000144A039B03F5A27352F82330114923F436
:10B40000473323F44073039A02F5A27241F82230C5
:10B410000C4A039B03F5A27352F82320029B1B02E4
:10B4200003F4F8519DF807301B0403F440330B4339
:10B4300004491A43039B03F5A27341F8232000BF7C
:10B4400004B070470060004082B00190054A019B43
:10B4500003F5A27352F823301B0A03F01F031846AA
:10B4600002B070470060004082B00190064A019B24
:10B4700003F5A27352F823301B0C03F00303DBB275
:10B48000184602B0704700BF0060004000B583B0AE
:10B490000190019B1B68184600F00DF90346002B34
:10B4A00004D105494FF4F670FAF7CEFF4FF0A043F0
:10B4B000184603B000BD00BFE441030000B585B0ED
:10B4C0000190084611461A4603468DF803300B4694
:10B4D0008DF8023013468DF8013001AB1846FFF7A6
:10B4E000D5FF03909DF803209DF802305B001A43BE
:10B4F0009DF801309B001A439DF818301B0242EA68
:10B5000003019DF81C301B04019A1943039B02F5AB
:10B51000E07243F8221000BF05B000BD00B585B051
:10B5200003900B468DF80B309DF80B3000220192F2
:10B5300000220092002200210398FFF7BFFF00BF06
:10B5400005B000BD00B585B0019001AB1846FFF70E
:10B550009DFF0390019A039B02F5E07253F822309D
:10B5600023F002030293019A039B02F5E072029911
:10B5700043F8221000BF05B000BD00B585B00190B2
:10B580000B468DF8033001AB1846FFF77FFF0390A1
:10B59000019A039B02F5E07253F82230019A23F4DA
:10B5A0004031039B02F5E07243F82210019A039B9D
:10B5B00002F5E07253F822109DF803301B04019A43
:10B5C0001943039B02F5E07243F8221000BF05B057
:10B5D00000BD00B585B0019001AB1846FFF756FFDE
:10B5E0000390039800F01EF80246019B22FA03F331
:10B5F00003F00103184605B000BD00B585B0019009
:10B6000001AB1846FFF742FF0390019A039B02F536
:10B61000E07253F822301B0C03F00303DBB2184630
:10B6200005B000BD82B00190019BD3F810351846DB
:10B6300002B0704786B00390029101924FF0A04390
:10B640000493039B059319E0059B9B0018336B44FF
:10B6500053F8083CD3F82025019B1A60059B9B00FA
:10B6600018336B4453F8083C019A1268C3F820253C
:10B67000019B04330193059B01330593039A029BBD
:10B680001344059A9A42DFD300BF00BF06B070474B
:10B6900000B585B0019001AB1846FFF7F7FE0390A7
:10B6A000019B012202FA03F31A46039BC3F82025EB
:10B6B00000BF05B000BD84B00190019B5B090293FF
:10B6C00000230393029B002B03D14FF0FF3303931E
:10B6D00000BF019B03F01F030193039A019B22FA11
:10B6E00003F303F00103DBB2184604B0704784B0E3
:10B6F00001900091009B0393019BDB080293019B47
:10B7000003F0070301930122019B02FA03F303995B
:10B71000029A0A4412781340184604B0704784B065
:10B7200001900091009B0393019BDB080293019B16
:10B7300003F007030193039A029B13441B785AB248
:10B740000121019B01FA03F35BB2134359B2039A3F
:10B75000029B1344CAB21A7000BF04B070470000C5
:10B7600082B001900C4A019B1344303393F90030AE
:10B77000002B09DB084A019B1344303393F9003056
:10B78000072B01DC012300E0002303F00103DBB2FF
:10B79000184602B0704700BF6425002082B00190B7
:10B7A000064A019B1344303393F90030072BCCBF7A
:10B7B00001230023DBB2184602B070476425002045
:10B7C00082B00190064A019B1344303393F9003054
:10B7D000DB43DBB2DB09DBB2184602B0704700BFC7
:10B7E0006425002084B00390029101928DF803300B
:10B7F000029B59B20E4A039B134430330A461A7017
:10B800000B49029B019A41F823209DF8033083F0F5
:10B810000103DBB2002B08D0029B083B039A51B214
:10B82000034A13440A4683F8502000BF04B070470F
:10B830006425002082B00190044A019B13443033F8
:10B84000FF221A7000BF02B0704700BF64250020BD
:10B8500000B583B0019003490198FFF760FF00BF76
:10B8600003B000BDB825002082B00190044A019BBE
:10B870001344303393F90030184602B0704700BFCC
:10B880006425002082B00190034A019B52F82330C6
:10B89000184602B0704700BF6425002084B00190B4
:10B8A000074A019B1344503393F900308DF80F3051
:10B8B0009DF80F3023F0C003184604B0704700BF56
:10B8C0006425002084B00190074A019B1344503343
:10B8D00093F900308DF80F309DF80F309B09DBB2E3
:10B8E000184604B0704700BF6425002000B589B039
:10B8F0000390029113468DF80730FF238DF81F3017
:10B900009DF80730002B02D00023059301E00823A7
:10B9100005939DF80730002B02D00823049301E023
:10B920000C230493059B069314E00F4A069B52F8E0
:10B930002330B3F1FF3F0AD19DF80730029A0699F0
:10B940000398FFF74FFF069B8DF81F3006E0069B1C
:10B9500001330693069A049B9A42E6D39DF91F3061
:10B96000184609B000BD00BF6425002082B0034620
:10B970008DF807309DF80730094A4FF0FF3142F843
:10B9800023109DF80730072B07D99DF80730083B97
:10B99000034A1344FF2283F8502000BF02B07047CF
:10B9A0006425002000B583B02D4B93F85830002B50
:10B9B00003D008230093009B4EE000238DF807304E
:10B9C00011E09DF807301846FFF775FE0346002B7F
:10B9D00004D09DF807301846FFF72CFF9DF807307C
:10B9E00001338DF807309DF807301F2BE9D900236C
:10B9F0008DF8073009E09DF807301846FFF7B6FFCD
:10BA00009DF8073001338DF807309DF807300B2B78
:10BA1000F1D904220021134807F038FE1248FFF73D
:10BA200017FC034606211846FFF71AFC0E48FFF7DD
:10BA30000FFC03461846FFF73DFC4FF4BE70FFF7BE
:10BA40005AFC4FF00040FFF77DFC054B012283F8C4
:10BA5000582000230093009B184603B000BD00BF90
:10BA600064250020B825002000600040044B93F8B6
:10BA70005830002B14BF01230023DBB21846704757
:10BA80006425002000B587B00390029101920398CD
:10BA9000FFF711FE0346002B04D136494FF40C701A
:10BAA000FAF7D2FC002305930398FFF789FE0346BB
:10BAB000002B02D00823059358E0029B9B78C3F328
:10BAC0004003DBB21A4601990398FFF70FFF0346C4
:10BAD0008DF813309DF91330B3F1FF3F44D0029B32
