:020000022000DC
:1070000000000420197202000172020003720200E3
:1070100005720200077202000972020000000000FF
:107020000000000000000000000000000B720200E1
:107030000D720200000000000F72020011720200C7
:10704000CDD9020013720200F5E90200FDD402005E
:107050001372020013720200EDE8020013720200C4
:107060001372020013720200137202001372020004
:1070700013720200137202001372020013720200F4
:1070800013720200712D03001372020013720200CA
:107090001372020013720200DD5903001372020022
:1070A000137202001372020013720200750B0300C8
:1070B00013720200137202000000000000000000C2
:1070C00013720200137202001372020013720200A4
:1070D0001372020013720200137202001372020094
:1070E000137202001372020013720200000000000B
:1070F0000000000013720200000000001372020082
:10710000000000000000000000000000000000007F
:10711000000000000000000000000000000000006F
:10712000000000000000000000000000000000005F
:10713000000000000000000000000000000000004F
:10714000000000000000000000000000000000003F
:10715000000000000000000000000000000000002F
:10716000000000000000000000000000000000001F
:10717000000000000000000000000000000000000F
:1071800000000000000000000000000000000000FF
:1071900000000000000000000000000000000000EF
:1071A00000000000000000000000000000000000DF
:1071B00000000000000000000000000000000000CF
:1071C00000000000000000000000000000000000BF
:1071D00000000000000000000000000000000000AF
:1071E000000000000000000000000000000000009F
:1071F000000000000000000000000000000000008F
:10720000FEE7FEE7FEE7FEE7FEE7FEE7FEE7FEE756
:10721000FEE7FEE700F002B8FFF7FCBF0F484FF0B3
:107220000701884385460E4880470E48016841F4AF
:1072300070010160BFF34F8FBFF36F8F00F01AB87A
:1072400009480A490A4A884207D0521A05D00378E9
:1072500001300B700131013AF9D170470000042070
:10726000DD99020088ED00E0A8690300E82A00200B
:10727000E82A002039493A480A1A02D007229143E5
:107280008D46384938480A1A06D00722914381F3BF
:107290000988022282F3148834483549354A00F0BF
:1072A0003EF835483549364A00F039F83548364910
:1072B000364A00F034F836483649374A00F02FF89D
:1072C00036483749374A00F02AF837483749384AAC
:1072D00000F025F837483849384A00F020F8384897
:1072E0003849002200F033F837483849002200F0CE
:1072F0002EF837483749091A0FF0DCF9364A90471B
:1073000024482549884205D00268043003B49047D8
:1073100003BCF7E700200021304A9047FEE788428F
:1073200014D0521A12D003460B43134303242342B2
:1073300006D1036804300B600431043AF9D1704778
:10734000037801300B700131013AF9D1704788425E
:1073500002D002700130FAE77047000000000420FC
:1073600000E003200000042000000420DC8803006B
:10737000E82A0020802C0020E0730200E073020065
:107380008C680300DC880300E82A0020E82A00203B
:10739000A8690300A8690300A8690300A86903009D
:1073A000A8690300A8690300A8690300A86903008D
:1073B000D9880300748A0300802C0020802C0020D0
:1073C000802C0020B43F0020B43F0020B43F0020B8
:1073D000B43F0020B45F002041720200D981020056
:1073E00076DF704700BF18467ADF704700BF184647
:1073F0007CDF704700BF18467FDF704700BF18462C
:107400008FDF704700BF1846B1DF704700BF1846D6
:1074100033DF704700BF184682B00190024B012253
:107420001A7000BF02B07047D930002082B00190BE
:10743000024B01221A7000BF02B07047D830002002
:1074400082B00190024B01221A7000BF02B0704757
:10745000DA30002082B001900B468DF80330034BE8
:1074600001221A7000BF02B0704700BFDB3000205D
:1074700000B585B006F044FF0390039B082B0AD0AB
:10748000039B0293029B002B05D0144A4FF4877193
:1074900002980AF063F8124A6B4612681146198086
:1074A0000233120C1A7003238DF801306B460D4A1B
:1074B0001946262006F094FF0190019B002B05D071
:1074C000064A4FF4907101980AF048F801212620ED
:1074D00007F002F800BF05B000BD00BFB4690300AB
:1074E000046A03005574020000B583B0034600919E
:1074F000ADF80630BDF80630009A194602480AF089
:107500002DF800BF03B000BDEFBEADDE00B587B003
:107510000AF06EFC0590059B0493049B002B05D09C
:107520001A4A4FF4A27104980AF018F8184A002178
:1075300018480AF099FC0390039B002B05D0134ACE
:107540004FF4A67103980AF009F8134A0121134871
:107550000AF08AFC0290029B002B05D00B4A40F2F5
:107560005B11029809F0FAFF0D4A01210D480AF05B
:107570007BFC0190019B002B05D0044A40F269116D
:10758000019809F0EBFF00BF07B000BDB46903002C
:107590002D740200A869030019740200AC6903008D
:1075A00041740200B069030010B586B003AB184601
:1075B0000EF0EAFE034683F00103DBB2002B0CD091
:1075C000204A214BD31ADB081B0443F002031F4956
:1075D00018460DF03FFA002331E01A4A1A4BD31A2D
:1075E000DB081B0443F00300BDF81430184AA2FB6B
:1075F0000323DB089BB21C46BDF81420144BA3FBED
:107600000213D9080B469B000B445B00D31A9BB2B4
:107610001A46049B0093134622460E490DF04AFA7F
:10762000BDF81430632B06D9BDF81430B3F5617F73
:1076300001D8012300E0002303F00103DBB2184668
:1076400006B010BD3869030000690300086A030032
:10765000CDCCCCCC286A030001231846704700002B
:1076600008B50A4B18460AF091FC094B18460AF077
:107670008DFC084B18460AF089FC002001F06EF8DA
:10768000054B03221A7000BF08BD00BF182B002055
:10769000382B0020582B0020DC30002000B583B0B0
:1076A000224B00221A70224B00221A70214B00221A
:1076B0001A70214B01221A70204B00224FF4203106
:1076C00018460AF00BFC0190019B002B05D01C4AC8
:1076D00040F2D111019809F041FF1A4B002240F20B
:1076E000666118460AF0FAFB0090009B002B05D05B
:1076F000134A4FF4EF71009809F030FFFFF754FF81
:10770000034683F00103DBB2002B0CD00E4A0F4B73
:10771000D31ADB081B0443F003030D4918460DF090
:1077200099F9FFF79DFF00BF03B000BDDB300020DB
:10773000D8300020D9300020DC300020182B002069
:10774000B4690300382B0020386903000069030086
:107750004C6A030000B583B00C4B00221A700C4B2E
:1077600002221A700B4B00224FF4203118460AF007
:10777000B5FB0190019B002B05D0074A40F2052183
:10778000019809F0EBFE00BF03B000BDDA30002025
:10779000DC300020582B0020B469030000B583B012
:1077A00005F08AF90190019B0093009B002B05D006
:1077B000054A40F21621009809F0D0FE002005F09D
:1077C000DFF900BF03B000BDB469030000B587B0A6
:1077D0009DF80030012262F303038DF800309DF81C
:1077E0000030012262F307138DF800306B460B2244
:1077F0001A491846FFF7FCFD0590059B0493049B6E
:10780000002B05D0164A40F22A21049809F0A6FE62
:1078100001AB0822002118460EF0A0FF1023ADF89E
:1078200004303C23ADF806300023ADF808304FF4A7
:10783000C873ADF80A3001AB1846FFF7D5FD0590C7
:10784000059B0393039B002B05D0054A4FF40D7154
:10785000039809F083FE00BF07B000BD6C6A030007
:10786000B469030000B583B00190044A40F241219D
:10787000019809F073FE00BF03B000BDB4690300B6
:1078800000B587B00190019B1B78002B44D10023E9
:1078900005932BE0019B1A69059B13441B7818463E
:1078A0000AF0B6FD0490049B002B19D0049B112B09
:1078B00016D01B4A1B4BD31ADB081B0443F00103F1
:1078C000049A194918460DF0D2F8049B0393039BC0
:1078D000002B05D0154A40F25F21039809F03EFEC7
:1078E000049B112BD6D0059B01330593019B9B8AEA
:1078F0001A46059B9342CDD3019B1A69019B9B8A33
:10790000013B13441B780D2B06D100BF0A200AF05F
:107910007FFD0346112BF9D000BF07B000BD00BFAB
:107920003869030000690300786A0300B469030042
:1079300000B587B000230193174B019301AB1946A3
:10794000164804F03BFD0590059B0493049B002B17
:1079500005D0134A40F27921049809F0FFFD02ABEB
:107960000422002118460EF0F9FE0E4B029302ABE2
:1079700019460D4804F05AFF0590059B0393039B9D
:10798000002B05D0064A40F28121039809F0E6FD5C
:1079900000BF07B000BD00BF65780200982C002032
:1079A000B469030081780200F02A002000B585B098
:1079B0000190019B1B78002B11D10A4B1B883B21A6
:1079C0001846FFF70DFD0390039B0293029B002BCB
:1079D00005D0054A40F29721029809F0BFFD00BF8B
:1079E00005B000BD0C2B0020B469030000B583B0C6
:1079F0000190044A40F2A221019809F0AFFD00BFB6
:107A000003B000BDB469030000B58BB001AB1C220C
:107A1000002118460EF0A2FE002301934FF4A0337C
:107A200002934FF4F023039303238DF810300023C7
:107A3000ADF8123000238DF814300B4B06930B4B2E
:107A4000079301AB184603F0A7FC0990099B089324
:107A5000089B002B05D0064A40F2B921089809F08E
:107A60007DFD00BF0BB000BDAD790200ED790200D5
:107A7000B469030000B585B0002001F063FB0390FA
:107A8000039B0293029B002B05D0124A4FF43171E5
:107A9000029809F063FD01F0DBFC0390039B019366
:107AA000019B002B05D00B4A4FF43271019809F06D
:107AB00055FDFFF7ADFC0390039B0093009B002B4B
:107AC00005D0044A4FF43371009809F047FD00BF18
:107AD00005B000BDB469030000B585B003468DF85C
:107AE00007309DF80730002B11D0032B12D1022054
:107AF00001F028FB0390039B0293029B002B0BD009
:107B0000074A40F2DE21029809F028FD04E0FFF761
:107B1000B1FF02E000BF00E000BF00BF05B000BD44
:107B2000B469030000B58DB001900091019B1B88E2
:107B3000562B00F0B580562B00F3C580522B00F079
:107B40008880522B00F3BF803B2B00F096803B2BAC
:107B500000F3B980212B4ED0212B00F3B480132BDE
:107B600063D0132B00F3AF80102B02D0112B32D037
:107B7000A9E05D4A5D4BD31ADB081B0443F0030305
:107B80005B4918460CF066FF072001F0DBFA0B900A
:107B90000B9B0593059B002B05D0564A40F2F7211D
:107BA000059809F0DBFC019B9A88534B1A80524BD5
:107BB0001B881946514804F023FC0B900B9B04933F
:107BC000049B002B00F081804A4A40F2FA2104987D
:107BD00009F0C4FC79E0444A444BD31ADB081B0487
:107BE00043F00303464918460CF034FF424B4FF66E
:107BF000FF721A8074E000238DF80C3000238DF89A
:107C00000D30019B9B8803AA11461846FFF7F8FB2D
:107C10000B900B9B0793079B002B58D0354A4FF4D2
:107C20004371079809F09AFC51E0334B1888002300
:107C300000228521FFF7E0FB0B900B9B0693069B30
:107C4000002B46D02B4A40F21231069809F086FCF0
:107C50003FE0294B1888002300220021FFF7D4FBC6
:107C60000B900B9B0993099B002B34D0214A4FF4B6
:107C70004671099809F072FC2DE0019B9B88132145
:107C80001846FFF7ADFB0B900B9B0893089B002B4E
:107C900023D0184A40F21F31089809F05FFC1CE01D
:107CA000019B9B8813211846FFF79AFB0B900B9BB7
:107CB0000A930A9B002B12D00E4A40F226310A98F2
:107CC00009F04CFC0BE000BF0AE000BF08E000BF79
:107CD00006E000BF04E000BF02E000BF00E000BF1C
:107CE00000BF0DB000BD00BF38690300006903008C
:107CF000A46A0300B46903000C2B0020982C002018
:107D0000B06A030000B587B00DF0EAFD0590059B51
:107D10000493049B002B05D0154A40F23931049896
:107D200009F01CFC0023019301AB194601200DF062
:107D30008BFE0590059B0393039B002B05D00C4AFB
:107D400040F23F31039809F009FC01AB18460DF0F1
:107D500099FF0590059B0293029B002B05D0044AD6
:107D600040F24331029809F0F9FB00BF07B000BDB3
:107D7000B469030000B583B001900091009B5A885C
:107D8000104B1B889A421AD1009B1B8840F6772221
:107D9000934214D1009B9B88033B9AB20A4B1A80F2
:107DA0000A4A0B4BD31ADB081B0443F00300064BB3
:107DB0001B881A46044B1B8806490CF068FE00BF5E
:107DC00003B000BD0C2B00200E2B002038690300EF
:107DD00000690300C06A030000B585B0114912486C
:107DE00004F015FA0390039B0293029B002B05D02D
:107DF0000E4A40F25E31029809F0B0FBF7210A48C2
:107E000004F02FFA0390039B0193019B002B05D0F4
:107E1000064A40F26131019809F0A0FB00BF05B0AD
:107E200000BD00BF757D0200842C0020B4690300F2
:107E300000B587B003468DF807309DF807300A2B50
:107E400006D00A2B36DC042B05D0072B19D031E0E5
:107E5000FFF710FE33E01B4B1B8813211846FFF77A
:107E6000BFFA0590059B082B26D0059B0393039B27
:107E7000002B21D0144A40F27631039809F06EFBB2
:107E80001AE0104B1B884FF6FF72934216D10F4831
:107E900003F009F90590059B082B0FD0059B04936F
:107EA000049B002B0AD0084A4FF46071049809F033
:107EB00055FB03E000BF02E000BF00E000BF00BFD1
:107EC00007B000BD0C2B0020B4690300A42C0020D7
:107ED00000B587B00190019B1B78022B55D0022B77
:107EE00065DC002B02D0012B58D060E0334B1B78AF
:107EF0001A46334B134418460AF052FA2F4B1B789C
:107F00000133DAB22D4B1A702C4B1B78013B2C4AF3
:107F1000D35C0A2B0DD0294B1B78013B284AD35C3C
:107F20000D2B06D0254B1B781A46264B1B889A42F0
:107F30003FD3224B1B78012B23D9204B1B78ADF864
:107F40000E30214B1B880DF10E021D491F4804F015
:107F500013FD0590059B082B10D0059B132B0DD00E
:107F6000059B052B0AD0059B0493049B002B05D091
:107F7000174A40F2AF31049809F0F0FA059B132B31
:107F8000DBD00E4B00221A7013E0019B5B68104A95
:107F900040F2B931184609F0E1FA0BE0019B5B6849
:107FA0000B4A40F2BD31184609F0D8FA02E000BF92
:107FB00000E000BF00BF07B000BD00BFDD30002003
:107FC000E03000200E2B00200C2B0020F02A002097
:107FD000B469030030B58DB0134B04AC1D460FCD12
:107FE0000FC495E8030084E80300104B00934FF49E
:107FF000807301930E4B02934FF480730393694691
:1080000004A807230B4A0AF03BF90B900B9B0A9339
:108010000A9B002B05D0084A40F2E2310A9809F089
:108020009DFA00BF0DB030BDDC6A0300D4310020E2
:10803000D4320020D17E0200B469030000B5AFB095
:1080400001ABAC22002118460EF088FB02238DF80C
:10805000043000238DF8063005238DF80730012306
:10806000ADF85030114B159301238DF8803040232B
:10807000239344F2506324930D4B2A9301AB19468A
:108080000C4802F0F3FD2D902D9B2C932C9B002B84
:1080900005D0094A40F2FD312C9809F05FFA012120
:1080A000044802F0D6FD00BF2FB000BD102B002009
:1080B000D97A0200A42C0020B469030000B587B06F
:1080C00001901749012001F057F80590059B049392
:1080D000049B002B05D0134A40F20D41049809F08F
:1080E0003DFA0DF10B031946002001F011FA05903D
:1080F000059B0393039B002B05D00A4A4FF4826132
:10810000039809F02BFA9DF80B30022B0CBF0123CA
:108110000023DAB2019B1A7000BF07B000BD00BF98
:10812000317E0200B469030000B583B04FF4804192
:1081300000200CF0C5F90190019B0093009B002BDF
:1081400005D0054A40F21B41009809F007FA0CF0EF
:108150004FF900BF03B000BDB469030000B583B0A0
:108160000BF08AFE0190019B0093009B002B05D031
:10817000044A40F22741009809F0F0F900BF03B02B
:1081800000BD00BFB469030008B50CF0CFFC034686
:1081900083F00103DBB2002B01D00BF083FE00BFA4
:1081A00008BD000000B583B00321094802F03AFE83
:1081B0000190019B0093009B002B05D0054A40F2E3
:1081C0003D41009809F0CAF900BF03B000BD00BFEF
:1081D000A42C0020B469030000B589B0FFF7FAFEB3
:1081E000FFF7A2FFFFF7DAFAFFF790F90DF113039B
:1081F0001846FFF763FFFFF7B1FFFFF783FDFFF7B7
:10820000E5FAFFF7E9FDFFF793FBFFF717FFFFF72D
:10821000FBFBFFF72DF90DF0B9FF0790079B002B33
:1082200005D0884A40F25541079809F097F98648E9
:108230000EF05CF9854A864BD31ADB081B0443F029
:108240000303844918460CF005FC804A804BD31A7E
:10825000DB081B0443F003037F4918460CF0FAFBCC
:10826000FFF7A0FF794A7A4BD31ADB081B0443F0CF
:1082700003037A4918460CF0EDFB794A01AB07CAB3
:1082800083E8070001AB18460DF04EFE0346002BB5
:108290000AD16E4A6E4BD31ADB081B0443F003036A
:1082A000704918460CF0D6FB6F4B1B78032B00F07F
:1082B000BE80032B00F3AA80022B68D0022B00F3B0
:1082C000A580002B02D0012B14D09FE0674B1B78B8
:1082D000DBB2002B00F0AD805C4A5D4BD31ADB08AB
:1082E0001B0443F00303624918460CF0B3FBFFF78D
:1082F000D5F99EE05F4B1B78DBB2002B23D05D4BA2
:1083000000221A70FFF750F9034683F00103DBB235
:10831000002B0DD04D4A4E4BD31ADB081B0443F003
:108320000303554918460CF095FBFFF799F985E0D2
:10833000464A474BD31ADB081B0443F003034F495B
:1083400018460CF087FB4E4B1B78DBB2002B72D02B
:108350004B4B00221A704B4B184609F017FE059044
:10836000059B002B05D0374A40F2BE41059809F025
:10837000F5F8364A364BD31ADB081B0443F00303E7
:10838000414918460CF066FBFFF7E4F953E03F4B18
:108390001B78DBB2002B50D03C4B00221A702B4ACA
:1083A0002B4BD31ADB081B0443F003033849184650
:1083B0000CF050FBFFF7F8F803468DF81B30FFF781
:1083C0004BF903468DF81A309DF81B30002B0FD067
:1083D0009DF81A30002B0BD01C4A1D4BD31ADB081A
:1083E0001B0443F003032B4918460CF033FB24E035
:1083F000164A174BD31ADB081B0443F00303264924
:1084000018460CF027FBFFF72BF916E00F4A104B2C
:10841000D31ADB081B0443F00103134A12781F49E7
:1084200018460CF024FB104B00221A7006E000BF27
:1084300004E000BF02E000BF00E000BFFFF7A4FEC1
:1084400032E700BFB4690300F46A0300386903002F
:1084500000690300086B03001C6B0300486B0300FA
:10846000706C03005C6B0300DC300020DB3000200C
:108470006C6B0300D9300020886B0300B06B0300E5
:10848000D8300020382B0020D86B0300DA300020D1
:10849000FC6B0300186C0300346C0300506C030089
:1084A00000B583B00190019B1B68184600F016F9D7
:1084B0000346002B04D10B494FF4F670FFF714F874
:1084C000019B1B681F2B02D84FF0A04306E0019BC5
:1084D0001B6803F01F02019B1A60034B184603B090
:1084E00000BD00BF7C6C03000003005000B585B0E8
:1084F0000190084611461A4603468DF803300B4694
:108500008DF8023013468DF8013001AB1846FFF7A5
:10851000C7FF03909DF803209DF802305B001A43CB
:108520009DF801309B001A439DF818301B0242EA67
:1085300003019DF81C301B04019A1943039B02F5AB
:10854000E07243F8221000BF05B000BD00B585B051
:1085500003900023019300230093002301220121B3
:108560000398FFF7C3FF00BF05B000BD00B585B09D
:1085700003900B468DF80B309DF80B3000220192D2
:1085800000220092002200210398FFF7AFFF00BFF6
:1085900005B000BD00B585B0019001AB1846FFF7EE
:1085A0007FFF0390019B012202FA03F3194603980F
:1085B00000F080F800BF05B000BD00B585B00190A7
:1085C00001AB1846FFF76CFF0390019B012202FAF2
:1085D00003F31946039800F077F800BF05B000BD1B
:1085E00000B585B0019001AB1846FFF759FF039025
:1085F000039BD3F804350293029BDA43019B0121CC
:1086000001FA03F31A40039BC3F80825019B0122DA
:108610009A40029B1A40039BC3F80C2500BF05B08B
:1086200000BD00B583B001900091009B002B03D1E9
:108630000198FFF7C2FF02E00198FFF7ABFF00BF10
:1086400003B000BD00B585B0019001AB1846FFF73F
:1086500027FF0390039800F01DF80246019B22FAC1
:1086600003F303F00103184605B000BD00B585B063
:10867000019001AB1846FFF713FF0390039800F039
:1086800011F80246019B22FA03F303F00103184696
:1086900005B000BD82B00190019BD3F8103518469B
:1086A00002B0704782B00190019BD3F804351846A0
:1086B00002B0704782B001900091019B009AC3F80C
:1086C000082500BF02B0704782B001900091019B65
:1086D000009AC3F80C2500BF02B0704784B0019027
:1086E000019B5B09029300230393029B002B03D0A1
:1086F000029B012B04D007E04FF0FF33039303E00C
:108700004FF6FF73039300BF019B03F01F03019318
:10871000039A019B22FA03F303F00103DBB218462C
:1087200004B0704700B585B00190019B002B03D0C9
:1087300009493A20FEF7D8FE24231846FFF796FF92
:108740000346002B14BF012300238DF80F309DF842
:108750000F30184605B000BDAC6C030000B583B007
:108760000190019B002B03D005494120FEF7BCFE80
:10877000242301211846FFF754FF00BF03B000BDBA
:10878000AC6C030000B583B00190019B002B03D0BB
:1087900005494720FEF7A8FE242300211846FFF7CD
:1087A00040FF00BF03B000BDAC6C030000B583B058
:1087B0000023019305E00198FFF7E4FF019B0133DB
:1087C0000193019B002BF6D000BF00BF03B000BD9A
:1087D00000B583B00023019305E00198FFF7BEFFC9
:1087E000019B01330193019B002BF6D000BF00BF1A
:1087F00003B000BD00B583B00190019B002B03D0F6
:1088000005495F20FEF770FE24231846FFF7E8FEB7
:1088100000BF03B000BD00BFAC6C030000B583B067
:108820000023019306E024231846FFF78FFE019BE7
:1088300001330193019B002BF5D0FFF7B7FF00BF79
:1088400003B000BD00B585B00190019B002B03D0A3
:108850000F49AC20FEF748FE26231846FFF7F2FE2C
:108860000346002B14BF012300238DF80F309DF821
:108870000F30002B14BF01230023DBB283F0010370
:10888000DBB203F00103DBB2184605B000BD00BF48
:10889000AC6C030000B583B00023019307E02623EE
:1088A00003211846FFF762FE019B01330193019BF0
:1088B000002BF4D000BF00BF03B000BD84B0019016
:1088C0004FF0FF330293002303930AE026231A4656
:1088D000019B934202D1039B029305E0039B01336A
:1088E0000393039B002BF1D0029B184604B0704702
:1088F00000B583B00190019B002B03D00349CB202E
:10890000FEF7F2FD2623184603B000BDAC6C030051
:1089100000B583B00190019B03F00103002B01D04F
:10892000FFF77CFF019B03F00203002B01D0FFF750
:10893000B1FF00BF03B000BD00B583B00190019B43
:108940001B68184600F04AF80346002B04D10B4977
:108950004FF4F670FEF7C8FD019B1B681F2B02D871
:108960004FF0A04306E0019B1B6803F01F02019B30
:108970001A60034B184603B000BD00BFF06C030043
:108980000003005000B585B001900B468DF8033010
:1089900001AB1846FFF7D0FF0390019A039B02F545
:1089A000E07253F82230019A23F44031039B02F520
:1089B000E07243F82210019A039B02F5E07253F82B
:1089C00022109DF803301B04019A1943039B02F502
:1089D000E07243F8221000BF05B000BD84B00190E2
:1089E000019B5B09029300230393029B002B03D09E
:1089F000029B012B04D007E04FF0FF33039303E009
:108A00004FF6FF73039300BF019B03F01F03019315
:108A1000039A019B22FA03F303F00103DBB2184629
:108A200004B0704700B583B00190019B002B04D1C6
:108A30000198FFF707FF034600E00023184603B044
:108A400000BD000000B587B003460A468DF8073028
:108A500013468DF8063000238DF817300023049359
:108A60009DF807301846FFF729FF0490049B002B60
:108A700062D19DF80630022B52D0022B5CDC002B19
:108A800031D0012B58D13549049A13465B00134469
:108A90000B441B788DF817303049049A13465B005D
:108AA00013440B4401331B78002B0ED02C4B2D4A62
:108AB0004FF48041184609F011FA0390039B002BF4
:108AC00003D1284A9DF8073013702449049A1346AD
:108AD0005B0013440B4402331978234A049B13446C
:108AE0000A461A7028E01E4B184609F04FFA1E4A33
:108AF000049B134419781948049A13465B001344E5
:108B0000034402331B78994215D11449049A134641
:108B10005B0013440B4402331B788DF817300AE0D6
:108B20000E49049A13465B0013440B4401331B782F
:108B30008DF8173000E000BF9DF81730002B09D0EA
:108B40000A4B1B68002B05D0084B1B689DF81720AB
:108B50001046984700BF07B000BD00BFE4330020B7
:108B6000B82B0020E7330020E8330020E03300205A
:108B700000B583B00190019B1B7802211846FFF7D6
:108B800061FF00BF03B000BD00B583B00C4B1B7884
:108B9000002B0FD00023019308E0019B022B02D091
:108BA0000198FFF7EFFD019B01330193019B002B1F
:108BB000F3D001E0FFF7FAFD00BF03B000BD00BF36
:108BC000DC3300202DE9D04F92B003468DF83F30C2
:108BD0000023119300231093BF4B1B78002B04D06C
:108BE000BD4A00231370FFF7CFFF9DF83F30172BCE
:108BF00000F37882162B80F26E82152B00F05E82D5
:108C0000152B00F36F82142B00F04E82142B00F30F
:108C10006982132B00F03E82132B00F36382122B28
:108C200000F03182122B00F35D82112B00F35A8287
:108C30000D2B80F2E0810C2B00F0D6810C2B00F381
:108C400051820B2B00F0C1810B2B00F34B820A2BBE
:108C500000F0AC810A2B00F34582092B00F09781CC
:108C6000092B00F33F82082B00F08281082B00F3D0
:108C70003982072B00F07481072B00F33382062B17
:108C800000F05E81062B00F32D82052B00F005819C
:108C9000052B00F32782042B00F0BE80042B00F389
:108CA0002182032B68D0032B00F31C82002B07D0FA
:108CB000002BC0F21782013B012B00F213820BE064
:108CC000FFF762FF854B184609F060F91190844A5E
:108CD0009DF83F30137006E20020FFF723FD0346A6
:108CE000002B0ED00020FFF74DFD9DF83F30022BEA
:108CF00003D14FF4E163109310E04FF47A631093C3
:108D00000CE00020FFF72AFD9DF83F30022B02D136
:108D1000C823109302E04FF4C8731093704A9DF873
:108D20003F3013706D4C109B0022009301924FF066
:108D300000024FF00003DDE900673946CB033146FE
:108D400043EA51433146CA0312F57A71029143F165
:108D5000000303934FF4FA624FF00003DDE90201D0
:108D60000DF0F2FB02460B46134600221946204640
:108D700009F0B4F81190B6E10020FFF7D3FC0346E8
:108D8000002B0ED00020FFF7FDFC9DF83F30032B99
:108D900003D14FF44873109310E04FF47A631093AB
:108DA0000CE00020FFF7DAFC9DF83F30032B02D1E6
:108DB000C823109302E04FF4C8731093484A9DF8FB
:108DC0003F301370454C109B0022049305924FF0E6
:108DD00000024FF00003DDE904673946CB0331465A
:108DE00043EA51433146CA0312F57A71069143F1C1
:108DF000000307934FF4FA624FF00003DDE9060128
:108E00000DF0A2FB02460B461346002219462046EF
:108E100009F064F8119066E10020FFF783FC034637
:108E2000002B06D00020FFF7ADFC4FF47A631093BF
:108E300005E00020FFF792FC4FF4C8731093284A16
:108E40009DF83F301370254C109B00220893099227
:108E50004FF000024FF00003DDE908673946CB030D
:108E6000314643EA51433146CA0312F57A710A91F9
:108E700043F100030B934FF4FA624FF00003DDE976
:108E80000A010DF061FB02460B461346002219460B
:108E9000204609F023F8119025E10020FFF742FC5D
:108EA0000346002B0DD00020FFF76CFC9DF83F30EF
:108EB000052B02D1C823109317E04FF47A63109367
:108EC00013E00020FFF74AFC9DF83F30052B09D145
:108ED000C823109309E000BFD5330020782B002071
:108EE000D43300204FF4C8731093814A9DF83F306B
:108EF0001370804C109B00229A4693464FF000025C
:108F00004FF000034FEACB3343EA5A434FEACA32E9
:108F100012F57A710C9143F100030D934FF4FA624C
:108F20004FF00003DDE90C010DF00EFB02460B468D
:108F3000134600221946204608F0D0FF1190D2E0D7
:108F40000020FFF757FC6A4A9DF83F301370694BC9
:108F5000002240F26661184608F0C0FF1190C2E09E
:108F60000020FFF7FBFB624A9DF83F301370BAE028
:108F7000614B01221A700120FFF73CFC5D4B00227F
:108F800040F26661184608F0A9FF1190ABE05A4B19
:108F900001221A700120FFF72DFC564B00224FF4DE
:108FA0000051184608F09AFF11909CE0524B0122A4
:108FB0001A700120FFF71EFC4E4B002240F2666142
:108FC000184608F08BFF11908DE04B4B01221A7070
:108FD0000120FFF70FFC474B00224FF400511846C9
:108FE00008F07CFF11907EE0FFF7F2FB404A9DF80D
:108FF0003F30137077E0414B184608F0C7FF1190DF
:109000009DF83F30C3F111031093109B002B33D018
:10901000119B002B30D1109B012B26D9374C109B74
:109020009BB21A46C82302FB03F3DA171E46174603
:109030004FF000024FF00003FB0343EA5643F203F4
:1090400012F57A7843F100094FF4FA624FF0000309
:10905000404649460DF078FA02460B461346002278
:109060001946204608F03AFF11900220FFF776FBE0
:10907000234B01221A7036E00220FFF783FB204BBE
:1090800000221A702FE0FFF77FFD194A9DF83F304C
:10909000137028E0FFF778FD0020FFF75FFB144A0C
:1090A0009DF83F3013701EE0FFF76EFD0120FFF7C3
:1090B00055FB0F4A9DF83F30137014E0FFF764FD35
:1090C0000020FFF74BFB0120FFF748FB084A9DF803
:1090D0003F30137007E0FFF77BFB054A9DF83F30F8
:1090E000137000E000BF119B184612B0BDE8D08F8E
:1090F000D4330020782B0020D5330020982B00207B
:10910000DC33002000B583B00190074B1B6803F0EF
:109110000103002B04D0054B1B781846FFF752FDC6
:1091200000BF03B000BD00BFD8330020D4330020FF
:1091300000B583B001900220FFF75CFB00BF03B0D5
:1091400000BD000000B585B003468DF80730002350
:109150000393084B1B6803F00103002B05D09DF817
:1091600007301846FFF72EFD0390039B184605B005
:1091700000BD00BFD833002000B585B0019000913C
:1091800000230393294A019B1360294A009B136023
:10919000019B03F00203002B2AD00023029308E076
:1091A00001220121029800F053F80390029B013341
:1091B0000293029B002B02D1039B002BF0D0039B58
:1091C000002B06D140F2333201211A4808F0C6F8CC
:1091D0000390039B002B02D108F048F90390039BF6
:1091E000002B05D1144A0021144808F03DFE0390DD
:1091F000019B03F00103002B14D00120FFF788FB33
:10920000039B002B05D10E4A00210E4808F02CFECE
:109210000390039B002B05D10B4A01210B4808F05A
:1092200023FE0390039B184605B000BDD8330020F1
:10923000E03300202C6D0300718B0200286D0300C9
:1092400005910200206D030031910200246D03009E
:1092500084B001900B468DF8033013468DF8023030
:1092600000230393019B002B3DD19DF80230012B7D
:109270000CD19DF80330012B05D1019BDBB20E33DD
:109280008DF8023002E000238DF802309DF80330A3
:10929000022B0FD0022B23DC002B16D0012B1FD169
:1092A0001449019A13465B0013440B449DF80220B5
:1092B0001A701AE00F49019A13465B0013440B44DD
:1092C00001339DF802201A700FE00A49019A1346F3
:1092D0005B0013440B4402339DF802201A7004E033
:1092E0000723039301E007230393039B184604B06D
:1092F000704700BFE433002000B585B001900B46F5
:109300008DF80330019B002B16D19DF80330002B04
:1093100003D003238DF80F3002E000238DF80F30C7
:109320000198FFF7E5FA02469DF80F3019461046FE
:10933000FFF728FB002300E00623184605B000BD18
:1093400000B583B0019001210198FFF7D5FF0346D6
:10935000184603B000BD00B583B0012200210020F3
:10936000FFF776FF0190019B002B04D0019B072B98
:1093700001D0019B1CE0072202210120FFF768FFBA
:109380000190019B002B04D0019B072B01D0019B76
:109390000EE0042202210020FFF75AFF0190019BFA
:1093A000002B04D0019B072B01D0019B00E0002380
:1093B000184603B000BD00B583B001220221002091
:1093C000FFF746FF0190019B002B04D0019B072B68
:1093D00001D0019B1CE0072202210120FFF738FF8A
:1093E0000190019B002B04D0019B072B01D0019B16
:1093F0000EE00A2200210020FFF72AFF0190019BC6
:10940000002B04D0019B072B01D0019B00E000231F
:10941000184603B000BD00B583B001900120FFF7EE
:1094200001FB0346002B03D0019B02221A700CE0C3
:109430000020FFF7F7FA0346002B03D0019B0B2215
:109440001A7002E0019B00221A7000BF03B000BD39
:1094500000B583B00020FFF773FF0190019B002B44
:1094600004D0019B062B01D0019B0CE00120FFF7EB
:1094700067FF0190019B002B04D0019B062B01D0BC
:10948000019B00E00023184603B000BD00B585B085
:1094900001900091019B1B88102B02D0112B18D03A
:1094A0002FE0194B1B68002B0DD1FFF754FF0390E1
:1094B000039B002B07D0154B1B68002B03D0134BCD
:1094C0001B6803989847104B1B6801330E4A1360C2
:1094D00017E00D4B1B68013B0B4A13600A4B1B68DE
:1094E000002B0DD1FFF767FF0390039B002B07D0E4
:1094F000064B1B68002B03D0044B1B68039898474E
:1095000000BF00BF05B000BDF0330020EC330020E9
:1095100000B585B00190009100230393094A019B97
:109520001360009B002B02D00098FFF774FF064BDE
:109530001B68002B02D1FFF73EFF0390039B1846E8
:1095400005B000BDEC330020F0330020BFF34F8F97
:1095500000BF064BDB6803F4E0620449044B13438D
:10956000CB60BFF34F8F00BF00BFFDE700ED00E011
:109570000400FA0582B01D4B1B6801931C4B1B684D
:109580000093019B082B2CD1009B052B25D0009B21
:10959000052B24D8009B042B1DD0009B042B1ED828
:1095A000009B032B15D0009B032B18D8009B022B8C
:1095B0000DD0009B022B12D8009B002B03D0009BE8
:1095C000012B02D00BE001230CE001230AE0012370
:1095D00008E0012306E0012304E0012302E0012367
:1095E00000E00023184602B0704700BF30010010B1
:1095F0003401001082B01D4B1B6801931C4B1B688B
:109600000093019B082B2CD1009B052B25D0009BA0
:10961000052B24D8009B042B1DD0009B042B1ED8A7
:10962000009B032B15D0009B032B18D8009B022B0B
:109630000DD0009B022B12D8009B002B03D0009B67
:10964000012B02D00BE001230CE001230AE00123EF
:1096500008E0012306E0012304E0012302E00123E6
:1096600000E00023184602B0704700BF3001001030
:109670003401001082B01D4B1B6801931C4B1B680A
:109680000093019B082B2CD1009B052B25D0009B20
:10969000052B24D8009B042B1DD0009B042B1ED827
:1096A000009B032B15D0009B032B18D8009B022B8B
:1096B0000DD0009B022B12D8009B002B03D0009BE7
:1096C000012B02D00BE001230CE000230AE0002371
:1096D00008E0002306E0002304E0002302E000236A
:1096E00000E00023184602B0704700BF30010010B0
:1096F0003401001082B01D4B1B6801931C4B1B688A
:109700000093019B082B2CD1009B052B25D0009B9F
:10971000052B24D8009B042B1DD0009B042B1ED8A6
:10972000009B032B15D0009B032B18D8009B022B0A
:109730000DD0009B022B12D8009B002B03D0009B66
:10974000012B02D00BE001230CE000230AE00023F0
:1097500008E0002306E0002304E0002302E00023E9
:1097600000E00023184602B0704700BF300100102F
:109770003401001082B01D4B1B6801931C4B1B6809
:109780000093019B082B2CD1009B052B25D0009B1F
:10979000052B24D8009B042B1DD0009B042B1ED826
:1097A000009B032B15D0009B032B18D8009B022B8A
:1097B0000DD0009B022B12D8009B002B03D0009BE6
:1097C000012B02D00BE001230CE000230AE0002370
:1097D00008E0002306E0002304E0002302E0002369
:1097E00000E00023184602B0704700BF30010010AF
:1097F0003401001082B01D4B1B6801931C4B1B6889
:109800000093019B082B2CD1009B052B25D0009B9E
:10981000052B24D8009B042B1DD0009B042B1ED8A5
:10982000009B032B15D0009B032B18D8009B022B09
:109830000DD0009B022B12D8009B002B03D0009B65
:10984000012B02D00BE001230CE000230AE00023EF
:1098500008E0002306E0002304E0002302E00023E8
:1098600000E00023184602B0704700BF300100102E
:109870003401001082B01D4B1B6801931C4B1B6808
:109880000093019B082B2CD1009B052B25D0009B1E
:10989000052B24D8009B042B1DD0009B042B1ED825
:1098A000009B032B15D0009B032B18D8009B022B89
:1098B0000DD0009B022B12D8009B002B03D0009BE5
:1098C000012B02D00BE001230CE001230AE001236D
:1098D00008E0012306E0012304E0012302E0012364
:1098E00000E00023184602B0704700BF30010010AE
:1098F0003401001082B01D4B1B6801931C4B1B6888
:109900000093019B082B2CD1009B052B25D0009B9D
:10991000052B24D8009B042B1DD0009B042B1ED8A4
:10992000009B032B15D0009B032B18D8009B022B08
:109930000DD0009B022B12D8009B002B03D0009B64
:10994000012B02D00BE000230CE000230AE00023EF
:1099500008E0002306E0012304E0012302E00123E4
:1099600000E00023184602B0704700BF300100102D
:109970003401001008B5FFF7BDFF0346002B07D0E8
:109980004FF010234FF08042D3F80832C2F8583518
:1099900000BF08BD00BF044BD3F80034002BFAD041
:1099A00000BF00BF704700BF00E0014000B583B0BA
:1099B0000190044A019BC2F80435FFF7EBFF00BF9A
:1099C00003B000BD00E00140024B034A1A6000BF33
:1099D000704700BFD82B00200090D00308B5FFF7D8
:1099E000C9FD0346002B0ED04FF080430022C3F880
:1099F0000C214FF080430022C3F810214FF0804328
:109A00000022C3F83825FFF7F5FD0346002B76D07A
:109A10004FF08053734AD3F80434C2F820354FF026
:109A20008053704AD3F80834C2F824354FF080537D
:109A30006C4AD3F80C34C2F828354FF08053694A89
:109A4000D3F81034C2F82C354FF08053654AD3F860
:109A50001434C2F830354FF08053624AD3F81834CA
:109A6000C2F834354FF080535E4AD3F81C34C2F844
:109A700040354FF080535B4AD3F82034C2F8443568
:109A80004FF08053574AD3F82434C2F848354FF08A
:109A90008053544AD3F82834C2F84C354FF08053E1
:109AA000504AD3F82C34C2F850354FF080534D4A09
:109AB000D3F83034C2F854354FF08053494AD3F8C4
:109AC0003434C2F860354FF08053464AD3F8383406
:109AD000C2F864354FF08053424AD3F83C34C2F8A0
:109AE00068354FF080533F4AD3F84034C2F86C35A4
:109AF0004FF080533B4AD3F84434C2F87035FFF737
:109B0000B9FD0346002B02D0374B384A1A60FFF7E5
:109B1000F1FD0346002B03D0354BFB22C3F818257B
:109B2000FFF728FE0346002B0AD0324B1B6823F0B8
:109B30000F02314B1B6803F00F032E4913430B60D8
:109B4000FFF758FE0346002B03D02C4B4FF4007256
:109B50001A60FFF78FFE0346002B0DD04FF08043B5
:109B6000D3F8003403F00103002B05D04FF08043FD
:109B70006FF00102C3F80024214BD3F88830204A4B
:109B800043F47003C2F88830BFF34F8F00BFBFF3B8
:109B90006F8F00BFFFF7EEFE4FF01023D3F80032B7
:109BA000002B05DB4FF01023D3F80432002B15DA1D
:109BB0000120FFF7FBFE4FF010231222C3F8002212
:109BC000FFF7E8FE4FF010231222C3F80422FFF73C
:109BD000E1FE0020FFF7EAFEFFF7B8FCFFF7F4FE16
:109BE00000BF08BD00C000408C5600404881030003
:109BF00000F00040E40E0040580200104096024081
:109C000000ED00E06DDF704700BF184679DF704758
:109C100000BF18467DDF704700BF184664DF7047FD
:109C200000BF184682B003460091ADF80630BDF87B
:109C30000630DAB2009B1A70BDF806301B0A9AB2E1
:109C4000009B0133D2B21A700223184602B070474B
:109C500000B589B0039002911346ADF80630029B1F
:109C60001B8803F10902BDF806309A4201D90C2382
:109C700053E004AB1846FFF7C5FF0790079B069318
:109C8000069B002B01D0069B47E0029B1B881A46CF
:109C9000039B134408221A70029B1B8801339AB25B
:109CA000029B1A80029B1B881A46039B13441B22AB
:109CB0001A70029B1B8801339AB2029B1A80029B86
:109CC0001B881A46039B981804AB013306221946D9
:109CD0000CF012FD029B1B8806339AB2029B1A807D
:109CE0009DF8103023F00103DBB2002B07D1029B5B
:109CF0001B881A46039B134400221A7006E0029B3D
:109D00001B881A46039B134401221A70029B1B886E
:109D100001339AB2029B1A800023184609B000BD95
:109D200000B589B0039002910192ADF80230039B17
:109D30001B78012B05D1039B5B78002B01D10723F6
:109D400091E0019B1B889A1CBDF802309A420ED804
:109D5000039B1B78012B0CD1019B1B881A46039B8C
:109D60005B7813449A1CBDF802309A4201D90C2347
:109D700079E0019B1B88BDF80220D31A9BB2023BFD
:109D8000ADF81C30BDF81C30ADF81230019B1B88BB
:109D90000233029A13440DF1120211461846FFF7DE
:109DA00039FF0690069B0593059B002B01D0059B70
:109DB00059E0039B1B78022B06D0039B5B781A4665
:109DC000BDF812309A4209D3BDF81230BDF81C20FC
:109DD0009A4203D309238DF81F3016E008238DF82B
:109DE0001F30039B1B78012B0BD1039B5B781A461A
:109DF000BDF81C30934204D3039B5B78ADF812305E
:109E000003E0BDF81C30ADF81230BDF81230FE2B67
:109E100001D90C2327E0BDF81230DAB2019B1B8870
:109E20001946029B0B440132D2B21A70019B1B8867
:109E300001339AB2019B1A80019B1B881A46029B30
:109E400013449DF81F201A70019B1B8801339AB29E
:109E5000019B1A80019B1A88BDF8123013449AB2F4
:109E6000019B1A800023184609B000BD00B589B0D7
:109E7000039002911346ADF80630029B1B881A1D11
:109E8000BDF806309A4201D90C233AE00DF11603D1
:109E90001846FFF7BBFE0790079B0693069B002B17
:109EA00001D0069B2DE0029B1B881A46039B13449E
:109EB00003221A70029B1B8801339AB2029B1A80FC
:109EC000029B1B881A46039B134419221A70029B9B
:109ED0001B8801339AB2029B1A80BDF81620029BA0
:109EE0001B881946039B0B4419461046FFF79AFE40
:109EF00003461A46029B1B8813449AB2029B1A809F
:109F00000023184609B000BD84B0029101921A46A0
:109F100003468DF80F301346ADF80C30019B1B88BB
:109F2000DA1CBDF80C309A4201D90C2328E0019BC1
:109F30001B881A46029B134402221A70019B1B883D
:109F400001339AB2019B1A80019B1B881A46029B1F
:109F5000134401221A70019B1B8801339AB2019BA2
:109F60001A80019B1B881A46029B13449DF80F2000
:109F70001A70019B1B8801339AB2019B1A8000233F
:109F8000184604B0704784B0029101921A46034605
:109F90008DF80F301346ADF80C30019B1B88DA1C8E
:109FA000BDF80C309A4201D90C2328E0019B1B8894
:109FB0001A46029B134402221A70019B1B8801332C
:109FC0009AB2019B1A80019B1B881A46029B13447C
:109FD0000A221A70019B1B8801339AB2019B1A80D6
:109FE000019B1B881A46029B13449DF80F201A7090
:109FF000019B1B8801339AB2019B1A8000231846EB
:10A0000004B0704700B58DB0039001930B468DF8F6
:10A010000B3013468DF80A3000238DF82B300E9B41
:10A020001B88ADF8283000230B9372E0039B5A681D
:10A030000B9B9B001A4404AB106818600DF11701CC
:10A0400004AB00221846FFF7E9FD0890089B079330
:10A05000079B002B01D0079B7DE09DF817309DF8F2
:10A060000A209A4252D19DF82B30002B03D00023B6
:10A070008DF82A3002E002238DF82A300E9B1B88CF
:10A080001A469DF817301A449DF82A301A44BDF834
:10A090003C309A4201DD0C235DE09DF82B3083F0CB
:10A0A0000103DBB2002B16D00E9B1B8801339AB242
:10A0B0000E9B1A800E9B1B881A46019B13449DF829
:10A0C0000B201A700E9B1B8801339AB20E9B1A80CC
:10A0D00001238DF82B300E9B1B881A46019B1A44D6
:10A0E0000DF1170104AB1846FFF798FD0890089B87
:10A0F0000693069B002B01D0069B2CE00E9B1B8831
:10A100009DF8172013449AB20E9B1A800B9B0133C3
:10A110000B93039B1B881A460B9B934286DB9DF88F
:10A120002B30002B16D00E9B1A88BDF82830D31A7E
:10A130009BB2013BADF82630BDF82630FF2B01D98C
:10A140000C2308E0BDF82830019A1344BDF82620FE
:10A15000D2B21A70002318460DB000BD00B58BB006
:10A16000059003930B468DF8133013468DF812308B
:10A170009DF81310BDF8343001930C9B0093039BA2
:10A1800002220598FFF73EFF0990099B0893089B60
:10A19000002B01D0089B14E09DF81210BDF834305C
:10A1A00001930C9B0093039B10220598FFF72AFF55
:10A1B0000990099B0793079B002B01D0079B00E0A8
:10A1C000002318460BB000BD82B00190019B1B8894
:10A1D000052B0AD9019B1B88B3F5486F07D9019B52
:10A1E0001B884FF6FF72934201D0072325E0019BA5
:10A1F0005B88052B0AD9019B5B88B3F5486F07D9AB
:10A20000019B5B884FF6FF72934201D0072314E055
:10A21000019B1B884FF6FF7293420DD0019B5B8818
:10A220004FF6FF72934207D0019B1A88019B5B880F
:10A230009A4201D9072300E00023184602B0704774
:10A2400000B587B0039002910192ADF80230019BF6
:10A250001B889A1DBDF802309A4201D90C234BE0AD
:10A260000398FFF7B1FF0590059B0493049B002B17
:10A2700001D0049B40E0019B1B881A46029B1344BB
:10A2800005221A70019B1B8801339AB2019B1A8028
:10A29000019B1B881A46029B134412221A70019BD1
:10A2A0001B8801339AB2019B1A80039B1A88019B79
:10A2B0001B881946029B0B4419461046FFF7B2FC57
:10A2C00003461A46019B1B8813449AB2019B1A80CD
:10A2D000039B5A88019B1B881946029B0B44194615
:10A2E0001046FFF79FFC03461A46019B1B88134448
:10A2F0009AB2019B1A800023184607B000BD00B532
:10A3000087B0039002910192ADF80230039B9B88C5
:10A3100002330593019B1B881A46059B13449A1C24
:10A32000BDF802309A4201D90C2353E0059BFE2B65
:10A3300001D90C234EE0059BDAB2019B1B8819461C
:10A34000029B0B440132D2B21A70019B1B8801336D
:10A350009AB2019B1A80019B1B881A46029B1344E8
:10A36000FF221A70019B1B8801339AB2019B1A804D
:10A37000039B1A88019B1B881946029B0B441946B4
:10A380001046FFF74FFC03461A46019B1B881344F7
:10A390009AB2019B1A80039B9B88002B19D0039BC8
:10A3A0009B68002B01D1072314E0019B1B881A46F0
:10A3B000029B9818039B9968039B9B881A460CF094
:10A3C0009BF9019B1A88039B9B8813449AB2019BBB
:10A3D0001A800023184607B000BD00B589B003906D
:10A3E00002910192ADF80230039B9B6A002B01D1D0
:10A3F000072371E000238DF81F3065E0039B996A05
:10A400009DF81F2013465B0013449B000B440693EA
:10A41000069B9B8802330593059BFE2B01D90C23D9
:10A420005AE0059BDAB2019B1B881946029B0B443C
:10A430000132D2B21A70019B1B8801339AB2019B80
:10A440001A80019B1B881A46029B134416221A701D
:10A45000019B1B8801339AB2019B1A80069B1A88C4
:10A46000019B1B881946029B0B4419461046FFF7B7
:10A47000D9FB03461A46019B1B8813449AB2019BE1
:10A480001A80069B9B88002B19D0069B9B68002B8B
:10A4900001D1072320E0019B1B881A46029B9818D4
:10A4A000069B9968069B9B881A460CF025F9019B30
:10A4B0001A88069B9B8813449AB2019B1A809DF8C8
:10A4C0001F3001338DF81F30039B93F82C309DF81B
:10A4D0001F209A4292D30023184609B000BD00B550
:10A4E00095B005900491039200231393039B1B885E
:10A4F000ADF84A30039B00221A80059B93F82D305B
:10A50000002B0ED0BDF84A301A4603990498FFF785
:10A510009FFB1390139B1193119B002B01D0119B58
:10A52000D8E0059B9B78002B0ED0BDF84A301A4628
:10A5300003990498FFF79AFC1390139B1093109BB8
:10A54000002B01D0109BC5E0059BDB78002B10D0C1
:10A55000059BDB7858B2BDF84A30039A0499FFF79F
:10A56000D3FC1390139B0F930F9B002B01D00F9BD9
:10A57000B0E0059B5B68002B11D0059B5B6893F9ED
:10A580000000BDF84A30039A0499FFF7FCFC1390D1
:10A59000139B0E930E9B002B01D00E9B9AE0059B04
:10A5A0001B89002B14D0059B03F10800BDF84A302D
:10A5B0000193039B0093049B06220221FFF7CEFD2B
:10A5C0001390139B0D930D9B002B01D00D9B81E0ED
:10A5D000059B1B8A002B14D0059B03F11000BDF8CE
:10A5E0004A300193039B0093049B07220321FFF74A
:10A5F000B5FD1390139B0C930C9B002B01D00C9B6F
:10A6000068E0059B1B8B002B14D0059B03F1180001
:10A61000BDF84A300193039B0093049B152214213B
:10A62000FFF79CFD1390139B0B930B9B002B01D00A
:10A630000B9B4FE0059B1B6A002B0FD0059B186AF4
:10A64000BDF84A30039A0499FFF7FAFD1390139B63
:10A650000A930A9B002B01D00A9B3BE0059B5B6A97
:10A66000002B0FD0059B586ABDF84A30039A049915
:10A67000FFF745FE1390139B0993099B002B01D014
:10A68000099B27E0059B93F82C30002B0ED0BDF8DA
:10A690004A30039A04990598FFF79FFE1390139B85
:10A6A0000893089B002B01D0089B13E0059B1B78A7
:10A6B000002B0ED0BDF84A30039A04990598FFF795
:10A6C0002FFB1390139B0793079B002B01D0079B35
:10A6D00000E0139B184615B000BD86B003900192B0
:10A6E0001A460B46ADF80A3013468DF80930039B25
:10A6F000002B02D0019B002B01D100235CE0002342
:10A70000ADF816300CE0BDF81630039A13441B78F0
:10A710001A46BDF8163013449BB20133ADF816301B
:10A72000BDF816305A1CBDF80A309A420FDA019B68
:10A730001B88BDF816209A42E5D3BDF816300133C8
:10A74000039A13441B789DF809209A42DBD1BDF887
:10A750001620BDF80A309A4201D300232CE0BDF840
:10A7600016300233ADF81230BDF81630039A134498
:10A770001B78002B08D0BDF81630039A13441B78C1
:10A78000013BADF8143002E00023ADF81430BDF801
:10A790001430002B08D0BDF81220BDF814301A4434
:10A7A000BDF80A309A4201DD002305E0019BBDF8A7
:10A7B00012201A80BDF81430184606B0704700B554
:10A7C00085B001900B46ADF8023013468DF801308C
:10A7D0000023ADF80C309DF8013003AABDF802103B
:10A7E0000198FFF77AFF0346ADF80E30BDF80E3042
:10A7F000002B01D1002304E0BDF80C301A46019B68
:10A800001344184605B000BD72DF704700BF1846FC
:10A8100073DF704700BF184674DF704700BF1846EB
:10A8200082B00190019B93F83034184602B0704713
:10A8300084B00190002303930AE0019A039B134420
:10A840001B78002B01D0012306E0039B0133039307
:10A85000039B052BF1D90023184604B07047000074
:10A8600082B003468DF807309DF807305A1C074B1D
:10A8700083FB02135910D317C91A0B469B000B44D4
:10A88000D11ACBB2184602B0704700BF6766666641
:10A8900082B001900091009BDB7B012B04D1009BD7
:10A8A0009A88019BA3F8242400BF02B0704700B52A
:10A8B00085B001900091019B002283F82E24009B1B
:10A8C0009A88019BB3F824349A4216D1019B1B79D4
:10A8D00083F00103DBB2002B0FD00121019800F0BF
:10A8E000A1FA0390039B002B07D0019B9B6B002BCD
:10A8F00003D0019B9B6B0398984700BF05B000BD38
:10A9000000B585B001900091009B1B88262B1ED1BD
:10A91000009B1B7A012B03D0009B1B7A022B17D1C3
:10A92000019B9B781846FFF79BFF03461946019849
:10A9300000F078FA0390039B002B09D0019B9B6BDE
:10A94000002B05D0019B9B6B0398984700E000BF4C
:10A9500005B000BD00B585B001900B468DF8033001
:10A96000019B03F227431846FFF762FF03468DF869
:10A970000F309DF80330042B2CD0042B30DC032B3C
:10A9800022D0032B2CDC012B02D0022B12D027E08B
:10A99000019B9B79002B0DD0019B93F8243083F011
:10A9A0000103DBB2002B05D09DF80F30002B01D046
:10A9B000012316E0019BDB79002B05D09DF80F30B9
:10A9C000002B01D002230CE0019B1B7A002B01D04D
:10A9D000032306E0019B5B7A002B01D0042300E0F7
:10A9E0000023184605B000BD82B001900091019B84
:10A9F000012283F83120019B0022C3F82024019B0F
:10AA000003F22642009B5A60009B00229A60009B42
:10AA100002221A70009B80229A810023184602B0FD
:10AA2000704782B001900091019B022283F831208F
:10AA3000019B93F82430002B03D0009B07221A704F
:10AA400002E0009B03221A70019B1B699AB2009BD3
:10AA50009A81019B0022C3F82024019B03F2264225
:10AA6000009B5A60019BDA68009B9A60002318469D
:10AA700002B0704700B583B00190019B5B79002B59
:10AA80000FD0019B93F82E3483F00103DBB2002B2F
:10AA900007D00198FFF7C4FE0346002B01D0012325
:10AAA00000E0002303F00103DBB2184603B000BD51
:10AAB00000B585B001900B468DF80330019BD3F8AB
:10AAC0001004019BB3F8143401221946FFF777FEF6
:10AAD0000390039B002B03D0039B9DF803201A7067
:10AAE000019B03F15400019B03F58261019B3C3300
:10AAF0001A46FFF789FE0346184605B000BD00B5AB
:10AB000085B001900091019B5A69009B9A60019B5E
:10AB10009B699AB2009B9A81019B93F82430002B89
:10AB200004D0019B062283F83C2003E0019B012214
:10AB300083F83C200198FFF79DFF0346002B13D0BC
:10AB4000009B02221A7504210198FFF7B1FF0390C0
:10AB5000039B0293029B002B01D0029B0FE0019B01
:10AB6000052283F8312003E0019B032283F8312082
:10AB7000019B03F58262019BC3F820240023184641
:10AB800005B000BD00B585B001900091019BDA6968
:10AB9000009B9A60019B1B6A9AB2009B9A81019B61
:10ABA00093F82430002B04D0019B062283F83C202C
:10ABB00003E0019B012283F83C200198FFF75AFF34
:10ABC0000346002B13D0009B02221A750421019822
:10ABD000FFF76EFF0390039B0293029B002B01D0B3
:10ABE000029B0FE0019B062283F8312003E0019BCA
:10ABF000042283F83120019B03F58262019BC3F894
:10AC000020240023184605B000BD82B00190019BAE
:10AC10009B78002B06D0019B93F82030002B01D0AD
:10AC2000002300E00123184602B0704784B0019071
:10AC3000019B93F82430002B03D0EE23ADF80E30A7
:10AC400002E01F23ADF80E30BDF80E30184604B0F8
:10AC5000704782B001900B468DF80330019B9DF840
:10AC6000032083F8302000BF02B0704730B587B0B2
:10AC700001900091009B002B02D0019B002B01D181
:10AC80000E23B8E0009B78331846FFF7BEFF03465B
:10AC900083F00103DBB2002B01D00723ABE0019B63
:10ACA00000229A70019A009B141D03F178050FCDC4
:10ACB0000FC40FCD0FC495E8070084E80700019B7F
:10ACC000002283F83020009BD3F8A420019B5A6314
:10ACD000009BD3F8A820019B9A63019B4FF6FF725B
:10ACE000A3F82424019B03F58262019BC3F820246E
:10ACF000019B03F226430722002118460BF02EFD8C
:10AD0000019B1B7883F00103DBB2002B03D0019B76
:10AD1000FF2283F85420019B03F15502019BC3F8E5
:10AD200010240198FFF782FF03461A46019BA3F8FF
:10AD300014240098019B03F15501019B03F2144375
:10AD40001A46FFF7CCFB0590059B0493049B002B50
:10AD500001D0049B4FE0019B03F23122019BC3F819
:10AD600018240198FFF762FF03461A46019BA3F8D7
:10AD70001C24009B03F13C00019BD3F81814019B99
:10AD800003F21C431A46FFF7AAFB0590059B0393A9
:10AD9000039B002B01D0039B2DE0019B012283F834
:10ADA0005120019B9B699AB2019BA3F84820019B0B
:10ADB000012283F83C20019B00221A64019B00229F
:10ADC00083F85020019B5A69019B5A64019B03F14F
:10ADD0005400019B3C331A460021FFF715FD0590F6
:10ADE000059B0293029B002B01D0029B03E0019B79
:10ADF00001221A70059B184607B030BD82B0019041
:10AE0000019B1B68012B07D0019B1B68022B03D001
:10AE1000019B1B68042B01D1012300E0002318468D
:10AE200002B0704700B585B001900B468DF8033035
:10AE3000019B1B7883F00103DBB2002B01D00823B8
:10AE40000AE1019B9DF803209A70019B03F22643BF
:10AE50000722002118460BF081FC019B9B79002BF7
:10AE600003D0019B9B78012B0FD0019BDB79002B3A
:10AE700003D0019B9B78012B07D0019BDB79002B32
:10AE800014D0019B9B78022B10D1019B5B6B002B94
:10AE900008D0019B012283F82D24019B5B6B0820C5
:10AEA000984703E0019B002283F82D249DF803308E
:10AEB00019460198FFF74EFD03461A46019B9A700A
:10AEC000019B5B6B002B20D0019B9B78032B03D055
:10AED000019B9B78042B18D1019B5B79002B14D02C
:10AEE000019B93F82E3483F00103DBB2002B0CD0CE
:10AEF000019B002283F83024019B012283F82F2438
:10AF0000019B5B6B0720984703E0019B002283F8BD
:10AF10002F24019B3C331822002118460BF01EFC05
:10AF2000019B012283F83C20019B2C331846FFF73C
:10AF300065FF0346002B06D0019BDB6ADAB2019B5A
:10AF400083F8512003E0019B012283F85120019BEB
:10AF500093F82430002B12D0019B28331846FFF7BA
:10AF60004DFF0346002B06D0019B9B6ADAB2019B82
:10AF700083F8522003E0019B012283F85220019BB9
:10AF8000002283F85020019B9B78042B25D0042BB2
:10AF900030DC032B19D0032B2CDC022B0DD0022B21
:10AFA00028DC002B21D0012B24D1019B3C331946F6
:10AFB0000198FFF719FD03901DE0019B3C331946F2
:10AFC0000198FFF72EFD039015E0019B3C331946D5
:10AFD0000198FFF794FD03900DE0019B3C33194667
:10AFE0000198FFF7CFFD039005E0019B002283F855
:10AFF000312000E000BF019B9B78002B20D0019BFB
:10B0000003F15400019BD3F82014019B3C331A46F2
:10B01000FFF7FAFB0390039B002B01D0039B1BE07F
:10B02000019B93F85420019B93F830301946104649
:10B03000FFF7EEFB0390039B002B01D0039B0BE07B
:10B04000019B5B6B002B06D0019B5B6B019A92F816
:10B050003120104698470023184605B000BD00B5C2
:10B0600085B001900091009B0393019B1B88262BC8
:10B0700010D0262B13DC102B02D0112B05D00EE0A4
:10B0800001990398FFF704FC0AE001990398FFF780
:10B090000EFC05E001990398FFF732FC00E000BFC9
:10B0A00000BF05B000BD00B585B00190019B93F8CD
:10B0B00054301846FFF7B0FB019B012283F82E2481
:10B0C000019B002283F83024019B002283F850204A
:10B0D00006210198FFF7ECFC0390039B0293029B6F
:10B0E000002B01D0029B12E0019B9B78194601982E
:10B0F000FFF798FE0390039B002B07D0019B9B6BEF
:10B10000002B03D0019B9B6B0398984700231846A4
:10B1100005B000BD75DF704700BF184676DF704789
:10B1200000BF18467ADF704700BF18467BDF7047C4
:10B1300000BF184684B00346ADF8063000230393E1
:10B1400016E00F49039A13469B0013449B000B44DF
:10B150001B88BDF806209A4207D1039A13469B002C
:10B1600013449B00064A134406E0039B01330393F8
:10B17000039B002BE5D00023184604B0704700BFA6
:10B180001834002082B001900B46ADF80230019BCC
:10B19000BDF802201A80019B00221A72019B05490A
:10B1A00003F10A020B4603CB1060516000BF02B0EE
:10B1B000704700BF4834002082B00190019B4FF6D9
:10B1C000FF721A8000BF02B0704788B003900291EE
:10B1D00011461A460B46ADF806301346ADF804305A
:10B1E000039B9B881A46BDF8063013440793039BC4
:10B1F0009B881946039B9B88BDF80620934228BF75
:10B2000013469BB2CB1A0693039BDB881A46BDF804
:10B21000043013440593039BDB881946039BDB88AA
:10B22000BDF80420934228BF13469BB2CB1A049367
:10B23000029B5A88039B1B889A4205D3029B5A881B
:10B24000039B5B889A4201D900231CE0029B9B88E8
:10B250001A46069B934205D8029B9B881A46079B79
:10B26000934201D200230EE0029BDB881A46049B26
:10B27000934205D8029BDB881A46059B934201D274
:10B28000002300E00123184608B0704700B583B0E2
:10B290000190054B9B69002B03D0034B9B690198E0
:10B2A000984700BF03B000BD2C34002000B585B026
:10B2B00003460091ADF80630BDF8063000991846F7
:10B2C000FFF728FF0390039B002B05D0039B112B56
:10B2D00002D00398FFF7DAFF039B002B0CBF01237A
:10B2E0000023DBB2184605B000BD000000B589B0F0
:10B2F0000190019B0793079B9BB21846FFF71AFF2B
:10B300000690069B002B42D0069B1A7A214B1B7B92
:10B310009A4215D2079B9AB2069B0A3319461046E9
:10B32000FFF7C4FF03468DF813309DF81330002B50
:10B330002DD0069B1B7A0133DAB2069B1A7226E0E7
:10B34000069B00221A72134B1B7C002B0FD0079B0D
:10B350009BB23B211846FFF7E1FE0590059B002BB1
:10B3600005D0059B082B02D00598FFF78FFF094BEE
:10B370005B69002B0BD000238DF80C30079B9BB230
:10B38000ADF80E30034B5B6903AA1046984700BF27
:10B3900009B000BD2C34002030B587B00190019B6E
:10B3A000002B01D10E2353E02B4A019B14461D466E
:10B3B0000FCD0FC495E8070084E80700264B274A05
:10B3C0001A60019B1B68002B11D0019B1B6818465B
:10B3D000FFF7A8FE0490049B002B01D0049B37E0EC
:10B3E000019B1A681D4B1068516803C308E01B4895
:10B3F000FFF79CFE0490049B002B01D0049B27E0E8
:10B400000023059320E0059A13469B0013449B00FC
:10B41000134A134403930398FFF7CEFE059B5B0189
:10B42000104A1A44039B5A60039B04330E4A0021BE
:10B43000184606F019FD0490049B002B01D003234D
:10B4400006E0059B01330593059B002BDBD0002311
:10B45000184607B030BD00BF2C340020483400200F
:10B4600018340020F8330020EDB2020000B587B098
:10B4700003460091ADF80630009B5B7A002B1AD191
:10B48000009B1B7A002B03D1164B5B68059302E0EF
:10B49000144B9B680593009B5B68BDF806200599DB
:10B4A000184606F01BFD0490049B002B16D0049850
:10B4B000FFF7ECFE12E0009B00221A72094B5B6959
:10B4C000002B0BD001238DF80C30BDF80630ADF801
:10B4D0000E30044B5B6903AA1046984700BF07B0C3
:10B4E00000BD00BF2C34002000B585B00190019B49
:10B4F000DB7B8DF80F30019B9B88ADF80C309DF8FD
:10B500000F30012B2CD14FF6FF70FFF713FE029086
:10B51000029B002B03D10420FFF7B8FE21E0BDF809
:10B520000C3019460298FFF72DFE029B03F10A002A
:10B53000019B03F110014FF6FF7340F2F312FFF786
:10B5400044FE03461A46029B5A72074BDB89002BC6
:10B5500007D1BDF80C3002991846FFF787FF00E0CD
:10B5600000BF05B000BD00BF2C34002000B587B07F
:10B570000190019B9B88ADF81630BDF81630184637
:10B58000FFF7D8FD0490049B002B0ED0049B5B6852
:10B59000184606F0FBFC0390039B002B02D0039897
:10B5A000FFF774FE0498FFF707FE00BF07B000BD69
:10B5B00000B587B00190019B06330593059B1A885F
:10B5C000194BDB899A422BD1059B5B89022B27D132
:10B5D000019B9B88ADF81230BDF812301846FFF77A
:10B5E000A9FD0390039B002B1AD0059B0C33184632
:10B5F00000F059FA0346002B06D0BDF8123003992B
:10B600001846FFF733FF0BE0039B5B68184606F014
:10B61000BDFC0290029B002B02D00298FFF736FE81
:10B6200000BF07B000BD00BF2C34002000B585B0BE
:10B630000190019B9B88ADF80E30BDF80E30184686
:10B64000FFF778FD0290029B002B15D0029B03F1BF
:10B650000A00019B03F108014FF6FF7340F2F31259
:10B66000FFF7B3FD03461A46029B5A72BDF80E302F
:10B6700002991846FFF7FAFE00BF05B000BD00B5FD
:10B6800083B001900091019B1B88502B12D0502B4E
:10B6900018DC122B12D0122B14DC102B02D0112B21
:10B6A00004D00FE00198FFF71FFF0CE00198FFF7AF
:10B6B0005DFF08E00198FFF77BFF04E00198FFF7CA
:10B6C000B5FF00E000BF00BF03B000BD30B58FB0D4
:10B6D0000190009100230293009B002B1AD00023BD
:10B6E0000D9314E06B460D99184607F07CFC034659
:10B6F000002B09D0029B5A1C02920D9A92B25B0059
:10B7000038336B4423F82C2C0D9B01330D930D9B88
:10B71000132BE7D9019B1D4602AC0FCC0FC50FCCF4
:10B720000FC594E8070085E8070001980FB030BD09
:10B7300000B583B00346ADF80630BDF80630132BD4
:10B7400001D900230CE0BDF806301946064807F081
:10B750001BFCBDF806301946044807F015FC012310
:10B76000184603B000BD00BF5834002054340020F8
:10B7700000B585B00346ADF80630002303930DE015
:10B78000039B9B00094A13440433BDF8062011466D
:10B79000184607F010FC039B01330393039B1D2BFA
:10B7A000EED900BF00BF05B000BD00BF503400207F
:10B7B00000B583B00346ADF80630BDF80630194633
:10B7C000024807F0F8FB00BF03B000BD583400206A
:10B7D00030B59BB0184B9B68DB431893164B5A68E7
:10B7E00018AB1146184607F058FC189A6B461146DC
:10B7F0001846FFF76BFF0DAC6D460FCD0FC40FCD94
:10B800000FC495E8070084E80700002319930BE0B4
:10B81000199B5B0068336B4433F8303C1846FFF7E4
:10B82000A7FF199B013319930D9B199A9A42EFD3E5
:10B8300000BF00BF1BB030BD5034002000B583B046
:10B8400001900B46ADF8023013468DF801309DF89B
:10B850000130002B06D0BDF802301946019807F0E0
:10B8600093FB05E0BDF802301946019807F0A3FBF1
:10B8700000BF03B000BD000000B585B0019000918D
:10B88000019B9B88ADF80E30019B1B881A2B2ED094
:10B890001A2B71DC192B59D0192B6DDC102B02D00F
:10B8A000112B1ED068E0FFF793FFBDF80E3018464D
:10B8B000FFF73EFF034683F00103DBB2002B05D008
:10B8C0002F4AF021042005F049FE52E0019BDB7B6A
:10B8D000022B4ED1BDF80E3019462A4807F054FB12
:10B8E00047E0BDF80E301846FFF762FF44E0019BC9
:10B8F0001B7AC3F30313DBB28DF80D309DF80D30C6
:10B90000032B8CBF01230023DAB2BDF80E30194699
:10B910001D48FFF793FF9DF80D30022B8CBF0123CC
:10B920000023DAB2BDF80E3019461848FFF786FF3B
:10B930009DF80D30012B8CBF01230023DAB2BDF836
:10B940000E3019461248FFF779FF15E0019B1B7A6C
:10B95000002B10D1019B5B7AC3F3C0038DF80C3030
:10B960009DF80C20BDF80E3019460748FFF766FF1A
:10B9700001E000BF00E000BF00BF05B000BD00BF98
:10B98000346D03005C3400206834002064340020EF
:10B990006034002000B583B00346ADF80630BDF832
:10B9A0000630132B01D9002306E0BDF806301946F6
:10B9B000034807F018FB0346184603B000BD00BF5C
:10B9C0005434002000B583B00346ADF80630BDF80E
:10B9D00006301846FFF7DEFF0346002B02D0BDF805
:10B9E000063000E01423184603B000BD00B587B050
:10B9F00003900B460192ADF80A30019B002B01D158
:10BA00000E2338E0019B00221A60039B002B01D11A
:10BA10000E2330E0039B1B68002B01D10E232AE08C
:10BA2000039BDB8803F003039BB2002B01D00723A9
:10BA300021E0BDF80A301846FFF7C4FF03468DF831
:10BA400017309DF81730142B01D1052313E0039B09
:10BA50001B799DF817209A4201D304230BE0039B26
:10BA60001B689DF817200399C98801FB02F21A444C
:10BA7000019B1A600023184607B000BD82B00190F8
:10BA8000019B1B781AB2019B01331B781BB21B026E
:10BA90001BB213431BB29BB2184602B07047AADF19
:10BAA000704700BF184600B585B001900198FFF7B8
:10BAB000E5FF0346ADF80E30BDF80E3003F001038C
:10BAC000DBB2184605B000BD82B0034600918DF888
:10BAD0000730009A137823F00F031370009A13783D
:10BAE00023F0F00313709DF80730052B51D0052B80
:10BAF0005DDC042B40D0042B59DC032B2FD0032B0F
:10BB000055DC022B1ED0022B51DC002B02D0012B66
:10BB10000BD04CE0009A137823F00F031370009AB7
:10BB2000137823F0F003137040E0009A137801219A
:10BB300061F303031370009A1378012161F3071373
:10BB4000137033E0009A1378012161F3030313703B
:10BB5000009A1378022161F30713137026E0009A0C
:10BB60001378012161F303031370009A1378032102
:10BB700061F30713137019E0009A1378022161F33F
:10BB800003031370009A1378012161F307131370F4
:10BB90000CE0009A1378022161F303031370009AFA
:10BBA0001378022161F30713137000BF00BF00BFB9
:10BBB00002B0704700B595B0034602910192ADF80E
:10BBC0000E30029B9B78002B03D101238DF81E3091
:10BBD00003E0029B9B788DF81E30029B1B88ADF81A
:10BBE0001C3006AB0322002118460AF0B7FD029B69
:10BBF0005B7C06AA11461846FFF766FF029B9A7CFB
:10BC000006AB013319461046FFF75EFF029BDA7B55
:10BC10009DF81A3062F3C3038DF81A30029B1A7C28
:10BC20009DF81A3062F304138DF81A30029B1A7BC8
:10BC30009DF81A3062F300038DF81A30029B1B7DC9
:10BC4000002B01D0022200E001229DF81A3062F39D
:10BC500042038DF81A300DAB1C22002118460AF061
:10BC60007DFD029B5B7B03F01003DBB2002B06D152
:10BC7000029B5B7B03F02003DBB2002B24D004ABE0
:10BC80000322002118460AF069FD029BDA7C04AB0E
:10BC9000013319461046FFF717FF9DF810300122B7
:10BCA00062F303038DF810309DF81030012262F327
:10BCB00007138DF810309DF81230012262F3420311
:10BCC0008DF8123004AB1293029B5B7B8DF83430FD
:10BCD000029B9B7B8DF8353008AB1422002118465F
:10BCE0000AF03CFD07AB089306AB0993029B9B88C7
:10BCF000ADF82C30029B9B68002B06D0029BDB88A2
:10BD0000ADF82830029B9B680C93029B9B69002B2B
:10BD10004FD005AB0322002118460AF01FFD029BFD
:10BD20009B691B88ADF83C30029B9B695B88ADF832
:10BD30003E30029B9B695B680E9305AB1193029B9F
:10BD40009B691B7B05AA11461846FFF7BDFE029BA7
:10BD50009B695A7B05AB013319461046FFF7B4FEC9
:10BD6000029B9B699A7A9DF8163062F3C3038DF8A3
:10BD70001630029B9B69DA7A9DF8163062F3041341
:10BD80008DF81630029B9B691A7A9DF8163062F383
:10BD900000038DF81630029B9B699B7B002B01D022
:10BDA000022200E001229DF8163062F342038DF872
:10BDB0001630029BDB69002B02D0029BDB691093DB
:10BDC00008AA0DA9BDF80E00019BFFF768FE034607
:10BDD000184615B000BD90DF704700BF1846A5DFBC
:10BDE000704700BF1846B5DF704700BF184682B0E5
:10BDF0000190019BF7221A80019B17225A80019B18
:10BE000000221A71019B00225A71019BFB229A7138
:10BE1000019B1B22DA7100BF02B0704730B589B0B8
:10BE200003460A46ADF806301346ADF80430BDF8B7
:10BE30000430ADF81430BDF80430ADF816300023EE
:10BE4000ADF818300023ADF81A3003AB00221A60A9
:10BE50009A8003AA05A9BDF806301846FFF7BBFF74
:10BE60000790079B002B39D01E4A1F4BD31ADB08C3
:10BE70001B0443F00104BDF80650079808F048F988
:10BE800003462A461949204608F001FEBDF80C3049
:10BE9000002B03D1BDF80E30002B0ED0114A124BEF
:10BEA000D31ADB081B0443F00100BDF80C301A461E
:10BEB000BDF80E300E4908F0EAFDBDF81030002B39
:10BEC0000CD0084A084BD31ADB081B0443F00103CB
:10BED000BDF810200749184608F0C9FD079B184611
:10BEE00009B030BD6069030000690300946D030070
:10BEF000E06D0300206E030010B586B00190009144
:10BF0000009B9B88ADF80E30BDF80E30DB00019A27
:10BF1000134406330593019B1A79059B9A71009B84
:10BF2000DB7B012B02D0022B05D009E0019B1A8894
:10BF3000059B1A8004E0019B5A88059B1A8000BF6C
:10BF4000059B1A88059B5B889A4226D9059B1A880F
:10BF5000BDF80E3011461846FFF741FF0490049BD0
:10BF6000002B03D1059B01225A7116E0049B112B73
:10BF700003D1059B01221A710FE0114A114BD31A0C
:10BF8000DB081B0443F00104049808F0C1F80346E1
:10BF90001A460D49204608F06AFD059B9A79059BD3
:10BFA000DB799A4208D9059B9B791A46BDF80E3079
:10BFB00011461846FFF732FF00BF06B010BD00BFA4
:10BFC0006069030000690300786E030000B583B068
:10BFD00001900091009B9B88DB00019A134406337B
:10BFE0001846FFF704FF00BF03B000BD00B587B0DF
:10BFF00001900091009B9B88ADF81630009B5B89F7
:10C00000ADF81430BDF81630DB00019A1344063346
:10C010000493049B1B88BDF81420934228BF134649
:10C020009AB2049B5A80049B5B88172B38BF172356
:10C030009AB2049B5A80019B1B69002B15D0049B6C
:10C040005B79002B11D040F67723ADF80830BDF8AE
:10C050001630ADF80A30049B5B88ADF80C30019BBC
:10C060001B6902AA114601989847049B00225A7145
:10C07000049B00221A7100BF07B000BD10B588B044
:10C0800001900091009B9B88ADF81A30009BDB88E3
:10C09000ADF81830BDF81A30DB00019A13440633AE
:10C0A0000593BDF81830172B38BF1723ADF818309B
:10C0B000059B1B88BDF81820934228BF13469AB2EF
:10C0C000059B5A80059B00221A71059B1A88BDF8B2
:10C0D0001A3011461846FFF786FE0790079B002B83
:10C0E0000FD0174A174BD31ADB081B0443F0010487
:10C0F000079808F00DF803461A461349204608F041
:10C10000B6FC059B5B79002B16D1019B1B69002BAC
:10C1100013D040F67723ADF80C30BDF81A30ADF8E7
:10C120000E30059B5B88ADF81030019B1B6903AA9C
:10C1300011460198984700E000BF08B010BD00BF4D
:10C140006069030000690300AC6E030030B591B074
:10C1500001900091009B04AC1D1D0FCD0FC40FCDAD
:10C160000FC495E8070084E80700BDF81030ADF86B
:10C170003E30BDF81420BDF83E30D1B2019ADB004C
:10C1800013440A465A73019B1B69002B15D04DF6C8
:10C190007A23ADF80830BDF83E30ADF80A30BDF86E
:10C1A0003E30019ADB0013445B7B8DF80C30019B21
:10C1B0001B6902AA11460198984700BF11B030BD13
:10C1C00000B587B001900091009B04330593059B57
:10C1D0001B88DB00019A134406330493059B9B885C
:10C1E0008DF80F30049B9B799DF80F20934228BF58
:10C1F00013468DF80E30059B1B889DF80E2092B2D9
:10C2000011461846FFF70AFE00BF07B000BD00B593
:10C2100085B001900091019B002B01D10E231DE000
:10C22000019B009A1A61019BF7221A80019BF72259
:10C230005A80019BFB221A71002303930AE0039B9F
:10C24000DB00019A134406331846FFF7D0FD039B29
:10C2500001330393039B002BF1D00023184605B054
:10C2600000BD82B001900B46ADF80230019B002B5F
:10C2700001D10E230EE0BDF80230162B03D9BDF814
:10C280000230F72B01D9072304E0019BBDF80220FF
:10C290001A800023184602B07047000010B586B01F
:10C2A00001900091009B0593019B9B88ADF8123093
:10C2B000BDF81230002B70D1019B1B88552B21D06B
:10C2C000552B2EDC3A2B18D03A2B2ADC242B1ED0EF
:10C2D000242B26DC232B1FD0232B22DC102B02D077
:10C2E000112B05D01DE001990598FFF705FE19E017
:10C2F00001990598FFF76AFE14E001990598FFF788
:10C3000075FE0FE001990598FFF7B8FE0AE0019964
:10C310000598FFF71BFF05E001990598FFF750FF0F
:10C3200000E000BFBDF81230059ADB0013449B7A91
:10C33000002B33D0BDF81230059ADB001344DA88A5
:10C34000BDF8123011461846FFF749FD0390039BD4
:10C35000002B0ED1BDF81230059ADB0013440022E9
:10C360009A72BDF81230059ADB0013440122DA728A
:10C3700014E0039B112B11D0094A0A4BD31ADB0896
:10C380001B0443F00104039807F0C2FE03461A465B
:10C390000549204608F06BFB00E000BF06B010BD69
:10C3A0006069030000690300786E0300B0DF704726
:10C3B00000BF184666DF704700BF184682B0019084
:10C3C0000091019B002B01D10E2316E0009B002B56
:10C3D00001D10E2311E0019B1B78DE2B01D1082334
:10C3E0000BE0009B1A68019B5A60019BDE221A70C9
:10C3F000019B4FF6FF725A800023184602B0704727
:10C4000082B001900B46ADF80230019B002B01D1A8
:10C410000E230AE0019B1B78DE2B01D0082304E0E9
:10C42000019BBDF802205A800023184602B07047D5
:10C4300000B585B00190019B1B7A002B18D0019BA1
:10C440005B8800211846FFF7B5FF0390039B002B84
:10C4500003D1019B00221A720AE0039B112B03D126
:10C46000019B01221A7203E0019B5B6803989847C5
:10C4700000BF05B000BD00B583B001900091009BE6
:10C480001B79012B0BD1009B1A88019B5B889A4278
:10C4900005D1019B01221A720198FFF7C9FF00BF65
:10C4A00003B000BD82B00190009100BF02B07047A0
:10C4B00000B589B001900091009B1A88019B5B88B0
:10C4C0009A4236D1009B02330793079B1B78022BBD
:10C4D00031D1079B1B7A042B07D0079B1B7A062BB5
:10C4E00003D0079B1B7A052B27D102AB00221A60D1
:10C4F0005A609A60DA6002238DF808304FF4C073F6
:10C50000ADF80C30079B1B7A052B02D10023ADF848
:10C510000C30009B1B8802AA11461846FFF746FF05
:10C520000690069B002B09D0019B5B6806989847F4
:10C5300004E000BF02E000BF00E000BF09B000BDA2
:10C5400000B585B001900091009B002B43D0019B6A
:10C55000002B40D0009B0393039B1B78DE2B3AD12A
:10C56000019B9A88039B5B889A4202D10398FFF74C
:10C570005FFF019B1B88512B18D0512B28DC112BFE
:10C580001BD0112B24DC012B02D0022B07D01FE083
:10C59000019B043319460398FFF76DFF1BE0019BD5
:10C5A000043319460398FFF77DFF14E0019B043321
:10C5B00019460398FFF77CFF0DE0019B9A88039BC7
:10C5C0005B889A4206D1039B4FF6FF725A8001E0C6
:10C5D00000BF00E000BF05B000BDA8DF704700BF8E
:10C5E0001846ADDF704700BF1846AEDF704700BF8A
:10C5F000184662DF704700BF184600B58FB0019043
:10C60000009100230393019B5869009B9B8803AA18
:10C610001946FFF7EBF90D9005AB082200211846EB
:10C620000AF09CF804AB06930223ADF81430002303
:10C63000ADF81630009B9888019B1B8905AA194606
:10C64000FFF7CFFF0D900D9B002B26D1019B9B691F
:10C65000002B22D0069B1846FFF725FA0346002B35
:10C660001BD0039B002B02D0039B01221A7007AB47
:10C670001822002118460AF071F802238DF81C30A8
:10C68000019B0893009B9B88ADF82430039B0A9381
:10C69000019B9B6907AA1046984700BF0FB000BDD9
:10C6A00000B58DB001900091009B06330B93019B68
:10C6B0005869009B9B8803AA1946FFF797F90A90CF
:10C6C00004AB1822002118460AF048F8019B059394
:10C6D000009B9B88ADF81830039B07930B9B1A882F
:10C6E000019B1B899A4225D10B9B5B89022B21D18F
:10C6F000039B002B38D00B9B0C331846FFF7D3F964
:10C700000346002B06D0039B01221A7002238DF8EA
:10C71000103005E0039B00221A7003238DF81030BF
:10C72000019B9B69002B1FD0019B9B6904AA1046AB
:10C73000984719E00B9B1A88019B9B899A4214D158
:10C74000019B9B69002B10D000238DF810300B9BB0
:10C750000C3308930B9B5B89ADF82430019B9B69DC
:10C7600004AA1046984700E000BF00BF0DB000BD0E
:10C7700000B58BB001900091019B5869009B9B888C
:10C7800002AA1946FFF732F90990099B002B1ED126
:10C79000029B1B78002B1BD0019B9B69002B17D0A1
:10C7A00003AB18220021184609F0D8FF01238DF8A9
:10C7B0000C30019B0493009B9B88ADF81430029BC6
:10C7C0000693019B9B6903AA1046984700E000BFAF
:10C7D0000BB000BD00B585B001900091009B002B0F
:10C7E0001ED0019B002B1BD0009B0393019B1B8839
:10C7F000572B10D0572B15DC102B02D0502B05D007
:10C8000010E001990398FFF7F8FE0CE001990398F6
:10C81000FFF746FF07E001990398FFF7A9FF02E041
:10C8200000BF00E000BF05B000BD000010B592B031
:10C83000019000914F4B0AAC0FCB84E80F00019B95
:10C84000002B01D10E2391E0009B002B01D10E2380
:10C850008CE0009B1A68019B9A61019A0AAB114611
:10C860001846FFF7C6FE1190119B1093109B002BEA
:10C8700001D0109B7AE0019B1B788DF83A300123A0
:10C88000ADF83830019B9A1C0EAB19460120FFF71A
:10C89000A4FE1190119B0F930F9B002B01D00F9BB7
:10C8A00064E002AB20220021184609F057FF022362
:10C8B000ADF80830019B1B788DF80A30F423ADF8F1
:10C8C0000C300123ADF80E3001238DF814309DF8A3
:10C8D000153043F008038DF815309DF8153043F0FE
:10C8E00004038DF8153001238DF8193001238DF8DC
:10C8F0001A30019B5888019B03F10C0202AB1946C8
:10C90000FFF758F91190119B002B01D0119B2DE0DE
:10C9100002AB20220021184609F020FF0323ADF8C6
:10C920000830019B1B788DF80A30F423ADF80C30E9
:10C930000123ADF80E3001238DF814309DF8153029
:10C9400043F010038DF8153001238DF819300123C1
:10C950008DF81A3001238DF81B30019B5888019BFC
:10C960001A1D02AB1946FFF725F90346184612B007
:10C9700010BD00BFE46E030000B58DB003900291BE
:10C980000192ADF80230039B002B01D10E2342E04F
:10C99000039B5B6905AABDF802101846FFF726F84D
:10C9A0000B900B9B0A930A9B002B01D00A9B32E051
:10C9B000BDF802304FF6FF72934202D0059B002B68
:10C9C00001D1052327E0059B1B7883F00103DBB22F
:10C9D000002B01D008231EE0019B1B88F42B01D9FA
:10C9E000072318E006AB10220021184609F0B6FE16
:10C9F000039B9B88ADF81830029B0993019B089319
:10CA000001238DF81A3006AABDF8023011461846E7
:10CA1000FFF7EBFD034618460DB000BD82B003469C
:10CA20008DF807309DF90730002B13DB9DF8073098
:10CA300003F01F0209499DF907305B09012000FA44
:10CA400002F2203341F82320BFF34F8F00BFBFF322
:10CA50006F8F00BF00BF02B0704700BF00E100E071
:10CA6000044BD3F80034002B14BF01230023DBB2A6
:10CA7000184670470000014008B508F083FF0346E0
:10CA800083F00103DBB2002B03D109497B20FAF7C5
:10CA90002BFDFFF7E5FF034683F00103DBB2002B1C
:10CAA00004D000F073FF034B00229A7000BF08BD52
:10CAB000FC6E0300CC34002000B583B0002301934A
:10CAC000174B1B78002B02D0852301931CE0144BDD
:10CAD00000229A60124B00225A60114B00221A6108
