:020000022000DC
:1070000000000420197202000172020003720200E3
:1070100005720200077202000972020000000000FF
:107020000000000000000000000000000B720200E1
:107030000D720200000000000F72020011720200C7
:1070400001BF02001372020045CD020079BA0200AE
:1070500013720200137202003DCC02001372020090
:107060001372020013720200137202001372020004
:1070700013720200137202001372020013720200F4
:1070800013720200BD0003001372020013720200AB
:107090001372020013720200F52D03001372020036
:1070A00013720200137202001372020013720200C4
:1070B00013720200137202000000000000000000C2
:1070C00013720200137202001372020013720200A4
:1070D0001372020013720200137202001372020094
:1070E000137202001372020013720200000000000B
:1070F0000000000013720200000000001372020082
:10710000000000000000000000000000000000007F
:10711000000000000000000000000000000000006F
:10712000000000000000000000000000000000005F
:10713000000000000000000000000000000000004F
:10714000000000000000000000000000000000003F
:10715000000000000000000000000000000000002F
:10716000000000000000000000000000000000001F
:10717000000000000000000000000000000000000F
:1071800000000000000000000000000000000000FF
:1071900000000000000000000000000000000000EF
:1071A00000000000000000000000000000000000DF
:1071B00000000000000000000000000000000000CF
:1071C00000000000000000000000000000000000BF
:1071D00000000000000000000000000000000000AF
:1071E000000000000000000000000000000000009F
:1071F000000000000000000000000000000000008F
:10720000FEE7FEE7FEE7FEE7FEE7FEE7FEE7FEE756
:10721000FEE7FEE700F002B8FFF7FCBF0F484FF0B3
:107220000701884385460E4880470E48016841F4AF
:1072300070010160BFF34F8FBFF36F8F00F01AB87A
:1072400009480A490A4A884207D0521A05D00378E9
:1072500001300B700131013AF9D170470000042070
:107260001187020088ED00E0E83F030000230020C2
:107270000023002039493A480A1A02D007229143D4
:107280008D46384938480A1A06D00722914381F3BF
:107290000988022282F3148834483549354A00F0BF
:1072A0003EF835483549364A00F039F83548364910
:1072B000364A00F034F836483649374A00F02FF89D
:1072C00036483749374A00F02AF837483749384AAC
:1072D00000F025F837483849384A00F020F8384897
:1072E0003849002200F033F837483849002200F0CE
:1072F0002EF837483749091A0CF0DEFC364A904719
:1073000024482549884205D00268043003B49047D8
:1073100003BCF7E700200021304A9047FEE788428F
:1073200014D0521A12D003460B43134303242342B2
:1073300006D1036804300B600431043AF9D1704778
:10734000037801300B700131013AF9D1704788425E
:1073500002D002700130FAE77047000000000420FC
:1073600000E0032000000420000004208C5D0300E6
:1073700000230020C0230020E0730200E07302001D
:10738000F43E03008C5D0300002300200023002056
:10739000E83F0300E83F0300E83F0300E83F030045
:1073A000E83F0300E83F0300E83F0300E83F030035
:1073B000895D03004C5E0300C0230020C023002031
:1073C000C0230020A82F0020A82F0020A82F0020D5
:1073D000A82F0020A84F002041720200457C020027
:1073E000BFF34F8F00BF064BDB6803F4E062044934
:1073F000044B1343CB60BFF34F8F00BF00BFFDE7CB
:1074000000ED00E00400FA0572DF704700BF184687
:1074100073DF704700BF184676DF704700BF18461D
:107420007ADF704700BF18467CDF704700BF184600
:107430007FDF704700BF18468FDF704700BF1846D8
:10744000B1DF704700BF184600B583B00346009116
:10745000ADF80630BDF80630009A1946024807F02C
:10746000E1FC00BF03B000BDEFBEADDE08B50120FA
:1074700000F0D6FD00BF08BD00B583B008F076F877
:107480000190019B0093009B002B04D0034AAE2186
:10749000009807F0C7FC00BF03B000BDE83F030041
:1074A00000B587B09DF80030012262F303038DF828
:1074B00000309DF80030012262F307138DF8003090
:1074C0006B46092219491846FFF7AEFF0590059B48
:1074D0000493049B002B04D0154AC221049807F0A2
:1074E000A1FC01AB0822002118460CF05FFC5023E0
:1074F000ADF80430A023ADF806300023ADF8083015
:107500004FF4C873ADF80A3001AB1846FFF788FF97
:107510000590059B0393039B002B04D0044ACC21C8
:10752000039807F07FFC00BF07B000BD3C4003009C
:10753000E83F030000B583B00021084802F071FF66
:107540000190019B0093009B002B04D0044AD5219D
:10755000009807F067FC00BF03B000BDD8230020EF
:10756000E83F030000B5ABB041F22353ADF81C3047
:10757000364B9B7C8DF81E3017AB3C220021184601
:107580000CF014FC02238DF85C3001238DF85E3082
:1075900006238DF85F3008AB3C22002118460CF022
:1075A00005FC0123ADF8303007AB0D93284B19686B
:1075B00017AB284A184601F02CFE2990299B2893E6
:1075C000289B002B04D0244AF321289807F02AFC9A
:1075D0001F4B996808AB214A184601F01AFE299002
:1075E000299B2793279B002B04D01B4AF621279821
:1075F00007F018FC01AB1822002118460CF0D6FB4E
:1076000001238DF819300023ADF8103001238DF8D7
:1076100004300023029300238DF818304023039395
:1076200001AB1A460A490E48FFF7EEFE2990299B46
:107630002693269B002B05D0074A40F20511269879
:1076400007F0F0FB00BF2BB000BD00BFC02300203F
:107650000423002008230020E83F0300102300201B
:107660000223002000B583B00190044A4FF48971D1
:10767000019807F0D7FB00BF03B000BDE83F03004F
:1076800000B583B003460091ADF8063013468DF87F
:1076900005309DF80530002B0ED0022000F046FC8E
:1076A0000E4A0F4BD31ADB081B0443F003030D49AA
:1076B00018460AF0F5FB0DE0022000F051FC074AE5
:1076C000074BD31ADB081B0443F003030649184693
:1076D0000AF0E6FB00BF03B000BD00BF803F03001F
:1076E000583F0300484003005C40030000B587B0EA
:1076F0000023029300230193144B019301AB19461D
:10770000134802F049FF0590059B0493049B002B4E
:1077100005D0104A4FF49B71049807F083FB0E4B81
:10772000029302AB19460D4803F084F80590059BBF
:107730000393039B002B05D0064A4FF49E710398D8
:1077400007F070FB00BF07B000BD00BF6576020008
:10775000EC230020E83F030081760200C0230020D4
:1077600000B585B00190019B1B78002B11D10A4B0D
:107770001B883B211846FFF74FFE0390039B0293A3
:10778000029B002B05D0054A4FF4A971029807F01F
:1077900049FB00BF05B000BD00230020E83F030007
:1077A00000B583B00190044A40F25D11019807F0E2
:1077B00039FB00BF03B000BDE83F030000B58BB04C
:1077C00001AB1C22002118460CF0F0FA00230193B3
:1077D0004FF4A02302934FF4A033039303238DF8B7
:1077E00010300023ADF8123000238DF814300B4B0D
:1077F00006930B4B079301AB184601F04BFF099022
:10780000099B0893089B002B05D0064A4FF4BA71D8
:10781000089807F007FB00BF0BB000BD61770200BE
:10782000A1770200E83F030000B583B00B4B1B7843
:1078300001211846FFF7ECFD0190019B0093009B8E
:10784000002B05D0064A40F27F11009807F0EAFAB3
:10785000002000F06BFB00BF03B000BD022300203E
:10786000E83F030000B58DB001900091019B1B889B
:10787000562B00F0CD80562B00F3DD80522B00F00C
:10788000A080522B00F3D7803B2B00F0AE803B2B27
:1078900000F3D180212B7AD0212B00F3CC80132B45
:1078A00061D0132B00F3C780102B02D0112B37D0DF
:1078B000C1E0694A694BD31ADB081B0443F0030398
:1078C000674918460AF0ECFA012000F02FFB00206F
:1078D00000F046FB019B9A88624B1A80614B1B8823
:1078E0001946614802F07AFE0B900B9B0493049BAF
:1078F000002B05D05D4A4FF4D071049807F092FA3E
:1079000007F0D2F90B900B9B0393039B002B00F025
:107910009480564A4FF4D171039807F083FA8CE0B3
:107920004D4A4E4BD31ADB081B0443F00303504966
:1079300018460AF0B5FA012000F012FB494B4FF649
:10794000FF721A8007F0DCF90B900B9B0593059BE7
:10795000002B05D0454A4FF4D571059807F062FA1F
:10796000FFF762FF74E03F4B188800230022852157
:10797000FFF75EFD0B900B9B0693069B002B5ED0E2
:107980003A4A4FF4DA71069807F04CFA57E00023B0
:107990008DF8083000238DF80930019B9B8802AADE
:1079A00011461846FFF748FD0B900B9B0793079B6A
:1079B000002B46D02D4A4FF4E071079807F032FAB9
:1079C0003FE0284B1888002300220021FFF738FDF4
:1079D0000B900B9B0993099B002B34D0234A4FF447
:1079E000E371099807F01EFA2DE0019B9B88132193
:1079F0001846FFF711FD0B900B9B0893089B002B7B
:107A000023D01A4A4FF4E771089807F00BFA1CE0EC
:107A1000019B9B8813211846FFF7FEFC0B900B9BE4
:107A20000A930A9B002B12D0104A4FF4EB710A986C
:107A300007F0F8F90BE000BF0AE000BF08E000BF64
:107A400006E000BF04E000BF02E000BF00E000BFAE
:107A500000BF0DB000BD00BF803F0300583F0300D2
:107A60007040030000230020EC230020E83F0300C7
:107A70007C40030000B587B00BF03EF90590059BF4
:107A80000493049B002B05D0154A40F2E911049899
:107A900007F0C8F90023019301AB194601200BF050
:107AA000DFF90590059B0393039B002B05D00C4A3F
:107AB00040F2EF11039807F0B5F901AB18460BF04F
:107AC000C3FA0590059B0293029B002B05D0044A44
:107AD00040F2F311029807F0A5F900BF07B000BD0E
:107AE000E83F030000B585B003460A468DF807302D
:107AF00013468DF806309DF807300B2B2FD11E4A08
:107B00001E4BD31ADB081B0443F003031C49184621
:107B10000AF0C6F91B4B1B889DF806201A49184627
:107B200002F024FF0390039B002B21D0039B43F220
:107B3000020293421CD0039B082B19D0039B43F2F3
:107B40000142934214D0039B0293029B002B0FD05F
:107B50000E4A40F20D21029807F064F908E09DF802
:107B600007300A4A40F21221184607F05BF900E09C
:107B700000BF00BF05B000BD803F0300583F0300B9
:107B80008C40030000230020C0230020E83F0300B6
:107B900000B583B040F233320121094806F0FCFF02
:107BA0000190019B0093009B002B05D0054A40F2F9
:107BB0002621009807F036F900BF03B000BD00BFD2
:107BC00014230020E83F030000B583B04FF4804148
:107BD000002009F09BFE0190019B0093009B002B6D
:107BE00005D0054A40F22D21009807F01BF909F055
:107BF00025FE00BF03B000BDE83F030000B583B021
:107C000009F0E0FA0190019B0093009B002B05D046
:107C1000044A40F23921009807F004F900BF03B08C
:107C200000BD00BFE83F030008B50AF091F9034624
:107C300083F00103DBB2002B01D009F0D9FA00BFB9
:107C400008BD000000B583B0FFF7BEFFFFF70EFCD4
:107C5000FFF712FCFFF79CFFFFF7D0FFFFF70AFFCB
:107C6000FFF71EFCFFF766FCFFF740FDFFF77AFC0D
:107C7000FFF7A4FD0BF0EAFA1A4A1B4BD31ADB08F4
:107C80001B0443F00303194918460AF009F900F0F0
:107C900005FA144A144BD31ADB081B0443F0030300
:107CA000134918460AF0FCF812480BF0B3FC00F038
:107CB0000EFA03468DF807309DF8073019460E4836
:107CC0000BF0A8FC00F01CF8064A074BD31ADB089F
:107CD0001B0443F00303094918460AF0E1F8FFF7D3
:107CE000A3FFFCE7803F0300583F0300A8400300C8
:107CF000C8400300EC40030000410300244103009E
:107D000000B583B000F0F7F900F006FA0346002B47
:107D10001DD000F011FA03468DF807309DF80730AA
:107D200019460C480BF076FC9DF8073003F02A0347
:107D3000002B07D0052000F0F9F8FFF775FD00F0E3
:107D4000E2F9E1E7052000F00BF9FFF749FB20BF5E
:107D5000DAE700BF3C41030000B583B00190019B0E
:107D60001B68184600F0BDF80346002B04D10B49F0
:107D70004FF4F670FFF768FB019B1B681F2B02D8BE
:107D80004FF0A04306E0019B1B6803F01F02019B1C
:107D90001A60034B184603B000BD00BF58410300F2
:107DA0000003005000B585B00190084611461A4600
:107DB00003468DF803300B468DF8023013468DF8DC
:107DC000013001AB1846FFF7C7FF03909DF8032071
:107DD0009DF802305B001A439DF801309B001A4366
:107DE0009DF818301B0242EA03019DF81C301B0469
:107DF000019A1943039B02F5E07243F8221000BF79
:107E000005B000BD00B585B00390002301930023A9
:107E100000930023012201210398FFF7C3FF00BF55
:107E200005B000BD00B585B003900B468DF80B3052
:107E30009DF80B30002201920022009200220021C6
:107E40000398FFF7AFFF00BF05B000BD00B585B0D8
:107E5000019001AB1846FFF77FFF0390019B0122C1
:107E600002FA03F31946039800F027F800BF05B0A3
:107E700000BD00B585B0019001AB1846FFF76CFF5F
:107E80000390019B012202FA03F31946039800F0C4
:107E90001EF800BF05B000BD00B583B00190009191
:107EA000009B002B03D10198FFF7E3FF02E001984C
:107EB000FFF7CCFF00BF03B000BD82B0019000917E
:107EC000019B009AC3F8082500BF02B0704782B03A
:107ED00001900091019B009AC3F80C2500BF02B0ED
:107EE000704784B00190019B5B09029300230393C8
:107EF000029B002B03D0029B012B04D007E04FF024
:107F0000FF33039303E04FF6FF73039300BF019B1E
:107F100003F01F030193039A019B22FA03F303F07A
:107F20000103DBB2184604B07047000000B583B00F
:107F30000190019B032B03D907494120FFF784FAE5
:107F4000064A019B13441B7800211846FFF7A4FF43
:107F500000BF03B000BD00BF88410300CC41030057
:107F600000B583B00190019B032B03D9074947203B
:107F7000FFF76AFA064A019B13441B780121184651
:107F8000FFF78AFF00BF03B000BD00BF88410300B8
:107F9000CC41030000B583B00023019305E00198B4
:107FA000FFF7DEFF019B01330193019B032BF6D901
:107FB00000BF00BF03B000BD00B583B00023019334
:107FC00009E0094A019B13441B781846FFF71AFF82
:107FD000019B01330193019B032BF2D9FFF7DAFFD9
:107FE00000BF03B000BD00BFCC41030000B583B0AB
:107FF000002301930AE0094A019B13441B780321E3
:108000001846FFF70FFF019B01330193019B032BE0
:10801000F1D900BF00BF03B000BD00BFD0410300D5
:1080200000B583B00190019B03F00103002B01D048
:10803000FFF7C2FF019B03F00203002B01D0FFF703
:10804000D5FF00BF03B000BD00B585B00190019B16
:10805000002B0AD0064B43F001030393019B9B01C5
:108060000293039B0298984700E000BF05B000BD53
:10807000A042030000B583B00190019B002B0AD001
:108080004FF47A70FFF7E0FF019B013B0193019BE6
:10809000002BF5D100E000BF03B000BD00B583B0F8
:1080A0001420FFF7E7FF002130200BF003F90DF15A
:1080B0000703194631200BF035F900F015F80A20B6
:1080C000FFF7D8FF00F054F800BF03B000BD00B5C3
:1080D00083B00DF1070319460F200BF023F99DF82B
:1080E0000730184603B000BD08B5002120200BF072
:1080F000E1F800BF08BD08B52A220021022000F0E7
:1081000075F800BF08BD08B515226421022000F0F3
:108110006DF800BF08BD0000064B1B78DBB2002BDA
:1081200004D0044B00221A70012300E000231846FB
:10813000704700BF3724002000B583B00DF107035E
:10814000194631200BF0EEF89DF80730184603B0C1
:1081500000BD000082B001900B468DF80330034B48
:1081600001221A7000BF02B0704700BF3724002000
:1081700000B585B0184B00221A7004F061FB03466D
:10818000002B03D015480BF067F901E004F0F4FA76
:10819000134A01AB1268114619800233120C1A708F
:1081A00000238DF8053001AB0E4A1946192004F062
:1081B00053FB0390039B0293029B002B05D00A4ABA
:1081C0004FF49871029806F02DFE0121192004F059
:1081D000BFFB00BF05B000BD37240020F441030001
:1081E00088420300558102001C42030000B585B09F
:1081F00003468DF807300B468DF8063013468DF890
:108200000530272120200BF055F8012121200BF00B
:1082100051F8402122200BF04DF8082123200BF0CB
:1082200049F8144B02221A70134B04221A709DF85D
:108230000730194632200BF03DF89DF806301946FC
:1082400033200BF037F80D4B00221A700821242040
:108250000BF030F80DF10F03194626200BF062F8F1
:108260009DF80530194630200BF024F800BF05B00A
:1082700000BD00BF3924002038240020372400200E
:10828000BFF34F8F00BF064BDB6803F4E062044985
:10829000044B1343CB60BFF34F8F00BF00BFFDE71C
:1082A00000ED00E00400FA0582B01D4B1B6801934D
:1082B0001C4B1B680093019B082B2CD1009B052BAA
:1082C00025D0009B052B24D8009B042B1DD0009BA0
:1082D000042B1ED8009B032B15D0009B032B18D812
:1082E000009B022B0DD0009B022B12D8009B002B71
:1082F00003D0009B012B02D00BE001230CE00123F3
:108300000AE0012308E0012306E0012304E0012341
:1083100002E0012300E00023184602B0704700BFCE
:10832000300100103401001082B01D4B1B68019316
:108330001C4B1B680093019B082B2CD1009B052B29
:1083400025D0009B052B24D8009B042B1DD0009B1F
:10835000042B1ED8009B032B15D0009B032B18D891
:10836000009B022B0DD0009B022B12D8009B002BF0
:1083700003D0009B012B02D00BE001230CE0012372
:108380000AE0012308E0012306E0012304E00123C1
:1083900002E0012300E00023184602B0704700BF4E
:1083A000300100103401001082B01D4B1B68019396
:1083B0001C4B1B680093019B082B2CD1009B052BA9
:1083C00025D0009B052B24D8009B042B1DD0009B9F
:1083D000042B1ED8009B032B15D0009B032B18D811
:1083E000009B022B0DD0009B022B12D8009B002B70
:1083F00003D0009B012B02D00BE001230CE00023F3
:108400000AE0002308E0002306E0002304E0002344
:1084100002E0002300E00023184602B0704700BFCE
:10842000300100103401001082B01D4B1B68019315
:108430001C4B1B680093019B082B2CD1009B052B28
:1084400025D0009B052B24D8009B042B1DD0009B1E
:10845000042B1ED8009B032B15D0009B032B18D890
:10846000009B022B0DD0009B022B12D8009B002BEF
:1084700003D0009B012B02D00BE001230CE0002372
:108480000AE0002308E0002306E0002304E00023C4
:1084900002E0002300E00023184602B0704700BF4E
:1084A000300100103401001082B01D4B1B68019395
:1084B0001C4B1B680093019B082B2CD1009B052BA8
:1084C00025D0009B052B24D8009B042B1DD0009B9E
:1084D000042B1ED8009B032B15D0009B032B18D810
:1084E000009B022B0DD0009B022B12D8009B002B6F
:1084F00003D0009B012B02D00BE001230CE00023F2
:108500000AE0002308E0002306E0002304E0002343
:1085100002E0002300E00023184602B0704700BFCD
:10852000300100103401001082B01D4B1B68019314
:108530001C4B1B680093019B082B2CD1009B052B27
:1085400025D0009B052B24D8009B042B1DD0009B1D
:10855000042B1ED8009B032B15D0009B032B18D88F
:10856000009B022B0DD0009B022B12D8009B002BEE
:1085700003D0009B012B02D00BE001230CE0002371
:108580000AE0002308E0002306E0002304E00023C3
:1085900002E0002300E00023184602B0704700BF4D
:1085A000300100103401001082B01D4B1B68019394
:1085B0001C4B1B680093019B082B2CD1009B052BA7
:1085C00025D0009B052B24D8009B042B1DD0009B9D
:1085D000042B1ED8009B032B15D0009B032B18D80F
:1085E000009B022B0DD0009B022B12D8009B002B6E
:1085F00003D0009B012B02D00BE001230CE00123F0
:108600000AE0012308E0012306E0012304E001233E
:1086100002E0012300E00023184602B0704700BFCB
:10862000300100103401001082B01D4B1B68019313
:108630001C4B1B680093019B082B2CD1009B052B26
:1086400025D0009B052B24D8009B042B1DD0009B1C
:10865000042B1ED8009B032B15D0009B032B18D88E
:10866000009B022B0DD0009B022B12D8009B002BED
:1086700003D0009B012B02D00BE000230CE0002371
:108680000AE0002308E0002306E0012304E00123C0
:1086900002E0012300E00023184602B0704700BF4B
:1086A000300100103401001008B5FFF7BDFF03468C
:1086B000002B07D04FF010234FF08042D3F8083240
:1086C000C2F8583500BF08BD00BF044BD3F80034D2
:1086D000002BFAD000BF00BF704700BF00E0014090
:1086E00000B583B00190044A019BC2F80435FFF73E
:1086F000EBFF00BF03B000BD00E00140024B034AA6
:108700001A6000BF704700BF1C2300200090D003F8
:1087100008B5FFF7C9FD0346002B0ED04FF080438C
:108720000022C3F80C214FF080430022C3F810212F
:108730004FF080430022C3F83825FFF7F5FD0346CC
:10874000002B76D04FF08053734AD3F80434C2F82C
:1087500020354FF08053704AD3F80834C2F82435DE
:108760004FF080536C4AD3F80C34C2F828354FF0E0
:108770008053694AD3F81034C2F82C354FF0805337
:10878000654AD3F81434C2F830354FF08053624A4A
:10879000D3F81834C2F834354FF080535E4AD3F81A
:1087A0001C34C2F840354FF080535B4AD3F8203474
:1087B000C2F844354FF08053574AD3F82434C2F8F6
:1087C00048354FF08053544AD3F82834C2F84C351A
:1087D0004FF08053504AD3F82C34C2F850354FF044
:1087E00080534D4AD3F83034C2F854354FF080539B
:1087F000494AD3F83434C2F860354FF08053464AC2
:10880000D3F83834C2F864354FF08053424AD3F875
:108810003C34C2F868354FF080533F4AD3F84034B7
:10882000C2F86C354FF080533B4AD3F84434C2F859
:108830007035FFF7B9FD0346002B02D0374B384A9D
:108840001A60FFF7F1FD0346002B03D0354BFB22E6
:10885000C3F81825FFF728FE0346002B0AD0324B39
:108860001B6823F00F02314B1B6803F00F032E49E6
:1088700013430B60FFF758FE0346002B03D02C4B2D
:108880004FF400721A60FFF78FFE0346002B0DD0E5
:108890004FF08043D3F8003403F00103002B05D0E0
:1088A0004FF080436FF00102C3F80024214BD3F84E
:1088B0008830204A43F47003C2F88830BFF34F8FEA
:1088C00000BFBFF36F8F00BFFFF7EEFE4FF0102326
:1088D000D3F80032002B05DB4FF01023D3F804321D
:1088E000002B15DA0120FFF7FBFE4FF010231222B8
:1088F000C3F80022FFF7E8FE4FF010231222C3F85E
:108900000422FFF7E1FE0020FFF7EAFEFFF7B8FCC4
:10891000FFF7F4FE00BF08BD00C000408C560040C9
:108920004881030000F00040E40E004058020010AF
:108930004096024000ED00E06DDF704700BF184632
:1089400079DF704700BF18467DDF704700BF1846CB
:1089500064DF704700BF184682B003460091ADF84F
:108960000630BDF80630DAB2009B1A70BDF806304A
:108970001B0A9AB2009B0133D2B21A700223184626
:1089800002B0704700B589B0039002911346ADF86C
:108990000630029B1B8803F10902BDF806309A429B
:1089A00001D90C2353E004AB1846FFF7C5FF07902D
:1089B000079B0693069B002B01D0069B47E0029B7A
:1089C0001B881A46039B134408221A70029B1B88BB
:1089D00001339AB2029B1A80029B1B881A46039BA2
:1089E00013441B221A70029B1B8801339AB2029B0C
:1089F0001A80029B1B881A46039B981804AB01330C
:108A0000062219460BF0A0F9029B1B8806339AB286
:108A1000029B1A809DF8103023F00103DBB2002B7B
:108A200007D1029B1B881A46039B134400221A702D
:108A300006E0029B1B881A46039B134401221A700E
:108A4000029B1B8801339AB2029B1A8000231846AE
:108A500009B000BD00B589B0039002910192ADF854
:108A60000230039B1B78012B05D1039B5B78002B05
:108A700001D1072391E0019B1B889A1CBDF80230AD
:108A80009A420ED8039B1B78012B0CD1019B1B88AB
:108A90001A46039B5B7813449A1CBDF802309A4235
:108AA00001D90C2379E0019B1B88BDF80220D31A61
:108AB0009BB2023BADF81C30BDF81C30ADF8123053
:108AC000019B1B880233029A13440DF112021146D6
:108AD0001846FFF739FF0690069B0593059B002B70
:108AE00001D0059B59E0039B1B78022B06D0039B0A
:108AF0005B781A46BDF812309A4209D3BDF812309D
:108B0000BDF81C209A4203D309238DF81F3016E0CC
:108B100008238DF81F30039B1B78012B0BD1039B7F
:108B20005B781A46BDF81C30934204D3039B5B78F4
:108B3000ADF8123003E0BDF81C30ADF81230BDF8CE
:108B40001230FE2B01D90C2327E0BDF81230DAB227
:108B5000019B1B881946029B0B440132D2B21A704A
:108B6000019B1B8801339AB2019B1A80019B1B88D1
:108B70001A46029B13449DF81F201A70019B1B8804
:108B800001339AB2019B1A80019B1A88BDF81230FA
:108B900013449AB2019B1A800023184609B000BD05
:108BA00000B589B0039002911346ADF80630029BE0
:108BB0001B881A1DBDF806309A4201D90C233AE0F1
:108BC0000DF116031846FFF7BBFE0790079B0693AF
:108BD000069B002B01D0069B2DE0029B1B881A46AA
:108BE000039B134403221A70029B1B8801339AB221
:108BF000029B1A80029B1B881A46039B134419226E
:108C00001A70029B1B8801339AB2029B1A80BDF82E
:108C10001620029B1B881946039B0B4419461046DD
:108C2000FFF79AFE03461A46029B1B8813449AB22A
:108C3000029B1A800023184609B000BD84B002913F
:108C400001921A4603468DF80F301346ADF80C30EA
:108C5000019B1B88DA1CBDF80C309A4201D90C2309
:108C600028E0019B1B881A46029B134402221A70BB
:108C7000019B1B8801339AB2019B1A80019B1B88C0
:108C80001A46029B134401221A70019B1B88013370
:108C90009AB2019B1A80019B1B881A46029B1344BF
:108CA0009DF80F201A70019B1B8801339AB2019B1B
:108CB0001A800023184604B0704784B002910192D4
:108CC0001A4603468DF80F301346ADF80C30019B61
:108CD0001B88DA1CBDF80C309A4201D90C2328E01D
:108CE000019B1B881A46029B134402221A70019BA7
:108CF0001B8801339AB2019B1A80019B1B881A467C
:108D0000029B13440A221A70019B1B8801339AB2FA
:108D1000019B1A80019B1B881A46029B13449DF8F5
:108D20000F201A70019B1B8801339AB2019B1A8095
:108D30000023184604B0704700B58DB0039001932E
:108D40000B468DF80B3013468DF80A3000238DF852
:108D50002B300E9B1B88ADF8283000230B9372E05C
:108D6000039B5A680B9B9B001A4404AB1068186065
:108D70000DF1170104AB00221846FFF7E9FD08903A
:108D8000089B0793079B002B01D0079B7DE09DF874
:108D900017309DF80A209A4252D19DF82B30002BB3
:108DA00003D000238DF82A3002E002238DF82A3008
:108DB0000E9B1B881A469DF817301A449DF82A30DE
:108DC0001A44BDF83C309A4201DD0C235DE09DF869
:108DD0002B3083F00103DBB2002B16D00E9B1B88D7
:108DE00001339AB20E9B1A800E9B1B881A46019B78
:108DF00013449DF80B201A700E9B1B8801339AB206
:108E00000E9B1A8001238DF82B300E9B1B881A466F
:108E1000019B1A440DF1170104AB1846FFF798FDAA
:108E20000890089B0693069B002B01D0069B2CE024
:108E30000E9B1B889DF8172013449AB20E9B1A8034
:108E40000B9B01330B93039B1B881A460B9B93428E
:108E500086DB9DF82B30002B16D00E9B1A88BDF8B0
:108E60002830D31A9BB2013BADF82630BDF826302E
:108E7000FF2B01D90C2308E0BDF82830019A1344D8
:108E8000BDF82620D2B21A70002318460DB000BDDE
:108E900000B58BB0059003930B468DF81330134645
:108EA0008DF812309DF81310BDF8343001930C9BEF
:108EB0000093039B02220598FFF73EFF0990099B50
:108EC0000893089B002B01D0089B14E09DF812101A
:108ED000BDF8343001930C9B0093039B102205983E
:108EE000FFF72AFF0990099B0793079B002B01D0EE
:108EF000079B00E0002318460BB000BD82B0019034
:108F0000019B1B88052B0AD9019B1B88B3F5486F71
:108F100007D9019B1B884FF6FF72934201D00723AC
:108F200025E0019B5B88052B0AD9019B5B88B3F583
:108F3000486F07D9019B5B884FF6FF72934201D0BF
:108F4000072314E0019B1B884FF6FF7293420DD05C
:108F5000019B5B884FF6FF72934207D0019B1A88F2
:108F6000019B5B889A4201D9072300E00023184641
:108F700002B0704700B587B0039002910192ADF83E
:108F80000230019B1B889A1DBDF802309A4201D91C
:108F90000C234BE00398FFF7B1FF0590059B04936A
:108FA000049B002B01D0049B40E0019B1B881A46C8
:108FB000029B134405221A70019B1B8801339AB24D
:108FC000019B1A80019B1B881A46029B13441222A4
:108FD0001A70019B1B8801339AB2019B1A80039B74
:108FE0001A88019B1B881946029B0B4419461046A0
:108FF000FFF7B2FC03461A46019B1B8813449AB242
:10900000019B1A80039B5A88019B1B881946029B6F
:109010000B4419461046FFF79FFC03461A46019B76
:109020001B8813449AB2019B1A800023184607B08C
:1090300000BD00B587B0039002910192ADF80230F7
:10904000039B9B8802330593019B1B881A46059B53
:1090500013449A1CBDF802309A4201D90C2353E004
:10906000059BFE2B01D90C234EE0059BDAB2019B38
:109070001B881946029B0B440132D2B21A70019B25
:109080001B8801339AB2019B1A80019B1B881A46E8
:10909000029B1344FF221A70019B1B8801339AB272
:1090A000019B1A80039B1A88019B1B881946029B0F
:1090B0000B4419461046FFF74FFC03461A46019B26
:1090C0001B8813449AB2019B1A80039B9B88002B38
:1090D00019D0039B9B68002B01D1072314E0019B4F
:1090E0001B881A46029B9818039B9968039B9B88D0
:1090F0001A460AF029FE019B1A88039B9B88134499
:109100009AB2019B1A800023184607B000BD00B533
:1091100089B0039002910192ADF80230039B9B6AE3
:10912000002B01D1072371E000238DF81F3065E08B
:10913000039B996A9DF81F2013465B0013449B0014
:109140000B440693069B9B8802330593059BFE2BDD
:1091500001D90C235AE0059BDAB2019B1B88194602
:10916000029B0B440132D2B21A70019B1B8801335F
:109170009AB2019B1A80019B1B881A46029B1344DA
:1091800016221A70019B1B8801339AB2019B1A8028
:10919000069B1A88019B1B881946029B0B441946A3
:1091A0001046FFF7D9FB03461A46019B1B88134460
:1091B0009AB2019B1A80069B9B88002B19D0069BB4
:1091C0009B68002B01D1072320E0019B1B881A46D6
:1091D000029B9818069B9968069B9B881A460AF082
:1091E000B3FD019B1A88069B9B8813449AB2019B8E
:1091F0001A809DF81F3001338DF81F30039B93F8C0
:109200002C309DF81F209A4292D30023184609B0B3
:1092100000BD00B595B0059004910392002313930F
:10922000039B1B88ADF84A30039B00221A80059BE4
:1092300093F82D30002B0ED0BDF84A301A46039912
:109240000498FFF79FFB1390139B1193119B002B26
:1092500001D0119BD8E0059B9B78002B0ED0BDF868
:109260004A301A4603990498FFF79AFC1390139B0F
:109270001093109B002B01D0109BC5E0059BDB7861
:10928000002B10D0059BDB7858B2BDF84A30039A0A
:109290000499FFF7D3FC1390139B0F930F9B002BA4
:1092A00001D00F9BB0E0059B5B68002B11D0059BA4
:1092B0005B6893F90000BDF84A30039A0499FFF700
:1092C000FCFC1390139B0E930E9B002B01D00E9B66
:1092D0009AE0059B1B89002B14D0059B03F1080025
:1092E000BDF84A300193039B0093049B06220221A0
:1092F000FFF7CEFD1390139B0D930D9B002B01D018
:109300000D9B81E0059B1B8A002B14D0059B03F16C
:109310001000BDF84A300193039B0093049B072281
:109320000321FFF7B5FD1390139B0C930C9B002BAF
:1093300001D00C9B68E0059B1B8B002B14D0059B78
:1093400003F11800BDF84A300193039B0093049B7E
:1093500015221421FFF79CFD1390139B0B930B9B7D
:10936000002B01D00B9B4FE0059B1B6A002B0FD0FD
:10937000059B186ABDF84A30039A0499FFF7FAFD75
:109380001390139B0A930A9B002B01D00A9B3BE08E
:10939000059B5B6A002B0FD0059B586ABDF84A30CD
:1093A000039A0499FFF745FE1390139B0993099BB9
:1093B000002B01D0099B27E0059B93F82C30002B54
:1093C0000ED0BDF84A30039A04990598FFF79FFE26
:1093D0001390139B0893089B002B01D0089B13E06C
:1093E000059B1B78002B0ED0BDF84A30039A0499D8
:1093F0000598FFF72FFB1390139B0793079B002BF8
:1094000001D0079B00E0139B184615B000BD75DF27
:10941000704700BF184676DF704700BF18467ADFF6
:10942000704700BF18467BDF704700BF184600003A
:1094300084B00346ADF806300023039316E00F49CD
:10944000039A13469B0013449B000B441B88BDF8F2
:1094500006209A4207D1039A13469B0013449B00AF
:10946000064A134406E0039B01330393039B002B3E
:10947000E5D00023184604B0704700BF60240020E8
:1094800082B001900B46ADF80230019BBDF802207E
:109490001A80019B00221A72019B054903F10A02FE
:1094A0000B4603CB1060516000BF02B0704700BF95
:1094B0009024002082B00190019B4FF6FF721A8029
:1094C00000BF02B0704788B00390029111461A465F
:1094D0000B46ADF806301346ADF80430039B9B886D
:1094E0001A46BDF8063013440793039B9B88194620
:1094F000039B9B88BDF80620934228BF13469BB26E
:10950000CB1A0693039BDB881A46BDF8043013443C
:109510000593039BDB881946039BDB88BDF8042079
:10952000934228BF13469BB2CB1A0493029B5A88DE
:10953000039B1B889A4205D3029B5A88039B5B8836
:109540009A4201D900231CE0029B9B881A46069B85
:10955000934205D8029B9B881A46079B934201D2EF
:1095600000230EE0029BDB881A46049B934205D839
:10957000029BDB881A46059B934201D2002300E040
:109580000123184608B0704700B583B00190054B21
:109590009B69002B03D0034B9B690198984700BF40
:1095A00003B000BD7424002000B585B003460091CF
:1095B000ADF80630BDF8063000991846FFF727FFD2
:1095C0000390039B002B05D0039B112B02D0039823
:1095D000FFF7DAFF039B002B0CBF01230023DBB254
:1095E000184605B000BD000000B589B00190019B90
:1095F0000793079B9BB21846FFF71AFF0690069B3E
:10960000002B42D0069B1A7A214B1B7B9A4215D223
:10961000079B9AB2069B0A3319461046FFF7C4FF10
:1096200003468DF813309DF81330002B2DD0069B88
:109630001B7A0133DAB2069B1A7226E0069B0022DF
:109640001A72134B1B7C002B0FD0079B9BB23B2144
:109650001846FFF7E0FE0590059B002B05D0059B03
:10966000082B02D00598FFF78FFF094B5B69002B91
:109670000BD000238DF80C30079B9BB2ADF80E3059
:10968000034B5B6903AA1046984700BF09B000BDB1
:109690007424002030B587B00190019B002B01D1CC
:1096A0000E2353E02B4A019B14461D460FCD0FC4D9
:1096B00095E8070084E80700264B274A1A60019BBB
:1096C0001B68002B11D0019B1B681846FFF7A7FEF3
:1096D0000490049B002B01D0049B37E0019B1A6887
:1096E0001D4B1068516803C308E01B48FFF79BFE41
:1096F0000490049B002B01D0049B27E000230593DA
:1097000020E0059A13469B0013449B00134A134420
:1097100003930398FFF7CEFE059B5B01104A1A44A2
:10972000039B5A60039B04330E4A0021184605F040
:1097300059FF0490049B002B01D0032306E0059BF6
:1097400001330593059B002BDBD00023184607B09F
:1097500030BD00BF7424002090240020602400202D
:1097600040240020E995020000B587B0034600912F
:10977000ADF80630009B5B7A002B1AD1009B1B7A58
:10978000002B03D1164B5B68059302E0144B9B68DA
:109790000593009B5B68BDF806200599184605F007
:1097A0005BFF0490049B002B16D00498FFF7ECFE9F
:1097B00012E0009B00221A72094B5B69002B0BD050
:1097C00001238DF80C30BDF80630ADF80E30044B97
:1097D0005B6903AA1046984700BF07B000BD00BFF1
:1097E0007424002000B585B00190019BDB7B8DF8CF
:1097F0000F30019B9B88ADF80C309DF80F30012B8A
:109800002CD14FF6FF70FFF713FE0290029B002B46
:1098100003D10420FFF7B8FE21E0BDF80C30194653
:109820000298FFF72DFE029B03F10A00019B03F152
:1098300010014FF6FF7340F2F312FFF744FE0346A8
:109840001A46029B5A72074BDB89002B07D1BDF8E1
:109850000C3002991846FFF787FF00E000BF05B003
:1098600000BD00BF7424002000B587B00190019BAB
:109870009B88ADF81630BDF816301846FFF7D8FDB6
:109880000490049B002B0ED0049B5B68184605F0E7
:109890003BFF0390039B002B02D00398FFF774FE5D
:1098A0000498FFF707FE00BF07B000BD00B587B002
:1098B0000190019B06330593059B1A88194BDB89A0
:1098C0009A422BD1059B5B89022B27D1019B9B8858
:1098D000ADF81230BDF812301846FFF7A9FD03901D
:1098E000039B002B1AD0059B0C33184600F0E5F9BA
:1098F0000346002B06D0BDF8123003991846FFF737
:1099000033FF0BE0039B5B68184605F0FDFE0290F9
:10991000029B002B02D00298FFF736FE00BF07B073
:1099200000BD00BF7424002000B585B00190019BEC
:109930009B88ADF80E30BDF80E301846FFF778FD65
:109940000290029B002B15D0029B03F10A00019BA1
:1099500003F108014FF6FF7340F2F312FFF7B3FD76
:1099600003461A46029B5A72BDF80E3002991846F9
:10997000FFF7FAFE00BF05B000BD00B583B001904F
:109980000091019B1B88502B12D0502B18DC122BFE
:1099900012D0122B14DC102B02D0112B04D00FE0AC
:1099A0000198FFF71FFF0CE00198FFF75DFF08E04B
:1099B0000198FFF77BFF04E00198FFF7B5FF00E097
:1099C00000BF00BF03B000BD30B58FB00190009163
:1099D00000230293009B002B1AD000230D9314E068
:1099E0006B460D99184606F0A4FC0346002B09D0DF
:1099F000029B5A1C02920D9A92B25B0038336B4460
:109A000023F82C2C0D9B01330D930D9B132BE7D9C1
:109A1000019B1D4602AC0FCC0FC50FCC0FC594E8BF
:109A2000070085E8070001980FB030BD00B583B08E
:109A30000346ADF80630BDF80630132B01D90023DC
:109A40000CE0BDF806301946064806F043FCBDF8A8
:109A500006301946044806F03DFC0123184603B0C1
:109A600000BD00BFA02400209C24002000B585B0CC
:109A70000346ADF80630002303930DE0039B9B00E3
:109A8000094A13440433BDF806201146184606F06F
:109A900038FC039B01330393039B1D2BEED900BFBE
:109AA00000BF05B000BD00BF9824002000B583B002
:109AB0000346ADF80630BDF806301946024806F0F8
:109AC00020FC00BF03B000BDA024002030B59BB037
:109AD000184B9B68DB431893164B5A6818AB11461A
:109AE000184606F080FC189A6B4611461846FFF798
:109AF0006BFF0DAC6D460FCD0FC40FCD0FC495E8B5
:109B0000070084E80700002319930BE0199B5B0012
:109B100068336B4433F8303C1846FFF7A7FF199BB6
:109B2000013319930D9B199A9A42EFD300BF00BFDE
:109B30001BB030BD9824002000B583B001900B46C7
:109B4000ADF8023013468DF801309DF80130002B3E
:109B500006D0BDF802301946019806F0BBFB05E0BF
:109B6000BDF802301946019806F0CBFB00BF03B0E8
:109B700000BD000000B585B001900091019B9B885D
:109B8000ADF80E30019B1B881A2B2ED01A2B71DCDE
:109B9000192B59D0192B6DDC102B02D0112B1ED094
:109BA00068E0FFF793FFBDF80E301846FFF73EFF61
:109BB000034683F00103DBB2002B05D02F4AF021CE
:109BC000042005F02FF952E0019BDB7B022B4ED1E4
:109BD000BDF80E3019462A4806F07CFB47E0BDF878
:109BE0000E301846FFF762FF44E0019B1B7AC3F377
:109BF0000313DBB28DF80D309DF80D30032B8CBFB5
:109C000001230023DAB2BDF80E3019461D48FFF7D4
:109C100093FF9DF80D30022B8CBF01230023DAB295
:109C2000BDF80E3019461848FFF786FF9DF80D3035
:109C3000012B8CBF01230023DAB2BDF80E30194688
:109C40001248FFF779FF15E0019B1B7A002B10D11A
:109C5000019B5B7AC3F3C0038DF80C309DF80C2098
:109C6000BDF80E3019460748FFF766FF01E000BF58
:109C700000E000BF00BF05B000BD00BFA842030068
:109C8000A4240020B0240020AC240020A82400201C
:109C900082B00190019B1B781AB2019B01331B78A3
:109CA0001BB21B021BB213431BB29BB2184602B07D
:109CB0007047AADF704700BF184600B585B0019015
:109CC0000198FFF7E5FF0346ADF80E30BDF80E3002
:109CD00003F00103DBB2184605B000BD82B00346B5
:109CE00000918DF80730009A137823F00F0313705A
:109CF000009A137823F0F00313709DF80730052BBA
:109D000051D0052B5DDC042B40D0042B59DC032BF8
:109D10002FD0032B55DC022B1ED0022B51DC002B45
:109D200002D0012B0BD04CE0009A137823F00F03E4
:109D30001370009A137823F0F003137040E0009A38
:109D40001378012161F303031370009A1378012142
:109D500061F30713137033E0009A1378012161F364
:109D600003031370009A1378022161F30713137031
:109D700026E0009A1378012161F303031370009A1F
:109D80001378032161F30713137019E0009A137815
:109D9000022161F303031370009A1378012161F328
:109DA000071313700CE0009A1378022161F3030388
:109DB0001370009A1378022161F30713137000BF28
:109DC00000BF00BF02B0704700B595B003460291D6
:109DD0000192ADF80E30029B9B78002B03D101233A
:109DE0008DF81E3003E0029B9B788DF81E30029B9D
:109DF0001B88ADF81C3006AB03220021184609F081
:109E0000D5FF029B5B7C06AA11461846FFF766FF4A
:109E1000029B9A7C06AB013319461046FFF75EFFA2
:109E2000029BDA7B9DF81A3062F3C3038DF81A3077
:109E3000029B1A7C9DF81A3062F304138DF81A30D5
:109E4000029B1A7B9DF81A3062F300038DF81A30DA
:109E5000029B1B7D002B01D0022200E001229DF815
:109E60001A3062F342038DF81A300DAB1C22002128
:109E7000184609F09BFF029B5B7B03F01003DBB2EB
:109E8000002B06D1029B5B7B03F02003DBB2002B8F
:109E900024D004AB03220021184609F087FF029B5F
:109EA000DA7C04AB013319461046FFF717FF9DF823
:109EB0001030012262F303038DF810309DF810304A
:109EC000012262F307138DF810309DF81230012241
:109ED00062F342038DF8123004AB1293029B5B7B5A
:109EE0008DF83430029B9B7B8DF8353008AB142203
:109EF0000021184609F05AFF07AB089306AB0993F7
:109F0000029B9B88ADF82C30029B9B68002B06D0EF
:109F1000029BDB88ADF82830029B9B680C93029B68
:109F20009B69002B4FD005AB03220021184609F096
:109F30003DFF029B9B691B88ADF83C30029B9B69EF
:109F40005B88ADF83E30029B9B695B680E9305AB66
:109F50001193029B9B691B7B05AA11461846FFF7CC
:109F6000BDFE029B9B695A7B05AB01331946104627
:109F7000FFF7B4FE029B9B699A7A9DF8163062F354
:109F8000C3038DF81630029B9B69DA7A9DF8163070
:109F900062F304138DF81630029B9B691A7A9DF8C0
:109FA000163062F300038DF81630029B9B699B7B91
:109FB000002B01D0022200E001229DF8163062F34E
:109FC00042038DF81630029BDB69002B02D0029B06
:109FD000DB69109308AA0DA9BDF80E00019BFFF7DD
:109FE00068FE0346184615B000BD90DF704700BFFD
:109FF0001846A5DF704700BF1846B5DF704700BFA1
:10A00000184682B00190019B17221A80019B1722EB
:10A010005A80019B00221A71019B00225A71019BF8
:10A020001B229A71019B1B22DA7100BF02B070479C
:10A0300030B589B003460A46ADF806301346ADF890
:10A040000430BDF80430ADF81430BDF80430ADF87C
:10A0500016300023ADF818300023ADF81A3003ABEA
:10A0600000221A609A8003AA05A9BDF80630184696
:10A07000FFF7BBFF0790079B002B39D01E4A1F4BF1
:10A08000D31ADB081B0443F00104BDF806500798FF
:10A0900007F0E4F903462A461949204607F01DFF58
:10A0A000BDF80C30002B03D1BDF80E30002B0ED0C4
:10A0B000114A124BD31ADB081B0443F00100BDF810
:10A0C0000C301A46BDF80E300E4907F006FFBDF8F9
:10A0D0001030002B0CD0084A084BD31ADB081B04A5
:10A0E00043F00103BDF810200749184607F0E5FECC
:10A0F000079B184609B030BDA03F0300583F03003E
:10A1000008430300544303009443030010B586B092
:10A1100001900091009B9B88ADF80E30BDF80E3089
:10A12000DB00019A134406330593019B1A79059BC2
:10A130009A71009BDB7B012B02D0022B05D009E03A
:10A14000019B1A88059B1A8004E0019B5A88059B95
:10A150001A8000BF059B1A88059B5B889A4226D906
:10A16000059B1A88BDF80E3011461846FFF741FFCF
:10A170000490049B002B03D1059B01225A7116E029
:10A18000049B112B03D1059B01221A710FE0114A88
:10A19000114BD31ADB081B0443F00104049807F0A9
:10A1A0005DF903461A460D49204607F086FE059BD9
:10A1B0009A79059BDB799A4208D9059B9B791A46C7
:10A1C000BDF80E3011461846FFF732FF00BF06B04B
:10A1D00010BD00BFA03F0300583F0300EC43030045
:10A1E00000B583B001900091009B9B88DB00019A31
:10A1F000134406331846FFF704FF00BF03B000BD49
:10A2000000B587B001900091009B9B88ADF8163097
:10A21000009B5B89ADF81430BDF81630DB00019A65
:10A22000134406330493049B1B88BDF81420934207
:10A2300028BF13469AB2049B5A80049B5B88172B55
:10A2400038BF17239AB2049B5A80019B1B69002BCD
:10A2500015D0049B5B79002B11D040F67723ADF825
:10A260000830BDF81630ADF80A30049B5B88ADF8B5
:10A270000C30019B1B6902AA114601989847049B68
:10A2800000225A71049B00221A7100BF07B000BD62
:10A2900010B588B001900091009B9B88ADF81A30F2
:10A2A000009BDB88ADF81830BDF81A30DB00019A4E
:10A2B000134406330593BDF81830172B38BF172306
:10A2C000ADF81830059B1B88BDF81820934228BFB5
:10A2D00013469AB2059B5A80059B00221A71059B72
:10A2E0001A88BDF81A3011461846FFF786FE079007
:10A2F000079B002B0FD0174A174BD31ADB081B0400
:10A3000043F00104079807F0A9F803461A461349D9
:10A31000204607F0D2FD059B5B79002B16D1019BEF
:10A320001B69002B13D040F67723ADF80C30BDF835
:10A330001A30ADF80E30059B5B88ADF81030019BEC
:10A340001B6903AA11460198984700E000BF08B0B6
:10A3500010BD00BFA03F0300583F0300204403008E
:10A3600030B591B001900091009B04AC1D1D0FCD44
:10A370000FC40FCD0FC495E8070084E80700BDF8AF
:10A380001030ADF83E30BDF81420BDF83E30D1B2EB
:10A39000019ADB0013440A465A73019B1B69002B88
:10A3A00015D04DF67A23ADF80830BDF83E30ADF843
:10A3B0000A30BDF83E30019ADB0013445B7B8DF818
:10A3C0000C30019B1B6902AA11460198984700BFF7
:10A3D00011B030BD00B587B001900091009B0433EF
:10A3E0000593059B1B88DB00019A134406330493F5
:10A3F000059B9B888DF80F30049B9B799DF80F205F
:10A40000934228BF13468DF80E30059B1B889DF89C
:10A410000E2092B211461846FFF70AFE00BF07B0A1
:10A4200000BD00B585B001900091019B002B01D1CA
:10A430000E231DE0019B009A1A61019B17221A80CE
:10A44000019B17225A80019B1B221A710023039340
:10A450000AE0039BDB00019A134406331846FFF71A
:10A46000D0FD039B01330393039B002BF1D000230A
:10A47000184605B000BD000010B586B001900091EF
:10A48000009B0593019B9B88ADF81230BDF81230FC
:10A49000002B70D1019B1B88552B21D0552B2EDC16
:10A4A0003A2B18D03A2B2ADC242B1ED0242B26DC66
:10A4B000232B1FD0232B22DC102B02D0112B05D0F5
:10A4C0001DE001990598FFF721FE19E00199059813
:10A4D000FFF786FE14E001990598FFF791FE0FE063
:10A4E00001990598FFF7D4FE0AE001990598FFF756
:10A4F00037FF05E001990598FFF76CFF00E000BF0A
:10A50000BDF81230059ADB0013449B7A002B33D040
:10A51000BDF81230059ADB001344DA88BDF812301A
:10A5200011461846FFF765FD0390039B002B0ED1E3
:10A53000BDF81230059ADB00134400229A72BDF870
:10A540001230059ADB0013440122DA7214E0039BF7
:10A55000112B11D0094A0A4BD31ADB081B0443F014
:10A560000104039806F07AFF03461A46054920467F
:10A5700007F0A3FC00E000BF06B010BDA03F030041
:10A58000583F0300EC430300B0DF704700BF18469C
:10A5900066DF704700BF184682B001900091019BB2
:10A5A000002B01D10E2316E0009B002B01D10E23BE
:10A5B00011E0019B1B78DE2B01D108230BE0009BEF
:10A5C0001A68019B5A60019BDE221A70019B4FF6AC
:10A5D000FF725A800023184602B0704782B0019083
:10A5E0000B46ADF80230019B002B01D10E230AE08F
:10A5F000019B1B78DE2B01D0082304E0019BBDF8F2
:10A6000002205A800023184602B0704700B585B07A
:10A610000190019B1B7A002B18D0019B5B880021C5
:10A620001846FFF7B5FF0390039B002B03D1019B56
:10A6300000221A720AE0039B112B03D1019B012215
:10A640001A7203E0019B5B680398984700BF05B04E
:10A6500000BD00B583B001900091009B1B79012BD8
:10A660000BD1009B1A88019B5B889A4205D1019B04
:10A6700001221A720198FFF7C9FF00BF03B000BDA5
:10A6800082B00190009100BF02B0704700B589B060
:10A6900001900091009B1A88019B5B889A4236D1F9
:10A6A000009B02330793079B1B78022B31D1079B3A
:10A6B0001B7A042B07D0079B1B7A062B03D0079B22
:10A6C0001B7A052B27D102AB00221A605A609A60D0
:10A6D000DA6002238DF808304FF4C073ADF80C3007
:10A6E000079B1B7A052B02D10023ADF80C30009B91
:10A6F0001B8802AA11461846FFF746FF0690069BE4
:10A70000002B09D0019B5B680698984704E000BFC6
:10A7100002E000BF00E000BF09B000BD00B585B099
:10A7200001900091009B002B43D0019B002B40D057
:10A73000009B0393039B1B78DE2B3AD1019B9A88E5
:10A74000039B5B889A4202D10398FFF75FFF019B4E
:10A750001B88512B18D0512B28DC112B1BD0112B0F
:10A7600024DC012B02D0022B07D01FE0019B043315
:10A7700019460398FFF76DFF1BE0019B0433194650
:10A780000398FFF77DFF14E0019B043319460398FB
:10A79000FFF77CFF0DE0019B9A88039B5B889A4240
:10A7A00006D1039B4FF6FF725A8001E000BF00E024
:10A7B00000BF05B000BDA8DF704700BF1846AEDF80
:10A7C000704700BF184662DF704700BF184600B5EB
:10A7D00085B001900091009B06330393039B1A8878
:10A7E000019B5B889A420FD1039B5B89012B0BD1A4
:10A7F000019B5B69002B07D0019B5B69009A9088E5
:10A80000039A127B0199984700BF05B000BD00B5BF
:10A8100085B001900091009B0393019B1B88502BF6
:10A8200004D101990398FFF7D2FF00E000BF00BFF9
:10A8300005B000BD10B592B001900091009B1A6860
:10A84000019B5A61484B02AC0FCB84E80F00019B7F
:10A8500003F1120202AB11461846FFF7B4FF119044
:10A86000119B1093109B002B01D0109B79E0019B52
:10A870009B7C8DF83A3041F22353ADF83830019A81
:10A880000EAB19460120FFF796FF1190119B0F9315
:10A890000F9B002B01D00F9B63E006AB2022002111
:10A8A000184609F083FA41F22453ADF81830019BA1
:10A8B0009B7C8DF81A300123ADF81E300123ADF8D2
:10A8C0001C309DF8253043F002038DF825309DF8AB
:10A8D000253043F010038DF8253001238DF8293001
:10A8E00001238DF82B30019B1888019B03F10A028C
:10A8F00006AB1946FFF768FA1190119B002B01D0A7
:10A90000119B2EE006AB20220021184609F04EFADA
:10A9100041F22553ADF81830019B9B7C8DF81A301D
:10A920000123ADF81E300123ADF81C309DF8253011
:10A9300043F002038DF825309DF8253043F00803DD
:10A940008DF8253001238DF8293001238DF82A3028
:10A95000019B1888019B9A1C06AB1946FFF734FA35
:10A960000346184612B010BD5044030000B589B02C
:10A9700003460091ADF8063013468DF805300123EB
:10A98000ADF80E3004AB10220021184609F00EFA83
:10A9900001238DF81230009B5B89ADF810300DF16A
:10A9A000050307930DF10E03069304AABDF80630C4
:10A9B00011461846FFF703FF0346184609B000BDCD
:10A9C00082B003468DF807309DF90730002B13DB6A
:10A9D0009DF8073003F01F0209499DF907305B0914
:10A9E000012000FA02F2203341F82320BFF34F8FF9
:10A9F00000BFBFF36F8F00BF00BF02B0704700BF42
:10AA000000E100E0044BD3F80034002B14BF012315
:10AA10000023DBB2184670470000014008B508F07B
:10AA2000BDF9034683F00103DBB2002B03D10949D2
:10AA30007B20FCF709FDFFF7E5FF034683F00103E8
:10AA4000DBB2002B04D001F03BFA034B00229A70DA
:10AA500000BF08BD684403001425002000B583B082
:10AA600000230193174B1B78002B02D08523019301
:10AA70001CE0144B00229A60124B00225A60114BCA
:10AA800000221A610F4B0022DA600F4801F0E0F952
:10AA9000019008F083F9034683F00103DBB2002B39
:10AAA00001D001F0F9F9074B01221A70FFF7AAFF54
:10AAB0000346002B02D0034B01229A70019B1846DB
:10AAC00003B000BD142500209DAB020084B00190AE
:10AAD000019B1B680393039B002B03D0039B1A6805
:10AAE000019B1A60039B184604B0704700B583B001
:10AAF000164B1B78002B04D1154940F21710FCF7B8
:10AB0000A3FC124BDB68002B04D111494FF48C706D
:10AB1000FCF79AFC00238DF807300DF10703184667
:10AB200004F0BCFE094BDB68013B084AD360074BCD
:10AB3000DB68002B01D1FFF771FF9DF80730184645
:10AB400004F0C0FE00BF03B000BD00BF142500200C
:10AB50006844030000B585B003468DF807309DF8C2
:10AB60000730002B02D10B4B039301E00A4B0393F8
:10AB70000398FFF7ABFF0290029B002B06D0029BCD
:10AB80005B689DF8072010469847F1E700BF00BFBB
:10AB900005B000BD1C2500202425002000B583B091
:10ABA00003468DF807309DF80730002B05D1094B7F
:10ABB00001225A700020FFF7CDFF9DF80730012BCE
:10ABC00005D1044B01229A700120FFF7C3FF00BF9B
:10ABD00003B000BD1425002000B583B001900091A2
:10ABE000019B002B05D1044B01225A700020FFF776
:10ABF000B1FF00BF03B000BD1425002000B585B033
:10AC0000034600918DF807309DF80730032B29D0BB
:10AC1000032B35DC002B02D0012B04D030E00020C8
:10AC2000FFF7CEFE2DE000238DF80F300DF10F035E
:10AC3000184604F033FE144B1B7883F00103DBB29B
:10AC4000002B01D0FFF70AFF0F4BDB6801330E4AE0
:10AC5000D3600D4B01229A709DF80F30184604F016
:10AC600031FE0EE0084B1B78002B04D1074940F25F
:10AC70005220FCF7E9FB01F00FF9FFF737FF00E086
:10AC800000BF00BF05B000BD1425002068440300CC
:10AC900082B003468DF807309DF90730002B0CDB9E
:10ACA0009DF8073003F01F0205499DF907305B0945
:10ACB000012000FA02F241F8232000BF02B07047E1
:10ACC00000E100E082B003468DF807309DF90730BF
:10ACD000002B0DDB9DF8073003F01F0206499DF99C
:10ACE00007305B09012000FA02F2603341F82320AB
:10ACF00000BF02B0704700BF00E100E082B0034631
:10AD000000918DF807309DF90730002B0ADB009B7E
:10AD1000DAB20C499DF907305201D2B20B4483F8E4
:10AD200000230BE0009BDAB207499DF8073003F0DF
:10AD30000F03043B5201D2B20B441A7600BF02B09B
:10AD4000704700BF00E100E000ED00E000B583B017
:10AD500003460A468DF8073013468DF806309DF8F5
:10AD60000630012B03D99DF80630032B0CD99DF832
:10AD70000630042B03D99DF80630072B04D90D4962
:10AD80004FF49270FCF760FB9DF806209DF90730A8
:10AD900011461846FFF7B2FF9DF907301846FFF736
:10ADA00091FF9DF907301846FFF772FF00BF03B00F
:10ADB00000BD00BFB844030000B585B00190019B01
:10ADC000002B0AD0064B43F001030393019B9B0128
:10ADD0000293039B0298984700E000BF05B000BDB6
:10ADE0009045030082B001900B468DF803309DF82A
:10ADF0000330019A134401221A6000BF02B0704769
:10AE000084B001900B46ADF80230BDF80230019AD3
:10AE1000134400221A60BDF80230019A13441B68E3
:10AE20000393039B00BF04B0704782B001900B46B0
:10AE3000ADF80230BDF80230019A13441B68002BB4
:10AE400014BF01230023DBB2184602B0704782B062
:10AE500001900091019B009AC3F8042300BF02B047
:10AE6000704782B001900091019B009AC3F80823BB
:10AE700000BF02B0704782B00190019B0622C3F868
:10AE8000002500BF02B0704784B003900291019288
:10AE9000039B029AC3F80825039B019AC3F80C256B
:10AEA00000BF04B0704782B001900091019B009AEE
:10AEB000C3F8242500BF02B0704784B00190019B05
:10AEC000D3F8C4340393019B039AC3F8C424039BAF
:10AED000184604B0704782B001900B468DF80330DD
:10AEE0009DF80320019BC3F8882500BF02B070477E
:10AEF00084B0039002910192029A039BC3F8442507
:10AF0000039B019AC3F8482500BF04B0704784B082
:10AF1000039002910192029A039BC3F83425039B8C
:10AF2000019AC3F8382500BF04B0704782B0019081
:10AF30000091019B009AC3F8002200BF02B0704745
:10AF400082B00190019BD3F84C35184602B070478F
:10AF500082B00190019BD3F83C35184602B070478F
:10AF600082B00190019B0122C3F8502500BF02B0BE
:10AF7000704782B00190019B0022C3F8502500BFAA
:10AF800002B0704782B00190019B0122C3F84025B6
:10AF900000BF02B0704782B00190019B0022C3F84D
:10AFA000402500BF02B0704784B00190019B1B0B8D
:10AFB0008DF80F309DF90F30184604B0704782B0FD
:10AFC0000190019B03F06043B3F1005F0CBF0123CC
:10AFD0000023DBB2184602B07047000000B583B012
:10AFE0000190019B1B68184600F074F80346002B83
:10AFF00004D10B494FF4F670FCF726FA019B1B684D
:10B000001F2B02D84FF0A04306E0019B1B6803F002
:10B010001F02019B1A60034B184603B000BD00BF1E
:10B02000084503000003005000B585B0019001AB56
:10B030001846FFF7D3FF0390019B012202FA03F3A6
:10B040001946039800F032F800BF05B000BD00B506
:10B0500085B0019001AB1846FFF7C0FF0390019B3C
:10B06000012202FA03F31946039800F029F800BF01
:10B0700005B000BD00B585B0019001AB1846FFF7E3
:10B08000ADFF0390039800F009F80246019B22FAF5
:10B0900003F303F00103184605B000BD82B0019030
:10B0A000019BD3F81035184602B0704782B001906A
:10B0B0000091019B009AC3F8082500BF02B07047B9
:10B0C00082B001900091019B009AC3F80C2500BF4B
:10B0D00002B0704784B00190019B5B09029300238A
:10B0E0000393029B002B03D0029B012B04D007E0AB
:10B0F0004FF0FF33039303E04FF6FF73039300BF5A
:10B10000019B03F01F030193039A019B22FA03F3AF
:10B1100003F00103DBB2184604B0704784B001901D
:10B1200003230393019B03F00203002B02D048F298
:10B1300001230393019B03F00403002B02D048F288
:10B1400002230393039B184604B0704700B585B0F3
:10B1500001904FF0A042019B1B6803F5E07340F2A1
:10B160000C6142F823104FF0A042019B5B6803F58D
:10B17000E07340F20C6142F82310019B1B681846F3
:10B18000FFF752FF019B5B681846FFF74DFF4FF03A
:10B19000A042019B1B6803F5E07340F20D6142F889
:10B1A00023104FF0A042019B5B6803F5E07340F26F
:10B1B0000D6142F823100420FFF7FEFD00230393E6
:10B1C0001EE0019B5B681846FFF754FF0346002B07
:10B1D00003D0039B002B17D124E0019B1B6818466A
:10B1E000FFF735FF0420FFF7E7FD019B1B681846BA
:10B1F000FFF71AFF0420FFF7DFFD039B01330393E2
:10B20000039B082BDDDD00E000BF019B5B68184657
:10B21000FFF71DFF0420FFF7CFFD019B5B68184679
:10B22000FFF702FF05B000BD00B589B003900291A1
:10B2300001920093029B002B03D13F49F520FCF7BC
:10B2400003F9029B1A68029B5B689A4203D13A4950
:10B25000F620FCF7F9F8039B1B791A4613469B006E
:10B260001344DB00354A13440793079B93F82230BD
:10B27000002B03D008230593059B59E0079B019AF7
:10B280001A60079B009A5A60079B00229A60079BEE
:10B29000002283F82520079B002283F82420029BAC
:10B2A0009A7B079B83F82720029B5B7B002B02D0B5
:10B2B0000298FFF74BFF4FF0A042029B1B6803F57B
:10B2C000E07340F20C6142F823104FF0A042029B61
:10B2D0005B6803F5E07340F20C6142F82310039BB6
:10B2E0001B680693029B1968029B5B681A460698C6
:10B2F000FFF7CAFD029B9B6819460698FFF7D3FD2E
:10B30000079B1B68002B0CD0039B1B681846FFF79C
:10B310004BFE03461A46029B1B7B19461046FFF75D
:10B3200015FD079B012283F8222000230593059B2E
:10B33000184609B000BD00BF3C4503002825002089
:10B3400000B585B00190019B1B791A4613469B00FE
:10B350001344DB000C4A13440393039B93F82230FD
:10B36000012B04D0094940F27710FCF76DF8019BDE
:10B370001B6802930298FFF77EFD039B022283F86D
:10B38000222000BF05B000BD282500203C45030059
:10B3900000B583B001900091009B03F00103002BE6
:10B3A00003D00198FFF7DCFD02E00198FFF7E1FD13
:10B3B000009B03F00203002B03D00198FFF7E2FD8E
:10B3C00002E00198FFF7E7FD00BF03B000BD0000F9
:10B3D00000B589B003900291019200930023079376
:10B3E00008238DF81B304FF48273ADF81830019BA1
:10B3F0005B681846FFF7E3FD034683F00103DBB209
:10B40000002B03D010230793079B94E14FF0FF31EB
:10B410000298FFF726FD039B93F82430DBB2002B44
:10B4200009D0039B9B6819460298FFF710FD112372
:10B430000793079B7FE1009B03F00403002B06D1D9
:10B44000009B03F01003002B01D1012300E0002337
:10B4500003F00103DAB2039B83F82420039B019AD3
:10B460000C3307CA83E80700009B1B0903F00103A4
:10B47000DAB2039B83F82520019B5B78194602987A
:10B48000FFF729FD4FF482710298FFF7B9FC4FF4E2
:10B4900092710298FFF7B4FC00990298FFF778FFC9
:10B4A000019B1B78032B0ED0032B00F3E980022BAA
:10B4B00077D0022B00F3E480002B00F09B80012B5F
:10B4C00000F0C580DCE0009B03F01003002B04D0EB
:10B4D0009A4940F23530FBF7B7FF009B03F00803B1
:10B4E000002B04D0954940F23630FBF7ADFF009BAE
:10B4F00003F00403002B04D0904940F23730FBF7EF
:10B50000A3FF019B9B681846FFF759FD034683F094
:10B510000103DBB2002B03D010230793079B0AE142
:10B520004FF480710298FFF701FD019B5968019B60
:10B530009B781A460298FFF7DBFC4FF4A87102983B
:10B54000FFF75EFC4FF4B0710298FFF759FC4FF41F
:10B55000A4710298FFF754FC20210298FFF742FCE7
:10B5600008210298FFF73EFC00BF4FF4A871029833
:10B57000FFF75BFC034683F00103DBB2002BF4D141
:10B580004FF4A8710298FFF73BFC019B9968019B5F
:10B59000DB781A460298FFF7ABFC039B684A9A6077
:10B5A00071E0019B5968019B9B781A460298FFF74E
:10B5B0009FFC019B9B681846FFF701FD034683F043
:10B5C0000103DBB2002B03D010230793079BB2E0EB
:10B5D000019B9968019BDB781A460298FFF797FC5C
:10B5E0004FF484510298FFF7A1FC039B40F2022222
:10B5F0009A6048E0019B5968019B9B781A46029823
:10B60000FFF776FC009B03F02003002B11D04FF4D2
:10B6100080710298FFF78AFC039B494A9A604FF4B5
:10B62000A4710298FFF7ECFB4FF4A473ADF8183047
:10B6300008E04FF400710298FFF778FC039B40F29A
:10B6400002229A6020210298FFF7CCFB1BE0019BAD
:10B650005968019B9B781A460298FFF758FC4FF4F3
:10B6600080510298FFF762FC039B40F202229A602D
:10B6700000238DF81B3020210298FFF7B3FB02E076
:10B680000723079300BF009B03F00803002B09D199
:10B69000019B1B78032B05D09DF81B30194602989F
:10B6A000FFF7A0FB039B1B68002B28D0009B03F037
:10B6B0000403002B03D0039B4FF400729A60039B9A
:10B6C0009B6819460298FFF7C2FB33E04FF4927172
:10B6D0000298FFF7AAFB0346002B10D04FF492719B
:10B6E0000298FFF78DFB20210298FFF77BFB1421C6
:10B6F0000298FFF777FB4FF48273ADF81830BDF86E
:10B70000183019460298FFF790FB034683F00103B7
:10B71000DBB2002BDAD10298FFF7CFFB0590039B39
:10B72000002283F82420059B002B03D00598FFF707
:10B73000F5FC0790079B184609B000BD3C45030087
:10B740000002040000B587B003900291019200232B
:10B750000593039B1B791A4613469B001344DB0099
:10B76000144A13440493049B1B68002B08D1029BCA
:10B770001B78022B04D1104940F2B730FBF764FE6E
:10B78000049B1B68002B08D1029B1B78032B04D160
:10B7900009494FF46E70FBF757FE039B1968019B34
:10B7A000029A0498FFF714FE0590059B184607B00F
:10B7B00000BD00BF282500203C45030000B589B02E
:10B7C000039001921A460B468DF80B3013468DF804
:10B7D0000A3005AB00221A605A609A609DF80B305F
:10B7E0008DF815309DF80A308DF81630019B0693C0
:10B7F0009DF82830002B01D0202200E0002205AB6C
:10B8000019460398FFF79EFF0346184609B000BD8E
:10B8100000B589B0039001921A460B468DF80B30A3
:10B8200013468DF80A3005AB00221A605A609A6000
:10B8300001238DF814309DF80B308DF815309DF8EC
:10B840000A308DF81630019B069305AB002219468D
:10B850000398FFF777FF0346184609B000BD0000C4
:10B8600000B589B001900091009B1B68002B04D1AA
:10B87000804940F23240FBF7E7FD4FF492710198A6
:10B88000FFF7D3FA0346002B27D04FF492710198AB
:10B89000FFF7B6FA4FF482710198FFF7C6FA034634
:10B8A00083F00103DBB2002B17D0009B9B68194685
:10B8B0000198FFF7D6FA009B02229A60009B9B68D2
:10B8C00019460198FFF7C3FA20210198FFF78AFA79
:10B8D00014210198FFF786FACAE04FF482710198AB
:10B8E000FFF7A3FA0346002B55D04FF4827101985D
:10B8F000FFF786FA009A04AB0C3207CA83E8070008
:10B90000009B93F82330002B21D0009B1B7B012B45
:10B9100005D10198FFF71CFB0346DBB204E0019858
:10B92000FFF70EFB0346DBB28DF81230009B1B7B4A
:10B93000022B05D10198FFF70BFB0346DBB204E0B5
:10B940000198FFF7FDFA0346DBB28DF813304FF490
:10B95000B0710198FFF754FA4FF4AE710198FFF7F8
:10B960004FFA009B93F8253083F00103DBB2002BE4
:10B9700004D1009B93F82330002B4DD00021019877
:10B98000FFF7D4FA009B00229A604FF0FF31019834
:10B99000FFF767FA40E04FF4A4710198FFF730FA1F
:10B9A000009B1B7B002B1AD1009A04AB0C3207CAF8
:10B9B00083E80700009B93F8253083F00103DBB296
:10B9C000002B29D000210198FFF7B0FA009B00223C
:10B9D0009A604FF0FF310198FFF743FA1CE04FF4F3
:10B9E00000710198FFF7A2FA009B40F202229A60D0
:10B9F0004FF0FF310198FFF734FA009B9B6819461E
:10BA00000198FFF724FA08210198FFF7EBF92021AC
:10BA10000198FFF7E7F92BE00198FFF74EFA07903E
:10BA2000079B03F00203002B03D001238DF80C3099
:10BA30000BE0079B03F00403002B03D002238DF8D7
:10BA40000C3002E000238DF80C30009B93F8253079
:10BA500083F00103DBB2002B03D0009B002283F8AC
:10BA60002420009B1B68009A516803AA104698473F
:10BA700009B000BD3C45030008B503490348FFF782
:10BA8000EFFE00BF08BD00BF2825002000300040A9
:10BA900000B589B001900091009B0793019B1B7832
:10BAA0008DF80C30019B5B680493019B9B68DBB2B3
:10BAB0008DF81430019BDB680693074A079B52F808
:10BAC00023300649079A51F8221003AA10469847D6
:10BAD00000BF09B000BD00BF502500205825002040
:10BAE00000B589B001900091009B0793019B1B78E2
:10BAF0008DF80C30019B5B680493019B9B68DBB263
:10BB00008DF81430019BDB680693074A079B52F8B7
:10BB100023300649079A51F8221003AA1046984785
:10BB200000BF09B000BD00BF5025002058250020EF
:10BB300030B58FB0039002910192039B1B780C9358
:10BB40002C490C9B019A41F82320029B1A692A492F
:10BB50000C9B41F823200C9B012B07D1029B5B7FA0
:10BB6000002B03D125497620FBF76EFC029B5B7FFF
:10BB70001946234A0C9B13440A461A70029B04ACD4
:10BB80001D460FCD0FC495E80F0084E80F000C9BF5
:10BB9000089300230D93039B1B781A46184B9B5C5C
:10BBA000002B0DD0039B181D019B002B01D0154AC3
:10BBB00000E0002204AB194602F020FB0D9014E0D7
:10BBC000039B1B781A460E4B9B5C002B0DD1039BED
:10BBD00003F10C00019B002B01D00B4A00E0002276
:10BBE00004AB194601F0A2FC0D900D9B18460FB056
:10BBF00030BD00BF50250020582500209845030087
:10BC00006025002091BA0200E1BA020082B003462A
:10BC10008DF807309DF90730002B0CDB9DF80730BD
:10BC200003F01F0205499DF907305B09012000FA66
:10BC300002F241F8232000BF02B0704700E100E0AB
:10BC400082B0034600918DF807309DF90730002B34
:10BC50000ADB009BDAB20C499DF907305201D2B2DF
:10BC60000B4483F800230BE0009BDAB207499DF8F0
:10BC7000073003F00F03043B5201D2B20B441A7693
:10BC800000BF02B0704700BF00E100E000ED00E03F
:10BC900082B00190019B1B0B5BB2184602B070474B
:10BCA00000B583B003460A468DF8073013468DF879
:10BCB00006309DF80630012B03D99DF80630032B82
:10BCC0000BD99DF80630042B03D99DF80630072BBD
:10BCD00003D907496B20FBF7B7FB9DF806209DF9B8
:10BCE000073011461846FFF7ABFF00BF03B000BD99
:10BCF000E845030000B583B003468DF807309DF991
:10BD000007301846FFF782FF00BF03B000BD0000F8
:10BD100082B003468DF807300E4A9DF90730002B9C
:10BD200000DA1F335B115BB252F823209DF9073014
:10BD3000594203F01F0301F01F0158BF4B425BB291
:10BD400022FA03F303F00103C3F30003DBB2184646
:10BD500002B0704700E100E082B001904FF08042F5
:10BD6000019BC2F8083300BF02B0704782B003469F
:10BD70008DF807309DF8073003F1804301221A60E7
:10BD800000BF02B0704784B00346ADF80630BDF87E
:10BD9000063003F1804300221A60BDF8063003F13B
:10BDA00080431B680393039B00BF04B0704782B0BD
:10BDB0000346ADF80630BDF8063003F180431B683A
:10BDC000002B14BF01230023DBB2184602B07047DA
:10BDD00082B001904FF08042019BC2F8183500BF3D
:10BDE00002B070474FF08043D3F818341B0C03F0B7
:10BDF0000103C3F30003DBB21846704700B583B0FC
:10BE000006238DF807304FF08040FFF741FF0346CF
:10BE10001846FFF77DFF034683F00103DBB2002BDA
:10BE200013D04FF08040FFF733FF03461A469DF8CA
:10BE3000073019461046FFF733FF4FF08040FFF7F9
:10BE400027FF03461846FFF755FF00BF03B000BDAC
:10BE500000B585B00190019B002B03D10C49A420B3
:10BE6000FBF7F2FA002303930A4B1B79002B02D055
:10BE70008523039308E0074A019B1360054B0122C9
:10BE80001A71044B00225A71039B184605B000BD7D
:10BE9000204603006425002008B5074B1B79002BC2
:10BEA00003D10649BD20FBF7CFFAFFF7A7FF01201A
:10BEB000FFF78EFF00BF08BD642500202046030069
:10BEC00008B50D4B1B79002B03D10C49F720FBF76C
:10BED000BBFA0220FFF740FF4FF48270FFF753FFD9
:10BEE0000C20FFF743FF00BFFFF77CFF0346002B4A
:10BEF000FAD100BF00BF08BD642500202046030022
:10BF000008B54FF48070FFF752FF0346002B14D0A2
:10BF10004FF48070FFF737FF0120FFF71DFF114B33
:10BF20005B7983F00103DBB2002B06D00D4B0122BD
:10BF30005A710C4B1B68002098474FF48270FFF732
:10BF400036FF0346002B0AD04FF48270FFF71BFF29
:10BF50000220FFF701FF034B1B680120984700BF39
:10BF600008BD00BF6425002082B003468DF807306D
:10BF70009DF90730002B0CDB9DF8073003F01F0202
:10BF800005499DF907305B09012000FA02F241F8EA
:10BF9000232000BF02B0704700E100E082B00346FA
:10BFA00000918DF807309DF90730002B0ADB009BCC
:10BFB000DAB20C499DF907305201D2B20B4483F832
:10BFC00000230BE0009BDAB207499DF8073003F02D
:10BFD0000F03043B5201D2B20B441A7600BF02B0E9
:10BFE000704700BF00E100E000ED00E082B001908A
:10BFF000019B1B0B5BB2184602B0704700B583B0C3
:10C0000003460A468DF8073013468DF806309DF832
:10C010000630012B03D99DF80630032B0BD99DF870
:10C020000630042B03D99DF80630072B03D90749A6
:10C030006B20FBF709FA9DF806209DF907301146A1
:10C040001846FFF7ABFF00BF03B000BD704603000A
:10C0500000B583B003468DF807309DF907301846C8
:10C06000FFF782FF00BF03B000BD00B583B00346F9
:10C07000ADF80630BDF80630184600F024F8034647
:10C080001B68012B0CBF01230023DBB2184603B051
:10C0900000BD00B585B00346ADF80630BDF80630EA
:10C0A000184600F010F803461A4600231360BDF846
:10C0B0000630184600F007F803461B680393039BFD
:10C0C00000BF05B000BD82B00346ADF80630BDF834
:10C0D000063003F1804303F5C043184602B07047B1
:10C0E00082B00190034A019BC2F8043300BF02B042
:10C0F000704700BF0060004082B00190034A019B7E
:10C10000C2F8083300BF02B0704700BF00600040B3
:10C1100082B00190034BD3F80423019B13401846CF
:10C1200002B070470060004082B00190084A019B55
:10C1300003F5A27352F82330054943F00102019B35
:10C1400003F5A27341F8232000BF02B0704700BF7F
:10C150000060004082B00190084A019B03F5A27381
:10C1600052F82330054923F00102019B03F5A27325
:10C1700041F8232000BF02B0704700BF00600040BC
:10C1800084B00390029113468DF80730144A039B44
:10C1900003F5A27352F82330114923F44F3323F4EB
:10C1A0004073039A02F5A27241F822300C4A039BB5
:10C1B00003F5A27352F82320029B1B0203F47C5167
:10C1C0009DF807301B0403F440330B4304491A4322
:10C1D000039B03F5A27341F8232000BF04B070470E
:10C1E0000060004082B00190054A019B03F5A273F4
:10C1F00052F823301B0A03F03F03184602B0704781
:10C200000060004082B00190064A019B03F5A273D2
:10C2100052F823301B0C03F00303DBB2184602B0C4
:10C22000704700BF0060004000B583B00190019BE3
:10C230001B68184600F021F90346002B04D10B4976
:10C240004FF4F670FBF700F9019B1B681F2B02D817
:10C250004FF0A04306E0019B1B6803F01F02019B07
:10C260001A60034B184603B000BD00BFA046030090
:10C270000003005000B585B00190084611461A46EB
:10C2800003468DF803300B468DF8023013468DF8C7
:10C29000013001AB1846FFF7C7FF03909DF803205C
:10C2A0009DF802305B001A439DF801309B001A4351
:10C2B0009DF818301B0242EA03019DF81C301B0454
:10C2C000019A1943039B02F5E07243F8221000BF64
:10C2D00005B000BD00B585B003900B468DF80B305E
:10C2E0009DF80B30002201920022009200220021D2
:10C2F0000398FFF7BFFF00BF05B000BD00B585B0D4
:10C30000019001AB1846FFF78FFF0390019A039B42
:10C3100002F5E07253F8223023F002030293019AEF
:10C32000039B02F5E072029943F8221000BF05B0AA
:10C3300000BD00B585B001900B468DF8033001AB10
:10C340001846FFF771FF0390019A039B02F5E07214
:10C3500053F82230019A23F44031039B02F5E07236
:10C3600043F82210019A039B02F5E07253F8221061
:10C370009DF803301B04019A1943039B02F5E072F8
:10C3800043F8221000BF05B000BD00B585B0019094
:10C3900001AB1846FFF748FF0390039800F01EF822
:10C3A0000246019B22FA03F303F00103184605B08D
:10C3B00000BD00B585B0019001AB1846FFF734FF12
:10C3C0000390019A039B02F5E07253F822301B0C94
:10C3D00003F00303DBB2184605B000BD82B0019044
:10C3E000019BD3F81035184602B0704788B003900F
:10C3F00002910192164A05AB92E8030083E803001C
:10C40000039B079319E0079B9B0020336B4453F871
:10C410000C3CD3F82025019B1A60079B9B0020331E
:10C420006B4453F80C3C019A1268C3F82025019B19
:10C4300004330193079B01330793039A029B134430
:10C44000079A9A42DFD300BF00BF08B0704700BF11
:10C45000D046030000B585B0019001AB1846FFF748
:10C46000E3FE0390019B012202FA03F31A46039BA9
:10C47000C3F8202500BF05B000BD84B00190019B2A
:10C480005B09029300230393029B002B03D0029BC2
:10C49000012B04D007E04FF0FF33039303E04FF686
:10C4A000FF73039300BF019B03F01F030193039AE3
:10C4B000019B22FA03F303F00103DBB2184604B038
:10C4C000704784B001900091009B0393019BDB08AF
:10C4D0000293019B03F0070301930122019B02FADF
:10C4E00003F30399029A0A4412781340184604B0E1
:10C4F000704784B001900091009B0393019BDB087F
:10C500000293019B03F007030193039A029B1344D8
:10C510001B785AB20121019B01FA03F35BB213436A
:10C5200059B2039A029B1344CAB21A7000BF04B0F6
:10C530007047000082B001900C4A019B13443033D5
:10C5400093F90030002B09DB084A019B1344303378
:10C5500093F90030072B01DC012300E0002303F0F6
:10C560000103DBB2184602B0704700BF6C25002003
:10C5700082B00190064A019B1344303393F9003096
:10C58000072BCCBF01230023DBB2184602B0704753
:10C590006C25002082B00190064A019B1344303381
:10C5A00093F90030DB43DBB2DB09DBB2184602B0A3
:10C5B000704700BF6C25002084B003900291019267
:10C5C0008DF80330029B59B20E4A039B134430335B
:10C5D0000A461A700B49029B019A41F823209DF8E4
:10C5E000033083F00103DBB2002B08D0029B083B31
:10C5F000039A51B2034A13440A4683F8602000BFED
:10C6000004B070476C25002082B00190044A019B61
:10C6100013443033FF221A7000BF02B0704700BFCE
:10C620006C25002000B583B0019003490198FFF705
:10C6300060FF00BF03B000BDD025002082B0019094
:10C64000044A019B1344303393F90030184602B07A
:10C65000704700BF6C25002082B00190034A019B07
:10C6600052F82330184602B0704700BF6C250020F6
:10C6700084B00190074A019B1344603393F9003062
:10C680008DF80F309DF80F3023F0C003184604B02A
:10C69000704700BF6C25002084B00190074A019BC1
:10C6A0001344603393F900308DF80F309DF80F304C
:10C6B0009B09DBB2184604B0704700BF6C25002010
:10C6C00000B589B00390029113468DF80730FF231F
:10C6D0008DF81F309DF80730002B02D00023059302
:10C6E00001E0082305939DF80730002B02D00823B2
:10C6F000049301E00C230493059B069314E00F4A76
:10C70000069B52F82330B3F1FF3F0AD19DF8073062
:10C71000029A06990398FFF74FFF069B8DF81F308A
:10C7200006E0069B01330693069A049B9A42E6D3E1
:10C730009DF91F30184609B000BD00BF6C250020D0
:10C7400082B003468DF807309DF80730094A4FF054
:10C75000FF3142F823109DF80730072B07D99DF8C9
:10C760000730083B034A1344FF2283F8602000BFD0
:10C7700002B070476C25002000B583B02D4B93F8B4
:10C780006A30002B03D008230093009B4EE0002367
:10C790008DF8073011E09DF807301846FFF76DFE61
:10C7A0000346002B04D09DF807301846FFF72CFFF6
:10C7B0009DF8073001338DF807309DF807302F2B97
:10C7C000E9D900238DF8073009E09DF807301846B5
:10C7D000FFF7B6FF9DF8073001338DF807309DF85D
:10C7E00007300B2BF1D906220021134807F0DEFA9F
:10C7F0001248FFF7FBFB034606211846FFF7FEFB36
:10C800000E48FFF7F3FB03461846FFF721FC4FF4F1
:10C81000BE70FFF73EFC4FF00040FFF761FC054B98
:10C82000012283F86A2000230093009B184603B07E
:10C8300000BD00BF6C250020D02500200060004016
:10C84000044B93F86A30002B14BF01230023DBB2A2
:10C85000184670476C25002000B587B00390029100
:10C8600001920398FFF709FE0346002B04D13649D5
:10C870004FF40C70FAF7E8FD002305930398FFF7D7
:10C8800089FE0346002B02D00823059358E0029B43
:10C890009B78C3F34003DBB21A4601990398FFF774
:10C8A0000FFF03468DF813309DF91330B3F1FF3FAE
:10C8B00044D0029B9B78C3F38003DBB283F0010377
:10C8C000DBB2002B13D0029B9B7803F00103DBB299
:10C8D000002B03D00398FFF711FD05E0029B5B7866
:10C8E00019460398FFF7F6FC0398FFF79BFE029B9F
:10C8F0009B7803F00203DBB2002B08D09DF91300F4
:10C90000029B1B781A460399FFF73AFC18E09DF941
:10C910001330083B0D4A134493F96010029B1B78B7
:10C920005BB29B015AB29DF91330083B0A4351B2E6
:10C93000064A13440A4683F8602001E00423059365
:10C94000059B184607B000BDE04603006C2500209B
:10C9500000B589B001900B468DF803300198FFF7C0
:10C960008CFD0346002B04D13C494FF41870FAF7B4
:10C970006BFD0198FFF70EFE0346002B04D13749EB
:10C9800040F26120FAF760FD0198FFF7F1FD0346E0
:10C99000002B2ED00198FFF751FE0346083B1846A6
:10C9A000FFF77AFE03468DF80F309DF80F30032B0A
:10C9B0000DD10198FFF7E9FC0346002B03D00323B8
:10C9C0008DF81F300EE002238DF81F300AE09DF82D
:10C9D0000F30012B03D102238DF81F3002E0032317
:10C9E0008DF81F309DF81F3019460198FFF7A1FC04
:10C9F00030E00198FFF79EFD0346002B2AD00198F6
:10CA0000FFF71CFE03460693069B9BB240339BB286
:10CA10009B00ADF81630069B1846FFF785FBBDF866
:10CA200016301846FFF735FB9DF80330002B11D068
:10CA30000198FFF703FE03461846FFF70DFE04902A
:10CA4000049B002B06D00122069B02FA03F3184632
:10CA5000FFF746FB00BF09B000BD00BFE046030082
:10CA600000B585B001900198FFF707FD0346002B44
:10CA700004D11A4940F28B20FAF7E6FC0198FFF73F
:10CA800089FD0346002B04D114494FF42370FAF7B3
:10CA9000DBFC0198FFF76CFD0346002B04D000215E
:10CAA0000198FFF746FC15E00198FFF743FD0346A8
:10CAB000002B0FD00198FFF7C1FD03460393039BA2
:10CAC0001846FFF747FB0122039B02FA03F31846BF
:10CAD000FFF712FB00BF05B000BD00BFE04603003A
